:020000040800F2
:10400000F8ED0020AD410008596A00086965000814
:10401000556A0008094A0008FD7F000800000000FA
:1040200000000000000000000000000031710008E6
:10403000914B000800000000F16E0008717100084B
:10404000C7410008C7410008C7410008C741000830
:10405000C7410008C7410008C7410008C741000820
:10406000C7410008C7410008C7410008C741000810
:10407000C7410008C7410008C7410008C741000800
:10408000C7410008C7410008C74100080000000000
:10409000000000000000000000000000C741000810
:1040A000C7410008C5720008C7410008C7410008A1
:1040B000C7410008C7410008C7410008C7410008C0
:1040C000C7410008C7410008C7410008C7410008B0
:1040D000C7410008B1730008C74100080000000094
:1040E000C7410008C7410008C741000800000000A0
:1040F000000000000000000000000000C7410008B0
:1041000000000000C7410008C7410008C74100087F
:10411000000000000000000000000000000000009F
:10412000C7410008C7410008454B0008C7410008C7
:10413000C74100080000000000000000000000006F
:104140000000000000000000000000005D6A0008A0
:10415000C7410008C7410008C7410008C74100081F
:10416000C7410008C741000800000000000000002F
:10417000000000000000000000000000000000003F
:1041800000000000C741000800000000000000001F
:10419000C7410008C7410008DFF80CD000F0E8FB79
:1041A00000480047499E0008F8ED00200648804777
:1041B00006480047FEE7FEE7FEE7FEE7FEE7FEE70C
:1041C000FEE7FEE7FEE7FEE791720008994100086E
:1041D0002DE9F05F0546002092469B46884606463C
:1041E000814640241BE0284641464746224600F0CF
:1041F00084FA53465A46C01A914110D311461846C4
:10420000224600F06BFA2D1A67EB01084F46224652
:104210000120002100F062FA17EB00094E41201E38
:10422000A4F10104DFDC484631462A464346BDE896
:10423000F09F40EA01039B0703D009E008C9121F61
:1042400008C0042AFAD203E011F8013B00F8013B50
:10425000521EF9D27047D2B201E000F8012B491E7C
:10426000FBD270470022F6E710B513460A46044613
:104270001946FFF7F0FF204610BD421E12F8013F1D
:10428000002BFBD111F8013B02F8013B002BF9D1C7
:10429000704730B505462A460B4612F8010B13F855
:1042A000014B08B1A042F8D01CB1002802D06D1C0F
:1042B000F1E7284630BD421C10F8011B0029FBD154
:1042C000801A7047034611F8012B00F8012B002AD1
:1042D000F9D1184670472DE9F04791460F468046C0
:1042E0000446002614F8015B2DB100F029FA00689D
:1042F000405DC007F6D12B2D02D02D2D18D0641EA5
:104300004A463946204600F01FFA27B13968A142D3
:1043100001D1C7F8008071054FF002040BD540426F
:10432000002803DD08F0F6FE0460A007BDE8F08772
:1043300046F48066E4E70028F8DA08F0EBFE046053
:104340006FF00040F2E72DE9FE4F804681EA03005E
:10435000C00F0C46009021F0004123F00045B8EB5F
:104360000200A94105D24046214690461C460B4614
:10437000024623F00040104347D0270DC7F30A0040
:10438000C3F30A510290401A019040286BDAC3F33C
:10439000130040F4801B0098924620B10023D2EB1A
:1043A000030A63EB0B0B01985946C0F140025046DB
:1043B00000F094F906460D4650465946019A00F021
:1043C000ACF910EB08006141002487EA115284EA3D
:1043D000E7731A4340D0009A62B3019A012A4FEA68
:1043E000075215DC001B61EB02014FF0004202EAAC
:1043F0000752CDE90042001C41F5801132462B46A0
:1044000000F037FA03B0BDE8F08F40462146F9E7E7
:10441000001B61EB0201001C41F5801300185B4199
:104420002018A2F5001747EB030140EAD570B61932
:104430006D4111E06D084FEA360645EAC0754FEA56
:104440000752001B61EB0201001C41F58011490875
:104450004FEA30000019514132462B4603B0BDE807
:10446000F04F00F0F7B90098012240000023D0EB94
:10447000020263EBE073009821464FEAE074B8EB68
:10448000000061EB0401E9E783F000435BE781F0A2
:10449000004158E72DE9FE4F81EA030404F000448F
:1044A00021F0004100944FF0000B23F0004350EA4C
:1044B00001045ED052EA03045BD0C3F30A54C1F393
:1044C0000A552C44A4F2F3340194A0FB0254C1F326
:1044D000130141F48011C3F3130343F4801301FB70
:1044E000024400FB034E840A970A44EA815447EAD7
:1044F0008357A4FB076802958D0A05FB07854FEAE1
:10450000932C04FB0C542705029D4FEA065847EAFA
:104510001637B5EB08056EEB070C870E920E47EACF
:10452000811742EA8312A7FB0201B6EB0B0164EB91
:1045300000042B0D43EA0C335E1844EB1C50DA46A2
:104540005146E7FB0201C5F313044FEA0B3343EA7C
:1045500014534FEA0432019C43EA0603A4F10C040D
:104560000294009CCDE900B400F083F903B0BDE8EB
:10457000F08F00200146F9E72DE9F04D81EA0304B0
:1045800004F0004B21F0004514464FF0000A23F0E0
:10459000004150EA050220D054EA01021DD0C5F3C3
:1045A0000A570246C5F31303C1F31300C1F30A56B9
:1045B00040F4801543F48013A7EB0608101BD64681
:1045C00008F2FD3873EB050002D308F1010801E0A1
:1045D00092185B41B8F1000F03DA00200146BDE8F4
:1045E000F08D00204FF48011064684460EE0171B24
:1045F00073EB050705D3121B63EB050306434CEA77
:10460000010C49084FEA300092185B4150EA01075B
:10461000EDD152EA030012D082EA040083EA0501D8
:10462000084305D0101BAB4106D20122002306E04F
:1046300000224FF0004302E06FF0010253101AEB2A
:1046400006004CEB085110EB0A0041EB0B01BDE8F2
:10465000F04D00F0FFB80EB5C10F80EAE0700844DD
:10466000CA07002140F233438DE80E000A460B468C
:1046700000F0FFF803B000BD01F0004330B421F0BA
:10468000004150EA010206D00A0DA2F56072C1F3A2
:104690001301002A02DC30BC00207047440F44EABA
:1046A000C104C100E01830BC00EBC25000F09BB860
:1046B00030B50B46014600202022012409E021FAF2
:1046C00002F59D4205D303FA02F5491B04FA02F5EF
:1046D0002844151EA2F10102F1DC30BD202A04DBC2
:1046E000203A00FA02F1002070479140C2F1200305
:1046F00020FA03F3194390407047202A04DB203A44
:1047000021FA02F00021704721FA02F3D040C2F1F1
:1047100020029140084319467047202A06DBCB1738
:10472000203A41FA02F043EAE07306E041FA02F36C
:10473000D040C2F120029140084319467047000062
:104740000048704734DB00082DE9F05F82460078AE
:10475000002715468B460AF10104B946302801D0DE
:104760009DB113E014F8010B0127782803D05828D5
:1047700001D045B10AE00DB1102D07D10027102559
:1047800014F8010B02E0082500E00A250026B046D7
:104790000EE005FB080005FB06F1012701EB1046C2
:1047A0001FFA80F8B6F5803F00D3B94614F8010B24
:1047B000294600F0EFF80028EBDABBF1000F05D036
:1047C0000FB1641E00E05446CBF80040B9F1000F71
:1047D00006D008F09FFC02210160C81EBDE8F09FD2
:1047E00048EA0640FAE70029A8BF7047401C490084
:1047F00008BF20F00100704710B4B0FA80FC00FA46
:104800000CF050EA010404BF10BC704749B1CCF170
:10481000200421FA04F411FA0CF118BF01212143FC
:104820000843A3EB0C01CB1D4FEA00614FEA1020B7
:1048300042BF002010BC704700EBC3501044002959
:10484000A4BF10BC7047401C490008BF20F0010005
:1048500010BC704710B5141E73F1000408DA401C38
:1048600041F1000192185B411A4301D120F001008F
:1048700010BD2DE9F04D92469B4611B1B1FA81F27F
:1048800002E0B0FA80F220329046FFF727FF04469C
:104890000F4640EA0A0041EA0B0153465A460843D4
:1048A00013D0114653EA010019D0C8F14002504616
:1048B000FFF723FF05460E46504659464246FFF78E
:1048C0000DFF084305D0012004E020463946BDE82D
:1048D000F08D0020054346EAE0762C4337430A98E2
:1048E0006305E40AA0EB08000022FD0A44EA4754ED
:1048F0000A3002D500200146E9E701051019694197
:10490000DDE9084500196941BDE8F04DA2E7C1F3B2
:104910000A52C1F3130140F2FF3341F480119A426D
:1049200002DA00200146704740F233439A42A2F275
:10493000334202DC5242FFF7E0BEFFF7CFBE000079
:1049400030B5041E71F1000404DB4FF00044404216
:1049500064EB0101141E73F1000405DB1C464FF0EB
:104960000043524263EB0403994208BF904230BDBA
:10497000064C074D06E0E06840F0010394E80700AC
:1049800098471034AC42F6D3FFF70AFC54DD000818
:1049900074DD00083A2800D2303820F02002412A85
:1049A00001D3A2F13700884201D34FF0FF307047A6
:1049B00070B58C1810F8015B15F0070301D110F8E1
:1049C000013B2A1106D110F8012B03E010F8016B0E
:1049D00001F8016B5B1EF9D12B0705D40023521E91
:1049E0000DD401F8013BFAE710F8013BCB1A921CF9
:1049F00003E013F8015B01F8015B521EF9D5A142F7
:104A0000D8D3002070BD0000FEE7000000207047F2
:104A10000020704710B544F23814C2F2000440F68A
:104A2000F051C2F200012046002202F0D3FD40F214
:104A3000F051C2F20001204602F0C6FD002010BD78
:104A400070B5C4B00D6803AC0646C5F1FF0160192E
:104A5000FE2D88BF0021FFF705FC204631462A467F
:104A6000FFF7E7FB28068DF80B5138D044F65C00C1
:104A7000C2F20000006802AE01210322002300966A
:104A800007F0E2FF9DF80B019DF80C20411E635CCE
:104A90000A2B10D1082A0ED0821EA35C0D2B11BF49
:104AA000FF220023A354FE220023104463548DF8F8
:104AB0000B01012007E0082A07D19DF80E100331F1
:104AC000814202D102208DF80C0143F6C420C2F2CB
:104AD0000000006803A90022002307F0B5FB44B0E2
:104AE00070BD000070B544F238160546C2F20006EB
:104AF0000C463046294602F067FD304602F046FD7E
:104B000028462146FFF79CFF002070BD002070471B
:104B100010B544F23812C2F20002D2F8BC22D2F828
:104B20001432002B1CBF012010BD44F23814C2F215
:104B300000040A460146204602F04CFD204602F0E1
:104B4000D1FD10BD7047000002F008F840F2E834D3
:104B500043F60045C2F20004C2F2000520684FF09F
:104B6000FF3107F0EBFC02F0F5FA2068002100228B
:104B7000002307F05FFA4FF4FA7005F089FA04F0A9
:104B800073FE28604FF4FA7005F082FAE6E7000041
:104B900070470000EFF3108072B600BFFEE7000020
:104BA0002DE9F04F85B044F6005B44F68045804621
:104BB000C2F2000B0020C2F2000589468BF800000B
:104BC00028468021FFF74EFB4DF65031C0F600011C
:104BD00018224FF6FF7441F2210300BF0E7884EAD9
:104BE00006246FF0070600BF27B2204683EA44047C
:104BF000B7F1FF3FC8BF44000136F5D3013A01F1D8
:104C00000101EBD1DBF8200042F26B71CEF2A5116D
:104C10008842CDF8109009D1BBF80200A1B28842B9
:104C200006D1DBF81C0000F1010905E0CBF82010EB
:104C3000ABF802404FF0010944F6800AB9F1010FC8
:104C4000C2F2000A4FF00000CBF81C900ED18BF896
:104C50000100CBE90100CBF80C0044F68000C2F261
:104C600000004FF48061FFF7FDFA0BE00AEB000152
:104C7000CA681030530144BF22F04062CA60B0F5E8
:104C8000806FF3D100F0ACF9B9F1010F07460FD1F5
:104C900040F2ED34002FC2F200044FF000060CBFCA
:104CA000002000F097F9CBE90460CBF8186026707B
:104CB000002F00F0DE80002001210022039704E095
:104CC0000130042802F1200211D028FA00F3DB079A
:104CD000F6D0002302EBD30603F00707AC5D01FA20
:104CE00007F701332743FF2BAF55F3D1E8E7002047
:104CF00029184A7F203042F0800280284A77F7D175
:104D0000002002E02030802807D04028FAD129185E
:104D1000CA7F42F04002CA77F4E740F2ED35C2F2B2
:104D2000000501270BF1180608E000BF56E8001F38
:104D300046E8000202B1F9E78C421AD0DBF81840CD
:104D400000F042F9A042F1D2D5E84F1FC5E8427FFA
:104D500002B1F9E70906E9D1DBF8101000230131AF
:104D6000CBF81010D5E84F1FC5E8423F02B1F9E774
:104D7000DCE7DBF81CE0DBF814704FF080514FF0FB
:104D8000005201EAD00102EA9E024FF0804303EA9A
:104D9000570311444FF600780290019701EB030985
:104DA0006FF006070BF1040CC0F60078604650E87F
:104DB000001F4A1C40E8002505B1F8E701F03F025A
:104DC00001F4707149EA813141EA08000AEB0211ED
:104DD00001F10C0555E8006FB30103D3BFF32F8F2A
:104DE000002606E006F00046064345E8006404B1EC
:104DF000F0E7700102D40137D8D32BE0029C86F093
:104E0000044000F0004324F00044019F1C441201C0
:104E10004AF802402EF0004227F000471A443B4473
:104E2000C1E9012355E8002F920103D2BFF32F8F70
:104E3000002104E045E8000303B1F3E7012149B193
:104E40000BF1080050E8001F4A1C40E8002303B1A2
:104E5000F8E708E00BF10C0050E8001F4A1C40E89E
:104E6000002303B1F8E70498039F002818BF00F05F
:104E700005F8384605B0BDE8F08F00002DE9F04F89
:104E800081B044F60058C2F2000898F800000028EB
:104E900040F0958040F2ED360124C2F2000608F1A0
:104EA000180788F8004007E057E8001F47E80002AD
:104EB00002B1F9E78D421AD0D8F8185000F084F802
:104EC000A842F1D2D6E84F1FC6E8424F02B1F9E737
:104ED0000906E9D1D8F8101000230131C8F81010E4
:104EE000D6E84F1FC6E8423F02B1F9E7DCE74FF0D2
:104EF00080514FF6017E44F6800C01EAD0096FF034
:104F0000060308F1040AC0F6007EC2F2000C00BFDE
:104F1000524652E8004F611C42E8001606B1F8E71D
:104F200004F03F0B04F4707449EA84340CEB0B1763
:104F300044EA0E0607F10C0151E8004FA20103D329
:104F4000BFF32F8F002406E004F00044344341E80F
:104F5000004505B1F0E7620102D40133D8D325E062
:104F600084F0044202F0004320F000400D46184453
:104F70004FEA0B114CF80100C7E9013355E8001F57
:104F8000890103D2BFF32F8F002004E045E80023FE
:104F900003B1F3E7012048B108F1080050E8001F11
:104FA0004A1C40E8002303B1F8E708E008F10C00D0
:104FB00050E8001F4A1C40E8002303B1F8E7012035
:104FC00001B0BDE8F08F000041F20400CEF2000015
:104FD0000068704740F23400C2F200000068704779
:104FE0004EF6FC50CEF20000016841F08071016085
:104FF00041F20001CEF20001086840F001020120F8
:105000000A6070472DE9F04144F62458044643F6FF
:105010000C46C2F200080020C4F20206C8F81C00C8
:1050200000F0B8FA3168C90351D43068C0071CBF1A
:1050300001203060306810F4F97F4FD03068C0062E
:1050400007D5D8F81C0040F01000C8F81C0010204C
:1050500030603068800607D5D8F81C0040F00800A2
:10506000C8F81C00202030603068400607D5D8F80A
:105070001C0040F00400C8F81C004020306030687C
:10508000000607D5D8F81C0040F00200C8F81C0044
:10509000802030603068C00508D5D8F81C0040F08A
:1050A0000100C8F81C004FF4807030603068800741
:1050B0005CBF0120BDE8F081D8F81C0040F0200062
:1050C000C8F81C00022030600120BDE8F0810546D0
:1050D000671C07D05CB90320BDE8F0810020BDE863
:1050E000F08100BF3068C0039FD5002FFAD000F0D8
:1050F00051FA401BA042F5D90320BDE8F081000021
:10510000012840F218004FF00401C4F2020008BF69
:105110004FF4802101607047B0B5044600F03AFAC0
:10512000054640F29C30C2F200000078611C18BFB6
:10513000044400BF00F02EFA401BA042FAD3B0BDD9
:105140002DE9F04381B044F62458C2F2000898F8E3
:105150001820012A03D1022001B0BDE8F0830546E2
:10516000012088F818004CF250308946FFF74AFFBA
:10517000002840F093804FF0FF31C9F800102968F3
:1051800043F610470129C4F2020718D1286939688B
:10519000000221F440713960396880B241F00401A5
:1051A00039603968084340F4803038604CF2503040
:1051B000FFF728FF396821F00401396036E0D5E9AE
:1051C000026131448E4231D2F000841C28694FF4D0
:1051D0004072C1B2032939684FEA002021F44071BE
:1051E0003960396838BF82B241EA020038603868F5
:1051F00020F0F8003860386820433860386840F4A0
:10520000803038604CF25030FFF7FCFE396821F0F6
:10521000FA01396040B9D5E90212013611448E42D3
:1052200004F10804D2D301E0C9F8006057F8101C5B
:10523000890517D557F8101C21F4007147F8101C88
:1052400057F8101C41F4006147F8101C57F8101C67
:1052500021F4006147F8101C57F8101C41F400714C
:1052600047F8101C57F8101C490517D557F8101CA3
:1052700021F4806147F8101C57F8101C41F480514C
:1052800047F8101C57F8101C21F4805147F8101CE7
:1052900057F8101C41F4806147F8101C002188F871
:1052A000181001B0BDE8F08343F61041C4F20201CA
:1052B000086840F0004200200A6070472DE9F04382
:1052C00081B044F62454C2F200049046227E012AA2
:1052D00003D1022001B0BDE8F0830746012020760B
:1052E0004CF250301E460D46FFF78CFE002866D16A
:1052F00043F61049022FC4F2020915D0012F28D01D
:10530000E7BBD9F8000020F44070C9F80000D9F8D4
:105310000000C9F80000D9F8000040F00100C9F809
:10532000000085F8008040E0D9F8000020F44070CB
:10533000C9F80000D9F8000040F40070C9F8000076
:10534000D9F8000040F00100C9F80000C5F800805D
:105350002BE0D9F8000020F44070C9F80000D9F81B
:10536000000040F48070C9F80000D9F8000040F057
:105370000100C9F80000A5F8008016E0D9F8000087
:1053800020F44070C9F80000D9F8000040F44070E3
:10539000C9F80000D9F8000040F00100C9F8000089
:1053A000C5F80080BFF36F8F6E604CF25030FFF78E
:1053B00029FED9F8001021F00101C9F800100021E0
:1053C000217601B0BDE8F08343F60440C4F2020048
:1053D000C168B1F1FF3FC4BF0020704740F2231104
:1053E000C4F26751016048F6AB11CCF6EF51016091
:1053F000C068C00F704700002DE9F04F82B000F187
:105400003E4241F2000602F1FF72C4F2020643F688
:10541000004E4FEAB2270723B042C4F2010E08BF84
:105420000423042F4FF0010B4FF000074FF000044E
:105430004FF0000838BF4FEAB223009309E000BFE5
:1054400008F101080434B8F1100F07F1020700F069
:105450009E800E680BFA08F216EA0209F0D0D1F825
:1054600004C0BCF1120F17D80BFA0CF616F0061F89
:1054700012D00323866803FA07F5CB6826EA0505F0
:10548000BB402B438360436823EA0202CCF3001342
:1054900003FA08F31A4342600323C26803FA07FAC7
:1054A0008B6822EA0A02BB401A434CF01003122B0D
:1054B000C26011D16FF0030202EA5802024404F004
:1054C0001C060F23D2F820C003FA06F50B692CEA5C
:1054D0000505B3402B43136203684E686FEA0A0266
:1054E0001A4006F00303BB401A43F3000260A7D53D
:1054F000002243F644030192C4F202031A684FF6F5
:10550000084C42F480421A601A68CFF6FF7C02F41D
:1055100080420192019A28F00302724452F80C3042
:1055200004F00C060F25B540AB43009D05FA06F6C6
:10553000334342F80C30DEF800204B6842EA09069B
:10554000DD0358BF22EA0906CEF80060DEF8042029
:105550009D0342EA090658BF22EA0906CEF8046014
:10556000DEF80820DD0242EA090643F60C4558BF82
:1055700022EA0906CEF80860C4F201052A689B02F7
:1055800042EA090658BF22EA09062E6058E702B02F
:10559000BDE8F08F48F6F420C2F2000000687047C2
:1055A00040F29C3048F6F421C2F20000C2F2000141
:1055B00000780A68104408607047000080B543F620
:1055C0000040C4F20200016841F40071016001680A
:1055D00041F480610160016841F480710160032041
:1055E00000F0AEF8002000F005F800F049F80020C7
:1055F00080BD000010B586B00146192000220024AD
:1056000000F072F8192000F05FF843F644000194AE
:10561000C4F20200016841F00101016000686946BE
:1056200000F001000190019801A800F069FE00F06F
:105630008DFE4DF68361C4F21B31A0FB01014FF0DA
:10564000FF3000EB914144F610000022C2F200004E
:10565000C4F2010240F2E733C0E90021C0E902438D
:10566000046100F08BFE10B1012006B010BD44F6BD
:105670001000C2F2000000F09FFE06B010BD000056
:1056800080B582B0002043F640010190C4F20201CF
:105690004A6842F480424A604A6802F480420192B9
:1056A000019A00900868002240F080500860086865
:1056B0000F2100F08050009000986FF0010000F082
:1056C00013F802B080BD0000002848BF704700F00A
:1056D0001F01012202FA01F14EF200124009CEF23E
:1056E000000242F82010704710B54EF60C5CCEF266
:1056F000000CDCF80030C3F3022E8EF00704042CFB
:1057000028BF0424BEF103034FF0FF3E0EFA04F459
:1057100038BF0023A14399400EFA03F39A4300F0E7
:105720000F03043B1143634409010C3300F1604251
:10573000B0F1FF3FC8BF02F56443197010BD00000F
:105740004EF60C51CEF200010A684FF6FF031A40E4
:1057500060F30A2242F0806040F0FD7008607047FC
:1057600070470000026800205162704770B5D0F8A1
:1057700000E0DEF82400D9B1DEF82830B1F1010CE8
:1057800000EB13430CD00EF5807100205FFA8CF40F
:1057900051F8045F0130C6B2A64203EB1543F7D3BC
:1057A00043EA02400EEB8C01C1F80401002070BDF9
:1057B00040EA0240CEF82800002070BD80B5D0F845
:1057C000040402F0A7F980BD80B5C1EBC102D0F896
:1057D000043400EB8200826C184602F00FF980BDA1
:1057E00080B5C1EBC102D0F8043400EB8200D0F8E0
:1057F0000822184602F056F980BD000080B5D0F8A6
:10580000040402F089F980BD10B50446080601F0D1
:105810000F00C0EBC00104EB810205D402F5FE715C
:10582000002382F8FD3104E0012302F13C0182F8FB
:105830003D3094F8BC230870012A04BF022010BD3B
:105840002068012284F8BC2302F096FE002084F830
:10585000BC0310BDB0B54268044601F00F00904291
:1058600084BF0120B0BD090609D4C0EBC00104EB20
:10587000810202F5FE71002382F8FD3108E0C0EBE1
:10588000C00104EB8102012302F13C0182F83D30AA
:1058900094F8BC230025012A8D70087004BF0220F3
:1058A000B0BD2068012284F8BC2303F045F82846E7
:1058B00084F8BC53B0BD000001F00F01C1EBC10181
:1058C00000EB8100D0F8140270470000B0B5054627
:1058D000080601F00F00C0EBC00105EB810C05D4F8
:1058E0000CF5FE7100248CF8FD4104E001240CF15C
:1058F0003C018CF83D404C780870002C8A60CB70DD
:1059000018BFC880022B04BF0020087195F8BC03A3
:10591000012804BF0220B0BD2868012285F8BC23FD
:1059200002F078FD002085F8BC03B0BD10B501F091
:105930000F0CCCEBCC0100EB81044FF0000EC4F84F
:1059400014E284F8FDE1D0F810E0C4F80822C4F8AD
:105950001032BEF1010F84F8FCC108BFC4F80C225C
:10596000006804F5FE715FFA8EF2BCF1000F03D0FF
:1059700003F028F8002010BD02F032FF002010BD17
:10598000B0B50446406801F00F05854284BF012090
:10599000B0BD080609D4C1EBC10004EB800000F5DE
:1059A000FE71002280F8FD2108E0C5EBC50004EB84
:1059B0008000012200F13C0180F83D2094F8BC03F6
:1059C000012201288A700D7004BF0220B0BD20683A
:1059D00084F8BC2302F0D8FF2DB92068217C04F59F
:1059E000717202F07BFF002084F8BC03B0BD0000A0
:1059F000B0B501F00F0CCCEBCC0100EB81052946D2
:105A000001F83CCF0024D0F810E08C6101244C70E8
:105A1000CA60BEF1010F4B6108BFEA6400685FFA1B
:105A20008EF2BCF1000F03D002F0CCFF0020B0BD1D
:105A300002F0D6FE0020B0BD2DE9F04F89B0D0F8BD
:105A400000B00746584602F0D5FA10B109B0BDE8DB
:105A5000F08F386803F0F0F80028F7D0386803F0CA
:105A6000EBF8800704D53868416901F00201416113
:105A7000386803F0E1F8C00608973DD538688169B9
:105A800021F010018161DBF82050C5F34340062866
:105A900005F00F041AD0022829D147F6F07015EA54
:105AA000000624D00899C4EBC40001EB8007D7F8A6
:105AB0000812350958462A4603F0C2F8D7F80802FA
:105AC00000EB1610C7F80802089F07E007F5717190
:105AD0005846082203F0B4F8C5F30A15C4EBC40015
:105AE00007EB8000D0F814122944C0F8141238686B
:105AF000816941F010018161386803F09DF800036D
:105B0000CDF810B040F1DE80386803F073F800285B
:105B100000F0D880064607F571704FF43065002418
:105B20004FF0000807901EE05FEAC96042BF0BEB30
:105B30000500102181605FEA896042BF0BEB050020
:105B4000202181605FEA894042BF0BEB05004FF4E2
:105B50000051816008F10108760805F1200504F183
:105B60001C0400F0AF80F007F4D038685FFA88FAC0
:105B7000514603F059F88146C00769D00BEB050088
:105B800001218160386805EB000C036CDCF808200B
:105B90003F69012F2AD1170738D4970600F1868074
:105BA000089F12F0280F53D143F20B01C4F6547131
:105BB0008B4202D312F4004232D1DCF810203919A2
:105BC000D1E981376FF3DF429A1AC1F81422FA182B
:105BD000B8F1000FC1F8082206D1D1F8101219B996
:105BE000079A012102F07AFE089F2DE043F20B078D
:105BF000C4F65477FF37BB421BD1100458D4089F1A
:105C0000900644BF2020CCF808001DE043F20B00B2
:105C1000C4F65470089F83421AD312F4004017D080
:105C20004FF40040CCF808005FEA09707FF57CAFC4
:105C300012E0089FB8F1000F06D1D7F8101219B979
:105C4000079A002102F04AFE38465146FFF7C8FD88
:105C50005FEA09707FF568AF0BEB050008218160F2
:105C6000386843F20B02D0F840A02844C4F65472BE
:105C70008168A2F1010BDA4505D911F400411CBF7E
:105C80004FF400418160089F384600F0F5FADA458C
:105C9000DDF810B07FF648AF386901287FF444AFD3
:105CA0003868079A012102F019FE3DE7202001E043
:105CB0004FF40040CCF80800089F5FEA09707FF5B8
:105CC00033AFC9E7386802F0B7FF400340F1BE8048
:105CD000386802F087FF002800F0B88083460498F7
:105CE000002400F5106607F571700290039605E038
:105CF0005FEA5B0B04F1010400F0A8805FEACB705F
:105D0000F6D03868E1B2079102F07CFF0546C00783
:105D100026D0049A04F00F00D2F83418012303FAB5
:105D200000F021EA0000C2F8340806EB441083605A
:105D30003869012810D1C4EBC40007EB8000D0E91A
:105D40001112114481643CB9006D28B93868029A77
:105D5000012102F0C3FD00BF07993846FFF734FD6B
:105D6000280742BF06EB441008218160E80642BFC5
:105D700006EB441010218160680642BF06EB441018
:105D800040218160A80742BF06EB441002218160D8
:105D90002806ADD5C4EBC40007EB800AD14659F8FC
:105DA000500FC84658F8041F8842A1D33B685AF8E0
:105DB000442F411A914288BF1146069303EB4410C9
:105DC000D0F81829033192B2B2EB910F28D300F525
:105DD00010600AF104070590D8F80000D9F8001007
:105DE00081421DD9DAF800200D1A089895423968C9
:105DF000067C88BF1546DDE90602ABB2009602F0CC
:105E0000E9FF3868D8F80010284438604819C8F805
:105E100000000598E91C806980B2B0EB910FDBD2DD
:105E2000D9F80000D8F80010089F039E88423FF67A
:105E30005FAF069B04F00F00D3F83418012202FA7A
:105E400000F021EA0000C3F8340851E7386802F096
:105E5000F3FE049DB0F1FF3F19DCD5F8040820F0F3
:105E60000100C5F8040897F8F403012807D10020C1
:105E700087F8F40338460021FFF772FC02E0384649
:105E800000F0DAF93868416901F000414161386891
:105E900002F0D2FE00050BD5D5F80808C00702D0E5
:105EA000384600F013FA3868416901F40061416135
:105EB000386802F0C1FEC00456D5D5F80408102198
:105EC00020F00100C5F80408386805F5006402F008
:105ED00069FE7868F8B105F510614FF67F3200BFB2
:105EE0008A600B68013823F400130B600B6843F0E1
:105EF00000630B60C1F80822D1F8003223F40013CC
:105F0000C1F80032D1F8003243F00063C1F800322A
:105F100001F12001E4D1E06940F00110E061386B4B
:105F200040B1D4F8840040F00B00C4F8840004F1C0
:105F3000440006E0606942F22B010843606104F10D
:105F40001000016807F5717241F00B0101602068D3
:105F500020F4FE6020603868397C02F0BFFC3868AD
:105F6000416901F480514161386802F065FE8004A6
:105F700016D5386802F02EF8386802F025FE3D6824
:105F8000F86000F0DDF93A7B0146284602F096FE03
:105F9000384600F03FF93868416901F40051416129
:105FA000386802F049FE000707D5384600F04AF984
:105FB0003868416901F008014161386802F03CFE2F
:105FC000C00208D53846002100F034F8386841692D
:105FD00001F480114161386802F02EFE800208D57C
:105FE0003846002100F02CF83868416901F40011AE
:105FF0004161386802F020FE400007D53846FFF7BF
:10600000DDFB3868416901F080414161386802F088
:1060100013FE40077FF51AAD38684468600702D563
:106020003846FFF7EBFB386841682143416009B00F
:10603000BDE8F08F80B5D0F8040401F0C7FD80BD45
:1060400080B5D0F8040401F0C3FD80BD2DE9F04F08
:106050008BB098B30446056890F8BD0328B90020BA
:1060600084F8BC03204600F091F8032084F8BD03B7
:10607000E86BC0055CBF00202061206802F0A8FB2F
:10608000206804F11C0A0A90D4E90C5004F1040EB3
:106090009AE8C0079EE80E58CDE9085003A880E8AA
:1060A000C0030A988DE80058CDF81CA002F0F8F95A
:1060B00030B1022084F8BD03012562E0012560E0D3
:1060C00020680021002502F0CFFD616861B3012046
:1060D00000230022C3EBC30304EB830787F83C20B3
:1060E000D3B20132A7F84230D3B2994287F83D00CB
:1060F00087F83F50C7E911553D65EBD800200023D4
:10610000002200BFC3EBC30304EB830787F8FC2125
:106110000132D3B2994287F8FD0187F8FF01C7E940
:106120008100C7F81002EDD8A06822680A90D4E96F
:106130000C5004F1140E04F1240AD4E903379EE84C
:1061400040589AE80007CDE9085002A880E80058B6
:1061500010460A9ACDE90076CDE90589CDF81CA054
:1061600002F06CFA20B1022084F8BD03012508E09A
:106170000025012084F8385084F8BD03206802F01F
:106180004DFA28460BB0BDE8F08F0000B0B586B0E0
:1061900000680024B0F1A04F0594CDE903440294B7
:1061A000019401D006B0B0BD43F630050094C4F2AE
:1061B0000205286801A940F001002860286800F065
:1061C0000100009000984FF4C05001900220CDE9EA
:1061D0000204032004900A2005900020C4F202006B
:1061E000FFF70AF96868052140F0800068600094B4
:1061F0006869002240F480406861686900F480406A
:10620000009000984320FFF76FFA4320FFF75CFAF5
:1062100006B0B0BD10B50446C068022818BFFEF72E
:10622000B9FCD4F80404012101F03EFDD4F80404C3
:1062300001F0F6FC10BD000080B5D0F8040401F0B8
:106240001BFD80BD80B5D0F8040401F01FFD80BDAA
:1062500010B5044690F8BC03012804BF022010BD0D
:10626000012084F8BC0384F83810206802F014FD83
:10627000002084F8BC0310BD80B5D0F8042400F5DC
:106280007171104601F026FD80BD000010B5044676
:1062900090F8BC03012804BF022010BDA16A206849
:1062A0000122012984F8BC2306D1A169012903D068
:1062B000816B41F48031816302F06CFC206802F054
:1062C0009DF9002084F8BC0310BD000010B5044601
:1062D000D0F8040401F04EFD2068D0F8001E41F013
:1062E0000101C0F8001E206A002808BF10BD4EF64C
:1062F0001050CEF20000016841F00601016010BDAF
:106300000F22026043F60802C4F20202136803F08F
:1063100003034360136803F0F0038360136803F41E
:10632000E053C360D2F800C04FF4E05303EADC034B
:106330000361D2F8F80300F00F0008607047000016
:1063400040F23400C2F200000068704740F23400AE
:1063500043F60801C2F20000C4F2020100680968B5
:106360004DF64832C1F34231C0F60002515CC840DC
:10637000704700007047000070470000002804BF0D
:106380000120704710B5044690F83D0028B9002060
:1063900084F83C00204600F00DF8022084F83D000F
:1063A0002068211D00F096FF012084F83D000020A8
:1063B00010BD0000704700000068C16841F0010195
:1063C000C160816801F00701062903D0016841F02E
:1063D00001010160002070477047000010B50446BD
:1063E00000680169890744BFC1685FEA817138D4D8
:1063F00020680169490744BFC1685FEA41713CD424
:1064000020680169090744BFC1685FEA017141D48E
:1064100020680169C90644BFC1685FEAC16145D40B
:1064200020680169C9071CBFC1685FEAC1714AD110
:1064300020680169090644BFC1685FEA016149D467
:1064400020680169490644BFC1685FEA416148D4D8
:1064500020680169890644BFC1685FEA816147D449
:1064600010BD6FF002010161012121778069800771
:1064700045D02046FFF7B0FF47E06FF0040101610F
:1064800002212177806910F4407F41D02046FFF738
:10649000A3FF43E06FF00801016104212177C06987
:1064A00080073ED02046FFF797FF40E06FF01001D5
:1064B000016108212177C06910F4407F3AD020465D
:1064C000FFF78AFF3CE06FF001010161204600F018
:1064D0003FF8ADE76FF0800101612046FFF74AFF0A
:1064E000AEE76FF040010161204600F03BF8AFE7F6
:1064F0006FF0200101612046FFF73EFF10BD2046EE
:1065000000F022F8204600F021F8002020776FE705
:10651000204600F019F8204600F018F800202077F7
:106520006EE7204600F010F8204600F00FF800203B
:1065300020776DE7204600F007F8204600F006F8C7
:10654000002020776CE700007047000070470000D3
:1065500080B500680021C4F20101884208BFFFF73E
:106560001FF880BD70470000FEE700002DE9F047EE
:106570000C6894FAA4F2B2FA82F234FA02F35FD011
:106580004FF001084FF0030C4FF00F0E1BE0240AF0
:1065900094FAA4F4B4FA84F44B69466AA4000EFA9F
:1065A00004F7BE43A3403343436200BF4B68046813
:1065B0006FEA09063440AB40234303600C680132A4
:1065C00034FA02F33CD008FA02F31C40F6D0D1F8BA
:1065D00004A0AAF10103012B14D894FAA4F5B5FA8A
:1065E00085F583686D000CFA05F6B343D1E90269BD
:1065F00006FA05F52B438360436809FB04F5A343C2
:106600002B43436094FAA4F3B3FA83F30E69C7688B
:106610005D000CFA05F927EA0907AE403E43BAF1DE
:10662000020FC660C2D12606B1D04C69066A9B0033
:106630000EFA03F7BE4304FA03F333430362B5E7EC
:106640000020BDE8F087000080B543F6040EC4F2D8
:10665000020EDEF8042002F00C0342F20042082B86
:10666000C0F2F40206D0042B22D141F20022C0F283
:106670007A021DE0DEF80030DEF800C05B0241F275
:106680000023C0F27A0358BF13460CF03F0CDEF82B
:106690000020B3FBFCFCDEF80030C2F3881202FBE2
:1066A0000CFCC3F30143022202EB4302BCFBF2F2F7
:1066B0000260DEF804304DF63831C3F30313C0F640
:1066C0000001C95C4DF6483322FA01F14160DEF861
:1066D0000420C0F60003C2F382229A5C21FA02F27F
:1066E0008260DEF80420C2F342329A5CD140C1607D
:1066F00080BD000040F23401C2F200010860704722
:1067000070B584B00446C06880045ED4E0680D466D
:1067100049F20C618843D5E9011CD5E903320843ED
:10672000D5E905E6184310433043E060206920F4C2
:10673000405040EA0C002061606920F4407040EA5B
:106740000E0060616846FFF77FFF44F20040C4F22C
:10675000000084420ED041F20040C4F201008442A5
:1067600005D041F20000C4F20100844205D1039833
:1067700028B92AE0029810B927E0002028B32B6836
:106780001BB3A9691922B1F5004FA0FB02011FD16B
:106790005A00DB0FFDF71CFD48F21F51C5F2EB114B
:1067A000A0FB01235A096FF0630302FB03003223AD
:1067B00003EBC000A0FB01014FF4F87000EA1110D8
:1067C00000EB0210C1F342111DE0012004B070BDC6
:1067D0009A009B0FFDF7FCFC48F21F51C5F2EB112C
:1067E000A0FB01235A096FF0630302FB030032236D
:1067F00003EB0010A0FB0101F02000EA511000EBB8
:106800000210C1F343114FF6F07210400844A0602B
:10681000002004B070BD000082B0182543F6C826E1
:10682000C4F202054FF0020A4FF4004901AC4FF0E8
:1068300000084FF4003BC2F200064FF00047C5F8D5
:1068400000A0C5F8009804E0C5F80078012003F026
:106850001FFC002000212246002306F065FA0128D3
:1068600006D13220C5F800B003F012FCC5F800A034
:106870003168481C89087C293060E5D9B0F57A7FF9
:10688000E4D8C5F800983068B0F57A7F08BFC6F83C
:106890000080DBE7B0B58EB0002443F630000C94E6
:1068A000CDE90A44CDE90844CDE90644CDE90444E4
:1068B000CDE90244CDE90044C4F20200416941F24D
:1068C0000C0541F0100141614169C4F2010501F07C
:1068D00010010D910D99016841F0010101600068FE
:1068E000694600F001000D900D984FF4C0600090D3
:1068F000022001900320CDE902040120049007202A
:1069000005904EF6F4702844FFF730FE46F2404101
:10691000C4F202010A68042060F35B620A600A683C
:1069200022F0C0020A600A6822F440320A600A6853
:1069300042F4807222F020020A600A6822F4007297
:106940000A600A6842F480620A600A6822F4C0524F
:106950000A600A6822F4C0420A604A6922F004020E
:106960004A614EF60C51CEF200010968C1F30221D2
:1069700081F00702042A38BF10464FF0FF32033976
:1069800002FA00F04FF0050238BF214622EA00006B
:1069900088404EF225410001CEF2000108704EF20F
:1069A0000410CEF20000202101604FF4E130CDE967
:1069B00006040C20CDE90A04A5F10C0006A9CDE9D6
:1069C00008440C94FFF79CFE686820F490406860CF
:1069D000A86820F02A00A860286840F400502860C9
:1069E0000EB0B0BD80B544F2381040F21801C2F2CA
:1069F0000000C2F20001002200F0BEFF002818BF14
:106A0000FEF7C8F844F2381040F23801C2F2000034
:106A1000C2F2000101F0D6F9002818BFFEF7BAF85B
:106A200044F2381040F25C11C2F20000C2F20001E0
:106A300000F0C2FD002818BFFEF7ACF844F2381091
:106A4000C2F2000001F0DEF9002818BFFEF7A2F83C
:106A500080BD0000FEE70000FEE7000080B544F2C4
:106A60000840C2F20000FEF7E7FF80BD0000000012
:106A70002DE9F04381B000F0EFF800284AD0CC2097
:106A800000F0ACF9442000F0A9F9962003F000FBD7
:106A90000020ADF802000DF10200002100F0EEFA36
:106AA00001283ED140F2C030C2F2000090F80680CA
:106AB00090F80790BDF90200FDF7CDFD9FED200B8A
:106AC000064653EC102B0F46FDF7E4FC9FED1E0B22
:106AD00004460D4653EC102B30463946FDF7DAFCE0
:106AE0009FED1B0B53EC102BFDF72DFCB9F1000FA4
:106AF00004BF0D460446B8F1000F1CBF29462046CE
:106B0000FDF7BAFD44F65401C2F2000100EE100A8E
:106B100008600CE044F65400C2F2000090ED000A58
:106B200005E044F65400C2F2000090ED000A9FED2B
:106B30000A1A20EE010A01B0BDE8F08300BF00BFD1
:106B4000000000000000B03F000000000000703FA7
:106B5000000000000000444000007A44B0B588B056
:106B60000020CDE90500CDE90300CDE9010043F6A1
:106B70003000C4F20200016840F2004441F002011A
:106B800001600068032100F00200079007980120CF
:106B9000C4F2020420250290CDE90310059001A95A
:106BA00020460195FFF7E2FCA56108B0B0BD0000EA
:106BB0002DE9F04381B040F218450024C4F20205EB
:106BC0004FF400184FF02009002600BF0220C5F83E
:106BD000008003F0F5FE0A20C5F8009003F0F0FEF7
:106BE00055F8087C3A2003F0EBFEC7F34010A040B4
:106BF0000134022C46EA0006E8D1F0B201B0BDE84B
:106C0000F08300002DE9F04740F218440020C4F260
:106C100002044FF400184FF020096FF07C0A0025A1
:106C2000C6B20220C4F8008003F0CAFE0A20C4F8ED
:106C3000009003F0C5FE54F8087C3A2003F0C0FE33
:106C40000AEA870040EA5600072D05F10105E7D35F
:106C5000C0B2BDE8F087000010B540F21844C4F29D
:106C600002044FF4001020604FF4F07003F0A8FE0F
:106C700020202060462003F0A3FE54F8084C4FF477
:106C8000CD7003F09DFE012020EA541010BD0000DD
:106C90002DE9F04F95B0009000208DF85000139032
:106CA0000DF10C080DF14C09002000260190FFF7B2
:106CB000D3FF002876D0F02000F090F800240020C8
:106CC0000EE000BFDDE9000108F1080800EBC1009B
:106CD0000299083400F801B00846481C08284CD036
:106CE0004FF0000A4FF0000B02900CE001206BF017
:106CF0007F0B00F059F8012008F80A000AF1010A98
:106D0000BAF1080FDED0FFF753FF5FFA8BF110F0F6
:106D100003004FEA510B09D00128E7D002283CD1EB
:106D2000002000F041F80020E6E700BF04EB0A0075
:106D3000471CF0B219F80000F9B281420BD90020CB
:106D40004D4600F031F80020013608F80A00F0B294
:106D500009F80070D2E706D218F80A004BEAC01B07
:106D600000F022F8CAE78142C8D101206BF07F0B06
:106D700000F01AF80120013EBEE7F0B219F8000059
:106D80000DF10C080028019800F1010006D00199CE
:106D900001900429FFF48BAF00E00198C0B215B058
:106DA000BDE8F08F0020F9E7B0B540F21845C4F215
:106DB00002054FF4001129600221002808BF3C2180
:106DC0004FF04404084608BF0A2403F0F9FD2020D0
:106DD0002860204603F0F4FDB0BD00002DE9F0432B
:106DE00081B040F2184704460826C4F202074FF467
:106DF00000184FF0200900BF14F001004FF002000E
:106E00004FF04405C7F8008008BF3C2008BF0A25A2
:106E100003F0D6FD2846C7F8009003F0D1FD013EEF
:106E20004FEA5404E8D101B0BDE8F083C2B002F0EB
:106E300003FE41F2F05943F6C42643F6CC2BC2F2CE
:106E4000000901ACC2F20006C2F2000B4FF4987ABE
:106E500009F5BE580FE058462146FF22FDF7E9F933
:106E60008BF82571404659464FF49872FDF7E1F9C9
:106E7000012003F00DF92046FF21FDF7F3F93068FA
:106E80002146002205F086FA0128F1D19DF8030180
:106E900018B1204602F044FC07469DF804012B2F50
:106EA00008BF012808D0022814D19DF8062001202F
:106EB000214602F0B9F80FE09BF8FF501F2DD7D8FC
:106EC00058462146FF22FDF7B4F915FB0A90A0F5BC
:106ED0009870C8E72A2FBED92046FF21FDF7C2F9D6
:106EE000C6E70000000000000000000000000000F5
:106EF000EFF30980BFF36F8F154B1A681EF0100F68
:106F000008BF20ED108A20E9F04F10602DE909003C
:106F10004FF0500080F31188BFF34F8FBFF36F8F96
:106F200004F016FF4FF0000080F31188BDE809005F
:106F300019680868B0E8F04F1EF0100F08BFB0ECF9
:106F4000108A80F30988BFF36F8F704700BF00BFBE
:106F50004C4E002005F022FE41F2F05544F6580850
:106F6000C2F2000543F60844C2F2000841F6BF0A27
:106F70004FF4C75BC2F2000405F5BE59C8F8000023
:106F80001EE000BF204649464FF49872FDF751F9C4
:106F9000204603F035FD55F80B000021013005F8BF
:106FA0000A1045F80B0041F6E5002B21295448460C
:106FB000FF21FDF757F90120C8F8006003F068F8D9
:106FC00005F0ECFD15F80A10064639B141F6DC0073
:106FD000285818B155F80B108842D3D143F6C02079
:106FE000C2F200004078C8B140F2E830C2F20000BE
:106FF00000684FF0FF3105F0A1FA94F8010194F810
:10700000021194F8032194F8043102F049FD50B3C1
:1070100094F81801013084F8180124E0D8F8000031
:10702000301A03F001FC1F28C5D0074640F2E830B3
:10703000C2F2000000684FF0FF3105F07FFA4FF414
:10704000987017FB0050A0F59877204639464FF40A
:107050009872FDF7EEF802F087FC384621464FF4AF
:107060009872FDF7E6F840F2E830C2F200000068DE
:1070700000210022002304F0DDFF9CE72DE9F04110
:1070800084B00E468046FFF7E7FD002846D005464F
:107090005520FFF7A3FE40F2C030C2F2000000EB23
:1070A000C600441E082600BF14F8010FFFF796FE25
:1070B000013EF9D1BE20FFF791FE0DF10700441EFD
:1070C000092600BFFFF79EFD013E04F8010FF9D12C
:1070D00025B39DF80FC00DF10700002308228C2670
:1070E0000578002483EA05011F4686EA5303C90791
:1070F00008BF7B086D08072C04F10104F2D3013AA4
:10710000150600F10100EBD19C4507D1BDF8070041
:10711000A8F80000012004B0BDE8F081002004B010
:10712000BDE8F08100000000000000000000000049
:10713000074B19680868B0E8F04F80F30988BFF37F
:107140006F8F4FF0000080F31188704700BF00BFC1
:107150004C4E002080B540F2C030C2F20000002149
:10716000FFF796FD40F2EC31C2F20001087080BDDD
:1071700080B54FF0500080F31188BFF36F8FBFF3DD
:107180004F8F05F011FD30B14EF60450CEF20000E5
:107190004FF080510160002080F3118880BD000015
:1071A00010B543F60804C4F20204D4F8F80302212F
:1071B00061F30300C4F8F803D4F8F80300F00F00FB
:1071C0000228F9D147F20000C4F20000016841F43E
:1071D0004041016054F8080C40F4803044F8080C39
:1071E00054F8080C8003FBD548F2000154F8040C55
:1071F000CFF2BF0101F17062104042F20842C0F2CA
:107200004002104344F8040C54F8040C20F44030BD
:1072100044F8040C54F8040C0840104300F140708A
:1072200044F8040C54F8080C40F0807044F8080C42
:1072300054F8080C8001FBD52068042120F0F000F0
:107240002060206861F38C2020602068022120F4F7
:1072500060402060206861F301002060206800F039
:107260000C000828FAD14AF20020C0F24A40FFF789
:1072700041FA0020FEF7BEF918B1EFF3108072B6A4
:10728000FEE7D4F8840020F08070C4F8840010BDBC
:107290004EF21000CEF20000016821F00101016001
:1072A0004EF68850CEF20000016841F47001016092
:1072B00044F20001C0F6000140F8801C002080F379
:1072C0001088704780B544F61000C2F20000FFF746
:1072D00085F880BD10B540F2FF7E0368C4F2000E51
:1072E00040F2000C7045C4F2010C0ADD40F60002C9
:1072F000C4F2000290420DD060450BD040F600422F
:1073000004E0B0F1804F05D040F20042C4F2000228
:10731000904203D14A6823F0700313434FF6FF7283
:10732000C4F20002904209DC704512DCB0F1804FDB
:1073300026D040F20042C4F200021FE044F2FF32C5
:10734000C4F2010290420FDC604519D044F2000201
:1073500012E040F60002C4F20002904210D040F663
:107360000042C4F2000209E044F60002C4F2010245
:10737000904205D044F20042C4F20102904203D18F
:10738000CA6823F44073134323F080024B69D1F899
:1073900000E08C681A4360450260C462C0F828E0CF
:1073A00002D10969CCF830100121416110BD000003
:1073B0007047000010B5D0F8BC321BB38E4601EB0D
:1073C000810100EB810151F8184F64B1D0F8C4C2BB
:1073D000CEEBCE020CEB8202D2F844C0B4FBFCF23E
:1073E00002FB1C4282B10024C3F81442D0F8C00250
:1073F00003F50471D0F810C0D3F808027246E047D4
:10740000204610BD032010BD00240C6071460022F0
:10741000002300F0B9FC204610BD0000B0B5D0F844
:10742000BC527DB1044600F083FBD4F8C02205F5C0
:107430000371D368D5F80422C5F80C0210469847AA
:107440000020B0BD0320B0BDB0B58121044600F0DE
:10745000C3FA002520460121258700F0BDFA204609
:107460008221A4F8785100F0B7FAD4F8BC02E564A0
:1074700048B1D4F8C00240688047D4F8BC0206F096
:10748000B9FAC4F8BC520020B0BD000010B5D0F865
:10749000C01269B1D0F8BC4294F80002FF2807D0AE
:1074A0008B6894F8012221469847FF2084F8000257
:1074B000002010BD014640F2F8000A22C2F200008E
:1074C0000A807047014640F270004322C2F2000079
:1074D0000A807047014640F2B4004322C2F2000025
:1074E0000A807047014640F204104322C2F20000B5
:1074F0000A807047F0B581B004464FF4077006F07B
:10750000A1FAE0B30546C4F8BC02207C402600285E
:1075100008BF4FF40076204681210222334600F056
:1075200059FB01272046012102223346278700F01C
:1075300051FB1020A4F84E0020468221032208238C
:10754000A4F8787100F046FBD4F8C002A4F84C709F
:10755000006880470020C5F81402C5F81802207C96
:10756000D5F80422002820464FF001010CBF4FF44B
:107570000073402300F042FB002001B0F0BD00206A
:10758000C4F8BC02022001B0F0BD000080B5D0F804
:10759000BC1271B190F810C0D1F80422402301212F
:1075A000BCF1000F08BF4FF4007300F027FB002070
:1075B00080BD032080BD000000290EBF0320C0F85D
:1075C000C012002070470000D0F8BC220020C2F892
:1075D00004127047D0F8BC320020C3F80812C3F878
:1075E0001022704770B582B00446D0F8BC620878AB
:1075F0000D46002210F060018DF80720ADF8042040
:1076000011D0202926D1EA88002A29D0000630D4BA
:107610006878314686F80002204686F8012200F09C
:107620009FF800265BE068780B283BD80026DFE84F
:1076300000F0065639393939393939392D3F94F83E
:107640009C0203283AD101A92046022200F0A2F8A8
:10765000002644E02046294600F078F803263EE064
:10766000D4F8C0022946836868780022002698472B
:1076700035E0D4F8C0023146836868789847EA88D4
:107680002046314600F086F8002628E094F89C0257
:10769000032819D10DF107012046012200F07AF8E4
:1076A00000261CE02046294600F050F8032616E08C
:1076B00094F89C0203280DD1002610E020462946AC
:1076C00000F044F803260AE02046294600F03EF880
:1076D000032604E02046294600F038F80326304609
:1076E00002B070BD80B5D0F8BC223AB1D2F8141205
:1076F00000294FF0010103D0084680BD032080BD62
:10770000C2F81412D2F81032D2F808228121C362D2
:1077100000F03AFB0021084680BD000080B5D0F89B
:10772000B8220AB152689047002080BD80B5134648
:107730000A46002100F062FA002080BD80B51346A1
:107740000A46002100F020FB002080BD10B58021FA
:10775000044600F0EBFA2046002100F0E7FA10BDE5
:1077600080B513460A460321C0F894120021C0E9EF
:10777000563300F043FA002080BD000080B505219B
:10778000C0F8941200210022002300F037FA0020F4
:1077900080BD000080B513460A460221C0F894124D
:1077A0000021C0E9063300F0EFFA002080BD0000A0
:1077B00080B50421C0F8941200210022002300F0BB
:1077C000E3FA002080BD000010B540F2F034C2F2B0
:1077D00000040A4602A0214600F096F8204610BD9B
:1077E00043444320436F6E666967000040F24810CF
:1077F0001222C2F200000A807047000010B540F269
:10780000F034C2F200040A4602A0214600F07CF8DF
:10781000204610BD43444320496E7465726661631F
:107820006500000040F270100422C2F200000A80DD
:107830007047000010B540F2F034C2F200040A466E
:1078400002A0214600F060F8204610BD4361726539
:10785000204C69746500000010B540F2F034C2F2AB
:1078600000040A4602A0214600F04EF8204610BD52
:1078700043617265204C69746520436F6D506F726F
:1078800074000000B0B547F61020C1F6FF70026822
:1078900083684FF01A0CD218A1F800C02FD04068AE
:1078A00040F2741E6FF001014FF0370CC2F2000E6F
:1078B000002300BF140F0CEB1275B2F1204F38BF3C
:1078C00004F130050EEB0104023112010E2925717D
:1078D0006371EFD10EF1100104224FF0370C002339
:1078E0000CEB1074B0F1204F4FEA107538BF05F162
:1078F000300401F8024F0001013A4B70F0D140F220
:107900007410C2F20000B0BD80B5A0B303786BB1B3
:10791000431E4FF0000C00BF93F802E00CF1010C85
:10792000BEF1000F03F10103F6D101E04FF0000CAE
:107930005FFA8CFC022303EB4C03138003220B70D1
:107940004A7090F800E0BEF1000F08BF80BD01381A
:1079500002234FF0000C00BFDAB201F802E042F05F
:10796000010201F802C090F802E00233BEF1000FFC
:1079700000F10100F0D180BD002804BF0320704752
:1079800080B5D0F8B832002B1CBF0023C0F8B83245
:10799000D0F8CC32002B1CBF0023C0F8CC32002919
:1079A00018BFC0F8B412012180F89C12027000F0D8
:1079B000C5F880BD80B5D0F8C402FDF74BFF40F29A
:1079C0000032C100C0F2013222FA01F1032888BF5F
:1079D0000321C8B280BD000080B5D0F8C402FDF715
:1079E00013FF40F20032C100C0F2013222FA01F16D
:1079F000032888BF0321C8B280BD0000B0B504468B
:107A000079B1D4F8B80242694AB194F89C020328CB
:107A100005D120469047002808BF0020B0BD0320B4
:107A2000B0BDD4F89402022833D1D4E907108142C2
:107A30000DD90B1A204611461A46E361FFF77EFE68
:107A4000204600210022002300F0D8F821E00FD1C9
:107A5000A16981420CD3D4F89802814208D2204611
:107A6000002100220025FFF769FEC4F89852E7E7DD
:107A7000D4F8B802C16829B194F89C02032801D156
:107A8000204688472046802100F050F92046FFF725
:107A900075FE94F8A002012804BF002084F8A0021B
:107AA0000020B0BD10B5044679B1D4F8B80282699F
:107AB0004AB194F89C02032805D12046904700283B
:107AC00008BF002010BD032010BDD4F89402032885
:107AD0000ED1D4E9570398420CD9C01AC4F85C01FE
:107AE000984238BF0346204611461A46FFF71EFE4D
:107AF000002010BDD4F8B802016929B194F89C02A5
:107B0000032801D1204688472046FFF751FE002078
:107B100010BD00000020704780B5D0F8B8120122D7
:107B200080F89C2211B14A6801799047002080BDFD
:107B300080B5D0F8C402FDF7BFFE80BD10B5017856
:107B400009B1002010BD44F20841C2F20001C1F8A1
:107B50000404C0F8C4124FF0A0400422C1E900029E
:107B600002200022C1E90302C1E906020846C1E978
:107B70000822C1E90B22FEF769FA002818BFFDF7B9
:107B800009F844F20844C2F2000420468021FDF7BF
:107B9000E9FD204600214022FDF7E8FD20460121B5
:107BA0008022FDF7E3FD002010BD0000D0F8C402E4
:107BB00001F07F02C2EBC20200EB820000F13E0244
:107BC000090658BF00F5FF72107870470020704713
:107BD0000020704780B59446D0F8C4021A46634628
:107BE000FDF774FE40F20032C100C0F2013222FA09
:107BF00001F1032888BF0321C8B280BD80B5D0F849
:107C0000C402FDF793FE40F20032C100C0F201321F
:107C100022FA01F1032888BF0321C8B280BD000009
:107C200070B50446D0F8BC02012500284FF00000D2
:107C300084F89C52C4F894026060C4F8A40205D091
:107C4000D4F8B8020021426820469047204600211F
:107C5000002240234026FFF7BDFF2046802100225E
:107C60004023A4F86451C4F86061FFF7B3FF00201B
:107C7000A584266270BD000090F89C12042904BF00
:107C800090F89D1280F89C120020704780B590F803
:107C90009C12032905D1D0F8B812C969002918BF70
:107CA0008847002080BD0000024600201174704704
:107CB00080B5D0F8C402FEF7CBFA40F20032C10022
:107CC000C0F2013222FA01F1032888BF0321C8B2B1
:107CD00080BD0000B0B500F2AA250446284600F099
:107CE00065F894F8AA020121B4F8B022C4F89412FD
:107CF00000F01F010229C4F8982207D001290AD0F8
:107D000071B92046294600F08BF9B0BD20462946BE
:107D100000F07CF8B0BD2046294600F01FF9B0BD48
:107D200000F08001204600F001F8B0BD80B5D0F829
:107D3000C402FDF725FE40F20032C100C0F201325C
:107D400022FA01F1032888BF0321C8B280BD0000D8
:107D500080B5D0F8C402FEF799FA40F20032C100B3
:107D6000C0F2013222FA01F1032888BF0321C8B210
:107D700080BD0000014690F89C02042281F89D021B
:107D8000002081F89C22704780B5D0F8C402FDF72E
:107D90002FFE40F20032C100C0F2013222FA01F19E
:107DA000032888BF0321C8B280BD00000A78027092
:107DB0004A7842704A8842808A888280C988C18015
:107DC0007047000010B582B004460020ADF80600F0
:107DD00051B18A6A0DF10600C4F8B8129047C4F890
:107DE000CC02002002B010BD032002B010BD000084
:107DF00080B5D0F8B82212B11268904780BD032038
:107E000080BD000080B5FFF7A3FF80BDB0B50D4673
:107E10000978044611F060010AD0402901D02029D8
:107E200075D1D4F8B8022946826820469047B0BD83
:107E30006878297960B1012828D0032867D194F89F
:107E40009C02032833D0022861D1480626D15EE087
:107E500094F89C02032839D0022808BF5FEA4160E9
:107E600055D101F07F0000EB800004EB800000F1B1
:107E70001402090658BF00F5AA72002515602046B5
:107E800011460222FFF786FC2846B0BD94F89C02FA
:107E9000032847D002283AD1480638D02046FFF7B9
:107EA00045FF20468021FFF741FF0020B0BD6888D4
:107EB00038B911F07F0004D0E88810B92046FFF7E8
:107EC00035FF2046FFF774FC0020B0BD01F00F0223
:107ED00002EB820211F0800004EB82020CBFB2F8C8
:107EE0006421928C9AB101F07F0202EB820204EBD2
:107EF000820202F11405002808BF02F5AA7548069F
:107F000022D02046FFF752FEF0B101201DE02046AE
:107F10008021FFF70BFF204600210025FFF706FF19
:107F20002846B0BD6888B0B9480602D02046FFF7A1
:107F300041FD2046FFF73CFCD4F8B8022946826890
:107F4000204690470020B0BD0020286020462946EA
:107F50000222FFF71FFC0020B0BD0000B0B50D46A7
:107F60000978044611F0600118BF402913D194F834
:107F70009C020138022803D8A88810F0FE0F16D002
:107F800020468021FFF7D2FE204600210025FFF782
:107F9000CDFE2846B0BD2029E9D020468021FFF73C
:107FA000C5FE204600210025FFF7C0FE0BE0D4F8F7
:107FB000B8022946826820469047E988054600298C
:107FC00008BF002D01D02846B0BD2046FFF7F0FBCA
:107FD0002846B0BD0146D0F8000940F2FF72904338
:107FE000C1F80009D1F8040840F480720020C1F8FB
:107FF00004287047406900F001007047FEE77047B1
:10800000A5A5A5A55A5A5A5A000000000000000074
:10801000A5A5A5A500000000000000005A5A5A5A64
:1080200070B582B00D460978044611F060010BD09E
:10803000402901D020292AD1D4F8B80229468268E3
:108040002046904705462BE0687809283BD8DFE8B2
:1080500000F0052A3A443A50683A809194F89C021C
:108060000138022800F2A380E888022840F0DA8074
:10807000D4F8A4020322002808BF0122214641F8B7
:108080000C2F20460222FFF785FB002508E0204642
:108090008021FFF74BFE204600210025FFF746FE1A
:1080A000284602B070BD94F89C020138022800F204
:1080B0008880688800250128F2D12046C4F8A4529F
:1080C000FFF776FBECE720468021FFF72FFE2046E6
:1080D00000210025FFF72AFEE2E76888012840F02A
:1080E0007A800120C4F8A4022046FFF761FB002536
:1080F000D6E7A888002850D1E88800284DD16888A4
:108100007F284AD894F89C12032940F02781204602
:108110008021FFF70BFE204600210025FFF706FE19
:10812000BEE768884FF0FF3101EB102100220629DD
:10813000ADF8062000F24081DFE811F0070087006B
:1081400094003E013E01A100AC00D4F8B4020268E4
:108150002BE1E888012840D194F89C02411E0229B5
:108160006AD20025214641F8085F20460122FFF728
:1081700011FB95E7688840F2EE35C1B2C2F2000506
:108180000229287033D320468021FFF7CFFD2046F7
:108190000021FFF7CBFD032582E720468021FFF772
:1081A000C5FD204600210025FFF7C0FD78E72046E9
:1081B0008021FFF7BBFD204600210025FFF7B6FD1B
:1081C0006EE720468021FFF7B1FD20460021002503
:1081D000FFF7ACFD64E7002562E720468021FFF74A
:1081E000A5FD204600210025FFF7A0FD58E794F8E3
:1081F0009C0203285DD0022864D1002900F07A8017
:10820000012060602046FFF7F3FD0546002800F0DE
:108210009E8020468021FFF789FD20460021FFF740
:1082200085FD3DE720468021FFF780FD20460021A7
:108230000025FFF77BFD33E7032851D1211D2046A0
:108240000122FFF7A7FA00252AE7217CD4F8B8021B
:1082500000290CBF816AC16A0DF1060088470646F5
:10826000022023E0C0B2052800F2A680DFE800F07B
:1082700003898D919599D4F8B402426894E0207CEA
:10828000002840F09980D4F8B802416B0DF1060047
:1082900088478EE0207C002840F08E80D4F8B80219
:1082A000016B0DF10600884706460720707001201B
:1082B0008CE021B3606801282DD12046FFF778FAC1
:1082C0000025EDE620468021FFF730FD2046002105
:1082D000FFF72CFD29782046FFF720FA0325DFE67B
:1082E00020468021FFF722FD204600210025FFF7D0
:1082F0001DFDD5E62046FFF75BFA0025D0E60220FB
:1083000084F89C0220466160FFF708FA2046FFF7D8
:108310004FFA0025C4E6C1B22046FFF7FFF92978DD
:1083200020466160FFF764FD054600286ED02046B8
:108330008021FFF7FBFC20460021FFF7F7FC2179A5
:108340002046FFF7EBF9022084F89C02A8E62046BD
:10835000FFF72EFA032084F89C02A1E600F07F05C7
:108360002046294684F89E52FFF7A2FC2046FFF7DC
:108370001FFA002D0CBF0120022084F89C0200256A
:108380008EE6D4F8B40282680EE0D4F8B402C26873
:108390000AE0D4F8B402026906E0D4F8B4024269F3
:1083A00002E0D4F8B402826932B1207C0DF10601FA
:1083B00090470646012009E020468021FFF7B6FCE1
:1083C000204600210026FFF7B1FC002090B1EA888A
:1083D0006AB1BDF8060078B1904238BF0246204627
:1083E0003146ADF80620FFF7D5F9002558E62046BE
:1083F000FFF7DEF9002553E620468021FFF796FCC3
:1084000020460021FFF792FC002549E62046FFF7B1
:10841000CFF945E680B54B780A78012B02F00F03BF
:108420001CD14FF0010CD0F81CE80CFA03F343EA1E
:108430000E03C0F81C3800EB4210D0F800391B04C2
:108440002BD48B6800F5106091F803C001686FF3BE
:10845000DF2343EA8C4341EA825118E04FF4803C29
:10846000D0F81CE80CFA03F343EA0E03C0F81C38FA
:1084700000EB4210D0F8002B12040ED48A6800F5ED
:108480003060C9786FF3DF22036842EA8141194303
:1084900041F0805141F400410160002080BD0000A6
:1084A00080B50499DDF808C040F641520129C0F2B8
:1084B00003022BD1816B4FF6BF7321F480318163AE
:1084C000C168CFF6BD731940C160C1680B9B21F430
:1084D0004011012BC16003D1C16841F48011C1601A
:1084E000134600BF013B2AD00169B1F1FF3FF9DC1F
:1084F000016941F001010161013A20D00169C90718
:10850000FAD10021BCF1010F33D12AE0C168DDF8B6
:1085100020E041F04001C160114600BF013913D095
:108520000369B3F1FF3FF9DC016941F00101016129
:10853000013A09D00169C907FAD1002105E00321F8
:10854000BCF1010F15D10CE00321826BBEF1000FCD
:1085500022F4803208BF02F580328263BCF1010F41
:1085600007D1826842F006028260826842F02002EF
:108570008260084680BD000080B54B780A78012BE8
:108580002AD100EB4211D1F8003947F6000CCEF6A3
:10859000334C01F51061002B4FF0010E07D50B682D
:1085A00043F000630B600B6843F080430B6002F004
:1085B0000F02D0F83C380EFA02F29343C0F83C3870
:1085C000D0F81C3823EA0202C0F81C28086800EA28
:1085D0000C0200200A6080BD00EB421303F53061FD
:1085E000D3F800EB47F60003CEF6334303F1707C7B
:1085F000BEF1FF3F4FF4803ED9DCD0E70146D0F812
:10860000000E20F00300C1F8000ED1F8040820F09D
:1086100002020020C1F80428704700000146D0F88B
:10862000000E20F00300C1F8000ED1F8040840F05D
:1086300002020020C1F80428704700002DE9F0472D
:10864000DDF83C80DDE90A4CDDF820E000F58072C1
:108650000F250026013D42F8046FFBD1B8F1000F51
:1086600007D0826B22F400128263826B42F40022F4
:1086700010E0D0F8042842F00202C0F80428826B0F
:1086800042F400128263826B22F400228263826BC6
:1086900022F4802282630022C0F8002ED0F8002845
:1086A000012CC0F8002806D1D0F80028002B18BFF4
:1086B00042F0010203E0D0F8002842F0030240F645
:1086C0004153C0F20303C0F800284FF484621C46F3
:1086D000026100BF013C02D002699206FAD4102266
:1086E000026100BF013B02D00269D206FAD44FF00A
:1086F0000009C0F81098C0F81498C0F81C98C1B1CF
:1087000000F510664FF67F3A002200BF35684FF043
:108710009047002A08BF4FF0006707EAE57501326D
:108720003560C6F81090C6F808A0914206F1200600
:10873000ECD1D1B100F530654FF000094FF67F3A2A
:10874000002200BF2E684FF09047002A08BF4FF06C
:10875000006707EAE67601322E60C5F81090C5F88A
:1087600008A0914205F12005ECD1D0F81018BEF117
:10877000000F21F48071C0F810184FF000018161E2
:108780006FF08041416103D1816941F01001816145
:10879000816943F60002C8F23C021143BCF1000FAC
:1087A000816103D0816941F008018161B8F1010F55
:1087B00005D1816941F0804141F004018161B3FA42
:1087C00083F0B4FA84F1400949090843BDE8F08711
:1087D0000146806820F0010200208A607047000096
:1087E000F0B54B7891F800C0012B23D14E6900EB16
:1087F0004C1E00254FF6FF74DEF81079CFF6F875A1
:10880000CEF20704002E0EF510633ED03D401D61F0
:108810001D6925401D618D6804F10054AE4288BF7A
:108820004D611D6945F400251D614D691E692C408F
:10883000344332E000EB4C13D3F8100B6FF312000B
:10884000C3F8100BD3F8100B6FF3DC40C3F8100B18
:108850004F6903F53063002F1CBF8F684F611F699C
:108860004FF6FF7047F400271F61CEF207008F68B4
:1088700000F100501E6938403043012A186114D1BC
:10888000C868002818BF58610FE03C401C611C6993
:1088900044F400241C611C692C40012A1C610BD18A
:1088A0000869002818BFCEF814094FF00441186871
:1088B000084318600020F0BDDEF8002942F00442B1
:1088C000CEF8002949690029F4D00CF00F010122EB
:1088D00002FA01F100F63403E9E70000D0F840C0E5
:1088E00043F20B03C4F654739C4503D3D0F8003B0A
:1088F000002B1ED40023C0F8103BD0F8103B0129F8
:1089000043F40023C0F8103BD0F8103B43F01803A9
:10891000C0F8103BD0F8103B43F0C043C0F8103B08
:1089200007D1C0F8142BD0F8001B41F08021C0F80B
:10893000001B0020704700004B780A78012B00EBE9
:1089400042100DD1D0F8002922F40012C0F80029FD
:10895000C97801F0FE01022913D100F510600CE086
:10896000D0F8002B22F40012C0F8002BC97801F0D7
:10897000FE01022905D100F53060016841F0805107
:1089800001600020704700004B780A78012B00EB53
:10899000421006D1D0F80019002900F5106106D563
:1089A0000AE0D0F8001B002900F5306104D41AB1A8
:1089B000086820F080400860086840F40012002039
:1089C0000A607047F0B54B7891F800C0012B35D1A3
:1089D000D1F814E000EB4C1400254FF6FF76D4F8E4
:1089E0001079CFF6F875CEF20706BEF1000F04F548
:1089F00010634CD03D401D611D6935401D618D687F
:108A00001F690EEB0506013EB6FBF5F50026C1F623
:108A1000F87606EAC5453D431D6175461E696FF34C
:108A2000DF4535431D61CD78012D39D11D6925F014
:108A3000C0451D611D6945F0005530E000EB4C1349
:108A4000D3F8107B4FF6FF7C6FF31207C3F8107B4F
:108A5000D3F8107BC0F2070C6FF3DC47C3F8107B30
:108A60004F698D68002F03F530634AD02F44013FD2
:108A7000B7FBF5F70026C1F6F8761C6906EAC7468B
:108A8000BFB226436F431E6107EA0C0640E03E403A
:108A90001E611E6946F400261E611E6935401D6177
:108AA000012A15D10A69002A18BFC4F81429C97807
:108AB000012945D1D0F80808D4F80019C0054FF0B5
:108AC000805058BF4FF000500843C4F8000937E009
:108AD00000F510634FEA4C141D5945F004451D5133
:108AE000CD78012D33D1D0F80858E658ED054FF078
:108AF000805558BF4FF000553543E55092B30020E4
:108B0000F0BD1F6905EA0C0637431F614FF40026CC
:108B10001F69012A47EA06071F6103D1CA68002AB4
:108B200018BF5A61C97801290AD1D0F80808196814
:108B3000C0054FF0805058BF4FF0005008431860F8
:108B40004FF004411868084318600020F0BDBEF1E2
:108B5000000FD4D00CF00F01012202FA01F100F64F
:108B60003403EFE75FEA0E42C9D0CB68032212FA62
:108B70008EF700F580504FEA0C31BE080122043B0D
:108B8000012E88BFBA0800BF53F8047F013A0F5086
:108B9000FAD1B4E70146806840F0010200208A6003
:108BA0007047000089012031016140F64151C0F257
:108BB000030100BF013904BF032070470269920618
:108BC0005CBF00207047F5E7D0F8080800F0060108
:108BD00080074FF0020058BF0F20002908BF084649
:108BE00070470000D0F81818D0F81C08084080B270
:108BF00070470000D0F81818D0F81C080840000C86
:108C000070470000D0F810C8D0F8343801F00F02D7
:108C100023FA02F2D20100EB4110D2B2D0F80809D7
:108C200042EA0C010840704700EB4111D1F8081BE3
:108C3000D0F81408084070474169806908407047BF
:108C400082B1D31C4FEA930C0122BCF1010F4FF407
:108C5000805C88BF9A0800BF50F80C30013A41F898
:108C6000043BF9D10846704780B5C268012922F05B
:108C7000C042C26003D061B94FF0804101E04FF0C3
:108C80000051C2681143C1603220FCF745FA002050
:108C900080BD012080BD00000246D0F8000801F030
:108CA0007F0120F4FE60C2F80008D2F8000840EA14
:108CB00001110020C2F8001870470000022A024685
:108CC0000DD145F24030CFF6277043F200530844EF
:108CD000C0F20C0398420DD24FF4705001E04FF4F3
:108CE0001050D16821F47051D160D1680143002047
:108CF000D160704741F64060CFF61B7044F24023CC
:108D00000844C0F20F03984202D24FF46050E8E7E3
:108D1000A1F5740044F68073A0F51050C0F2120360
:108D2000984202D24FF45050DBE7A1F183704DF22C
:108D30002063A0F5E740C0F21303984202D24FF43B
:108D40004050CEE74BF26060CFF6E5604EF2603304
:108D50000844C0F21603984202D24FF43050C0E7E4
:108D60004DF20030CFF6CE6047F240730844C0F2B7
:108D70001B03984202D24FF42050B2E745F6C030B0
:108D8000CFF6B36049F2C0130844C0F22103984201
:108D900002D24FF41050A4E7A1F1B77047F220536C
:108DA000A0F55850C0F23803984202D24FF4005058
:108DB00097E745F2E040CFF6596049F6E0430144B9
:108DC000C0F241034FF4C050994238BF4FF4E05015
:108DD00087E7000010B5DDF808C0BCF1000F14D122
:108DE0009BB103F1030C00F5805412034FEA9C0E73
:108DF00001230439BEF1010F88BF4FEA9C0300BF75
:108E000051F8040F013B1051FAD1002010BD0000B1
:108E10004EF60C50BFF34F8FCEF2000001680422D3
:108E200001F4E061C0F2FA5211430160BFF34F8FC9
:108E300000BFFDE770470000B0B50D460446FBF7E4
:108E40003AFA022D08D0012D09D08DB9C1B240F6F1
:108E50000D226252022106E0C1B20A2201E0C1B233
:108E60000D226254012151FA80F000212154B0BD3D
:108E7000C0B20A212154B0BD70B582B03F218DF837
:108E8000041040F0200043F6C021C2F200018DF82A
:108E9000050044F650000978C2F20000027841F063
:108EA00040018DF80610012A4FF060018DF807107F
:108EB00004D100210170012002F0F2FB40F21844BD
:108EC00001ADC4F202044FF480300426206000BFDC
:108ED0002878002101F01CFB01300ED0013E300447
:108EE00005F10105F4D14FF600410120CFF6FF71E5
:108EF00080222060625002B070BDB0B2043818BF4A
:108F0000012002B070BD000070B582B03F218DF825
:108F1000041043F6C021C2F20001097840F020009D
:108F20008DF8050041F040008DF8060044F6500031
:108F3000C2F2000002780021012A8DF8071003D147
:108F40000170012002F0ACFB40F2184401ADC4F204
:108F500002044FF480300326206000BF28780021EF
:108F600001F0D6FA01300CD0013E300405F10105C4
:108F7000F4D1012020604FF60040CFF6FF70802131
:108F800021503220FFF756FF4FF6F830CFF6FF7032
:108F90002058012121EA101002B070BD70B582B0D6
:108FA00043F6C022C2F2000240F0400012788DF871
:108FB000060044F650003F21C2F200008DF8041074
:108FC00042F0200102788DF805100021012A8DF869
:108FD000071003D10170012002F062FB40F2184437
:108FE00001ADC4F202044FF480300326206000BFBC
:108FF0002878002101F08CFA01300ED0013E3004B7
:1090000005F10105F4D14FF600410120CFF6FF71C3
:1090100080222060625002B070BDB0B2033818BF29
:10902000012002B070BD00002DE9F04F81B02DEDA0
:10903000028BADF5087D44F6EA68C2F20008012013
:1090400088F80000481D43F6084A9FED9F8B0C46A8
:1090500006904FF0FF3908AF48AEC2F2000A012572
:1090600002E0002840F040830A2001F011F859FA8C
:1090700085F03F2800F2B480DFE810F058000802C5
:10908000080208024000080208020802D90008028B
:1090900008020802080208020802FA001801080281
:1090A0000802080208020802080208020802080270
:1090B000080208020802080208026301760188011A
:1090C00008020802080208020802080291010802C8
:1090D0000802080208020802080208020802080240
:1090E0000802080208020802080208029F0108029A
:1090F00008020802080208020802BB0140F26C21C3
:109100005046C2F200014FF49872FBF792F8A07833
:109110000699821E5046FBF78CF807988AF8FF00E4
:1091200005988AF8000100F01FFC47E0E178A1F102
:10913000A0023D2A00F2428010250020DFE812F054
:1091400041003E003E003E003E003E003E003E002C
:109150003E003E0042004D025002530256025902A8
:1091600067026A023E003E003E003E003E003E00B6
:109170003E003E003E003E003E003E003E003E00FF
:109180003E003E003E003E003E003E003E003E00EF
:109190003E003E003E003E003E003E003E003E00DF
:1091A0003E003E003E003E003E003E003E003E00CF
:1091B0003E003E003E003E003E006D0200250120C4
:1091C0004FE74EE76078052500F01F00079044F652
:1091D000E960C2F20000017001200590002040E724
:1091E000E8B29038092800F25181DFE810F00A0057
:1091F0004F01180134014F014F014F014F014F0141
:10920000850203F0CBFC41F2597180B2CDF2B71167
:10921000A0FB0112510B42F2107201FB12024DF63B
:1092200093313846C0F6000103F060FFF2E040F2EF
:109230006C215046C2F200014FF49872FAF7F9FF20
:1092400007988AF8FF00C0B2FFF7A8FE9AF801015C
:109250009AF802119AF803219AF8043100F020FCE0
:109260000028ABD09AF8180101308AF81801A5E758
:109270002079A0F1D0010F29A0D820250020DFE817
:1092800011F01100CF01D201D5011200120012001D
:10929000D8011000DB01DE01E101E401E701EA0190
:1092A000ED018BE7DDE626250020DAE62079A0F146
:1092B000D00119293FF682AF0FF2140000EB8102B2
:1092C00030250020974600BF0000000000408F407E
:1092D00000F033B800F032B800F02EB800F0C1B999
:1092E00000F0C2B900F0C3B900F0C4B900F0C5B9CC
:1092F00000F0C6B900F0C8B900F01EB800F01CB804
:1093000000F01AB800F018B800F016B800F0C0B9B4
:1093100000F0C2B900F0C4B900F0C6B900F0C8B995
:1093200000F0CAB900F0CCB900F0CEB900F0D0B965
:1093300000F0D2B900F0D4B940E792E63125002020
:109340008FE640F254213846C2F20001FAF7BAFF24
:10935000FAF7B1FF2021395240F260213846C2F2BB
:109360000001FAF78AFFF8E0A078022800F0EC800C
:10937000032840F0F1806079052800F2ED8040F28A
:109380009011C2F2000101EB8000E1E040F2901088
:10939000C2F2000041683846FAF794FFDDE002208F
:1093A000009016200190062002903846D5A140F288
:1093B000E6720223102503952AE001208DF8200093
:1093C00030464FF48071FAF74DFF2078082862D1BB
:1093D0009DF8201001308DF82001B4F803008DF8BD
:1093E00025114FF44071ADF82111ADF82301062588
:1093F000C1E043F60040C2F200000068FBF72BF921
:1094000053EC182BFBF7B8F802460B463846BBA1C5
:1094100003F06CFE3846FAF74EFF82B2A1E001205D
:109420008DF8200030464FF48071FAF71BFF20784A
:1094300008284ED19DF8201001308DF82001B4F895
:1094400003008DF825114FF44071ADF82111ADF8EE
:10945000230106259EE030464FF48071CDF8209020
:10946000FAF700FF2078082851D1089901308DF8CB
:109470002001B4F80300CDF825114FF4C061ADF818
:109480002111ADF823014FF0090892E05FFA8BF249
:109490002046214667E098F80000012866D19DF833
:1094A000200009218DF825019AF8FF008DF8201180
:1094B0008DF8210144F6E960C2F200000078032132
:1094C0008DF8230101208DF822118DF82401062545
:1094D00051E098F80000012857D19DF8200009219B
:1094E0008DF825019AF8FF008DF820118DF82101E3
:1094F00044F6E960C2F20000007803218DF82301F0
:1095000001208DF822118DF82401062542E098F8FB
:109510000000012849D108984FF00908CDF825012D
:109520009AF8FF0006218DF8210144F6E960C2F2A5
:10953000000000788DF820818DF8230101208DF83E
:1095400022118DF8240134E040F29010C2F20000A4
:1095500001683846FAF7B6FE3846FAF7ACFE83469D
:10956000C2B22046394601F0B3F927E69DF8200043
:1095700001258DF82001002088F80000304629469A
:10958000FBF7C6FA0028F9D118E69DF8200001255E
:109590008DF82001002088F8000000BF30462946E1
:1095A000FBF7B6FA0028F9D108E6CDF820914FF084
:1095B000040844F6EA60C2F200000021017000BF16
:1095C00030464146FBF7A4FA0028F9D144F6EA6890
:1095D00000250120C2F2000843E5607805250AE075
:1095E000922500203DE5932500203AE54025002006
:1095F00037E56078092500F01F00079044F6E96020
:10960000C2F20000017000200021059129E511251A
:10961000002026E59925002023E59025002020E55F
:10962000212500201DE5222500201AE52325002004
:1096300017E52725002014E52925002011E52A2516
:1096400000200EE52B2500200BE52C25002008E549
:109650002D25002005E52E25002002E52F250020E0
:10966000FFE433250020FCE434250020F9E435250F
:109670000020F6E436250020F3E437250020F0E44E
:1096800038250020FFF7EDBC39250020FFF7E9BCA5
:109690003F250020FFF7E5BC60250020FFF7E1BC77
:1096A00061250020FFF7DDBC62250020FFF7D9BC53
:1096B00063250020FFF7D5BC64250020FFF7D1BC4F
:1096C00065250020FFF7CDBC66250020FFF7C9BC4B
:1096D00067250020FFF7C5BC68250020FFF7C1BC47
:1096E00069250020FFF7BDBC01200DF5087DBDEC0C
:1096F000028B01B0BDE8F08FFFF78AFB252E3366A1
:109700000D0A00002530346425303264253032647F
:109710002530326425303264253032640000000088
:109720002DE9F041C0B00446FAF7C5FD6D46064686
:10973000C0F1FF01FE28284488BF0021FAF792FDFE
:10974000284621463246FAF774FD0020295C3A2962
:1097500005D0202903D00130FF28F7D101E00021F6
:1097600029546846FAF7A7FD40F2A818C7B20026A8
:10977000C2F2000803E000BF01362B2E1BD058F8C0
:1097800026502846FAF797FD8742F5D1C0B200214E
:1097900040B100BF625C6B5C9A4206D101318842E5
:1097A000F8D10146814203D0E6E7C9B28142E3D154
:1097B0000029E1D000E02B26F0B240B0BDE8F081F6
:1097C000B0B543F6CC24C2F2000494F8FF10002098
:1097D00000F06CFC94F80011012000F067FC94F894
:1097E0000111032000F062FC94F80211042000F043
:1097F0005DFC94F80311052000F058FC94F8041166
:10980000062000F053FC43F6C025C2F2000569783B
:109810000A2000F04BFCA9780B2000F047FCD4F89C
:1098200008110D2000F042FC94F80D11122000F0F8
:109830003DFCB0BD70B586B000260C4605460096CE
:10984000FBF7C2FD0220059001A869460196CDE90B
:109850000354FBF775FC10B1FF2006B070BDFBF799
:1098600023FD002006B070BD80B50020FDF700F993
:10987000BCEEC00A10EE100A80BD00002DE9F047D2
:109880001825C4F202054FF48010286020202860BB
:1098900003F084F943F6084A44F6EC690446C2F240
:1098A000000AC2F2000900BF55F8080C10F040078A
:1098B0000ED0012001F084F8DAF8086103F06EF9A7
:1098C000001B8642F0D299F800000028ECD0EFBBD4
:1098D0004FF400102860D5F8F80355F8082CF6214D
:1098E00001EA9000C2F3C0310844D5F8F817082205
:1098F00002EA9121084443F6044880F0FF01C2F2D5
:109900000008C8F8001055F8081C09065EBF40F2B0
:10991000FF114840C8F800001020286003F03EF90D
:10992000044600BF55F8080C10F0400712D1012082
:1099300001F046F8DAF8086103F030F9001B8642BE
:10994000F0D299F800000028ECD01FB94FF0FF309A
:10995000BDE8F087202028604FF480102860D8F8F8
:109960000000BDE8F0870000B0B501200125FBF73D
:10997000C7FB43F60844C2F2000494F8FF0084F8E1
:109980000D51FFF779FA94F802112046FFF754FAC7
:109990002046FAF790FC44F66005C2F20005286004
:1099A000142001F00DF82D682046FAF784FC94F895
:1099B000012181B22046002300F012F9854204D033
:1099C00094F81801013084F8180143F60844C2F2F3
:1099D000000417A12046FAF75CFC00281CBF0020F9
:1099E00084F8000194F8000144F6EC65C2F2000529
:1099F000C0B194F8FF00FFF7D1FA012028701420BD
:109A000000F0DEFF94F8010194F8021194F80321AC
:109A100094F8043100F044F820B194F818010130B2
:109A200084F818010020287084F80D01B0BD00BF33
:109A30003A41424F5200000080B543F6CC2040F23C
:109A40006C21C2F20000C2F200014FF49872FAF7E2
:109A5000F0FB43F6C020C2F2000001218170152105
:109A6000017000F011F844F6EC60C2F20000002131
:109A7000017044F6EB60C2F20000017044F6E86049
:109A8000C2F20000017080BD80B544F65000C2F201
:109A9000000001210170012000F0F2F880BD0000FB
:109AA0002DE9F04143F63856C2F2000630464FF435
:109AB000806198461546FAF7D5FB44F65000C2F28D
:109AC0000000017821B901210170012000F0D8F8CF
:109AD000002700BFFFF7D2FE012823DB7C1CB9B2B0
