:020000040800F2
:1000000028160020AD010008BF1B00085D1800087D
:10001000BD1B00083D020008553B00080000000021
:10002000000000000000000000000000971D000814
:100030001F06000800000000951D0008A31D000811
:10004000C7010008C7010008C7010008C701000870
:10005000C7010008C7010008C7010008C701000860
:10006000C7010008C7010008C7010008C701000850
:10007000C7010008C7010008C7010008C701000840
:10008000C7010008C7010008C70100080000000000
:10009000000000000000000000000000C701000890
:1000A000C7010008C7010008C7010008C701000810
:1000B000C7010008C7010008C7010008C701000800
:1000C000C7010008C7010008C7010008C7010008F0
:1000D000C7010008C7010008C701000800000000B0
:1000E000C7010008C7010008C701000800000000A0
:1000F000000000000000000000000000C701000830
:1001000000000000C7010008C7010008C70100087F
:1001100000000000000000000000000000000000DF
:10012000C7010008C7010008C7010008C70100088F
:10013000C7010008000000000000000000000000EF
:10014000000000000000000000000000C11B0008CB
:10015000C7010008C7010008C7010008C70100085F
:10016000C7010008C70100080000000000000000EF
:10017000000000000000000000000000000000007F
:1001800000000000C701000800000000000000009F
:10019000C7010008DFF810D000F03EF80048004723
:1001A000953B0008AFF300802816002006488047E2
:1001B00006480047FEE7FEE7FEE7FEE7FEE7FEE74C
:1001C000FEE7FEE7FEE7FEE7911E00089501000846
:1001D00040EA01039B0703D009E008C9121F08C0C9
:1001E000042AFAD203E011F8013B00F8013B521E49
:1001F000F9D27047D2B201E000F8012B491EFBD2C0
:1002000070470022F6E710B513460A460446194621
:10021000FFF7F0FF204610BD064C074D06E0E068F2
:1002200040F0010394E8070098471034AC42F6D33D
:10023000FFF7B4FF643D0008843D0008FEE7D0F8F6
:10024000D41200EB8100D0F8C002002818D090F83A
:100250001814022907D0032905D0052903D006293F
:1002600001D009290CD100F580600222027600211C
:10027000017441748174C1740275417501604160FB
:100280007047D0F8D41200EB8100D0F8C0020028EB
:100290000FD090F8182400210A2A0BD000F58260B4
:1002A0000A2202720E23037041708170C1700271C4
:1002B0004171704700F58260022202720170417044
:1002C0008170C17002714171704770B505460E466C
:1002D000D5F8D40205EB8000D0F8C042D5F8D002A2
:1002E00001F0FEFE002C2AD0002828D094F8182413
:1002F000022A07D0032A05D0052A03D0062A01D0F6
:10030000092A0CD104F5806402212176002222748E
:100310006274A274E27421756275226062608078F2
:10032000000707D5284602F097FE2846BDE8704032
:1003300002F0FEBC7088BDE8704000F069BA70BD84
:100340000A46D0F8D41200EB8101D1F8C01200297E
:1003500030D0D388D3B191F81834022B04D0052BB8
:1003600002D0114601F0D3BD5388C1F80034D288C1
:100370004FF480639A4200D31A46C1F80424032341
:1003800081F8183481F8143401F0CDBD91F8183497
:10039000052B04D0022B02D0114601F0B8BD01F2AA
:1003A0001141012008720622CA71002008704870AD
:1003B0008870CA707047D0F8D41200EB8101D1F870
:1003C000C012002904D0012201F5836101F0C5BDEE
:1003D000704770B50646D6F8D40206EB8000D0F818
:1003E000C042D0F8C452D6F8D00201F079FE002CF9
:1003F0005FD0002D5DD000285BD094F81814002247
:10040000032902D006294CD12CE0D4F80404F0B121
:1004100004F58064042020766274A274E27420756E
:100420002068A4F5806410B92078412807D0AB6912
:10043000D4F8080404F582620121984731E0AB69E1
:10044000D4F8080404F582620021984729E004F2F8
:1004500011440520E07122706270A270E070A4F275
:1004600011441EE094F81914012901D061B118E07B
:1004700004F211440720E071012121706270A27022
:10048000E070A4F211440CE08078400709D504F232
:1004900011440220E07122706270A270E070A4F238
:1004A000114404F582613046BDE87040062201F037
:1004B00054BD70BD70B50546D5F8D40205EB80007B
:1004C000D0F8C042D5F8D00201F00AFE002C0FD0BF
:1004D00000280DD0002184F819148078400708D531
:1004E00004F211440620E07121706170A170E07087
:1004F00070BD04F211440820E07121706170A17098
:10050000E070284602F0A8FDBFF34F8F0548016850
:10051000054A01F4E06111430160BFF34F8F00BF52
:10052000FDE700000CED00E00400FA052DE9F041C4
:100530000546D5F8D40205EB8000D0F8C042D0F8CB
:10054000C462002C69D0C8880023C8B394F818048A
:1005500002280AD0092808D0C4F80434C4F80034AA
:100560002846BDE8F04101F0D2BC4888C4F8000438
:10057000CA884FF48067BA4200D33A46C4F80424CC
:10058000D0B1012834D904F5816409212174637242
:10059000A372E37221732168801EA4F5816401EBCC
:1005A000802073692146984701462846D4F80424E0
:1005B000BDE8F04101F0D1BC032A02D9022001E0DC
:1005C00023E0092084F8180484F8113484F81234E4
:1005D00084F8133484F814042370212060704120BF
:1005E000A07021462846BDE8F041032201F0B5BCC9
:1005F00004F211440F20E07123706370A370E07067
:100600002846BDE8F04101F082BC04F2114402200A
:10061000E07123706370A370E070BDE8F0817047F3
:1006200072B6FEE70022002905D001291AD002295E
:100630001BD04FF440720E490B6823F440730B60DB
:100640000B6813430B600A6822F0F8020A600A681C
:10065000022303EBC00002430A60086840F48030C4
:10066000086070474FF48072E5E74FF40072E2E7EC
:10067000103C0240064A136823F440731360136869
:100680001360136843F001031360017070470000AA
:10069000103C024010B509490C6824F440740C6009
:1006A0000C6844F440740C600C6844F001040C6065
:1006B0000260BFF36F8F436010BD0000103C02402A
:1006C000074A136823F440731360136843F480737C
:1006D0001360136843F0010313600180704700004A
:1006E000103C0240074A136823F4407313601368F8
:1006F00043F400731360136843F001031360016057
:1007000070470000103C02401C490868C2061C48A3
:1007100005D5C26942F01002C26110220A600A685F
:10072000920605D5C26942F00802C26120220A6021
:100730000A68520605D5C26942F00402C26140222D
:100740000A600A68120605D5C26942F00202C26157
:1007500080220A600A68D20506D5C26942F0010209
:10076000C2614FF480720A600A68920705D5C269B7
:1007700042F02002C2610220086070470C3C024037
:10078000040F002070B5044611490020C86100F034
:100790000DFA05460F4E09E0601C07D024B100F0A9
:1007A00005FA401BA04201D9032070BD3068C00388
:1007B000F2D43068C00701D001203060306810F4F6
:1007C000F97F03D0FFF7A0FF012070BD002070BDAE
:1007D000040F00200C3C024010B50B480168001DBE
:1007E0000468001D0068084400280BD0082207494F
:1007F00001F035F8054920460422BDE810401031CB
:1008000001F02DB810BD0000107AFF1F4E0000202F
:1008100070B5044600F0CAF90546601C02D00448D1
:100820000078044400F0C2F9401BA042FAD370BD26
:10083000840000200348016841F00041016000206D
:1008400070470000103C02402DE9F04706468946FB
:1008500014461D46194F387E012808D001203876ED
:100860004CF250384046FFF78DFF18B114E00220DB
:10087000BDE8F0879EB1012E16D0022E19D0224677
:100880002B464846FFF706FF4046FFF77BFF0C4923
:100890000A6822F001020A6000213976E8E7E1B235
:1008A0004846FFF7E7FEEFE7A1B24846FFF708FF2B
:1008B000EAE721464846FFF715FFE5E7040F002069
:1008C000103C0240002007490A68002A09DA054A5C
:1008D000054B0C3A1360054B13600968002900DAD8
:1008E00001207047103C024023016745AB89EFCDE2
:1008F0002DE9F04F0022DFF8F0904FF001084FF0A3
:100900000F0C08FA02F501EA0504AC4267D122F0A7
:10091000030303EB0906D6F8083897074FEA177A5E
:100920000CFA0AF707EA030B304B984201D1002377
:1009300014E02F4B984201D101230FE02D4B984238
:1009400001D102230AE02C4B984201D1032305E098
:100950002A4B984201D1042300E0072303FA0AF34B
:100960005B4522D1DFF898A0DAF80030A343CAF83B
:1009700000300AF1040ADAF80030A343CAF8003064
:10098000DFF87CA00AF10C0ADAF80030A343CAF8B9
:100990000030AAF1040ADAF80030A343CAF80030A4
:1009A000D6F80838BB43C6F8083804685600032355
:1009B000B3409C430460D40800EB8404276A5607C4
:1009C0004FEAD66A0CFA0AF6B7432762C4689C431A
:1009D000C4604468AC43446084689C438460521C97
:1009E000102A8ED3BDE8F08F003001400000024095
:1009F0000004024000080240000C024000100240C7
:100A0000003C01402DE9F84F0022DFF880914FF0C3
:100A1000010803274FF00F0C09F1040AA9F1040B98
:100A200008FA02F50B682B40AB426ED10C7904F04A
:100A30000304012C01D0022C15D18668540007FA5A
:100A400004FE26EA0E06D1F80CE00EFA04FE4EEA89
:100A5000060EC0F808E04468AC430D79C5F30015F4
:100A60009540254345600C79E443A40708D0C56848
:100A7000540007FA04F6B5438E68A6402E43C660BC
:100A80000C7904F00304022C11D1D40800EB840685
:100A9000356A5407E40E0CFA04FE25EA0E05D1F877
:100AA00010E00EFA04FE4EEA050EC6F820E00568D6
:100AB000540007FA04F6B5430E7906F00306A64083
:100AC0002E4306604C6814F4403F58D0304C2568E3
:100AD00045F480452560246804F4804400942D4C3E
:100AE00022F003052E19D6F8085894074FEA147E11
:100AF0000CFA0EF4A543284CA04201D1002415E0C5
:100B0000264CA04202D1012410E038E0244CA0423F
:100B100001D102240AE0234CA04201D1032405E0C4
:100B2000214CA04201D1042400E0072404FA0EF471
:100B30002C43C6F80848D9F800409C434D68ED02A4
:100B400000D51C43C9F80040DAF800409C434D68CA
:100B5000AD0200D51C43CAF80040DBF800409C43BE
:100B60004D68AD0300D51C43CBF80040074D083D50
:100B70002C689C434E68F60300D51C432C60521C25
:100B8000102AFFF44DAFBDE8F88F0000083C01408B
:100B9000443802400030014000000240000402409E
:100BA00000080240000C024000100240014880682A
:100BB00070470000840000200248816802781144D8
:100BC000816070478400002010B50B48016841F433
:100BD00000710160016841F480610160016841F4C5
:100BE00080710160032000F071F8002000F006F829
:100BF00000F026F8002010BD003C024070B504460D
:100C00000D4D4FF47A712878B1FBF0F00B4909686B
:100C1000B1FBF0F000F00EFE08B1012070BD102C09
:100C200007D200222146501E00F030F86C600020F0
:100C300070BD012070BD00008400002090000020E5
:100C400008B50A48016841F480410160006800F479
:100C5000804000900548001F016841F0805101600C
:100C6000006800F08050009008BD00004438024049
:100C7000002809DB00F01F0201219140400980009B
:100C800000F1E020C0F8001170470000F0B40D46FC
:100C90000D4B1B68C3F30223C3F10704042C00D9D6
:100CA0000424191D072901D2002300E0DB1E0126C0
:100CB00006FA04F1491E294099409E40761E1640CE
:100CC0003143F0BC02F047BF0CED00E000F007013B
:100CD000054A10684FF6FF03184040EA0120034917
:100CE00008431060704700000CED00E00000FA05BA
:100CF0007047006841620020704770B50368586A09
:100D0000002907D09C6A00EB144400204FF4827540
:100D1000491E0AE040EA024098620DE005EB8006B9
:100D20009E5904EB1644401CC0B28842F6D305EB32
:100D3000810144EA02405850002070BDD0F80805F7
:100D400001F0C8BD01EBC10200EB8202D0F808053A
:100D5000D26C01F0ECBC01EBC10200EB8202D0F8D6
:100D60000805D2F88C2201F050BDD0F8080501F03A
:100D7000B3BD0A0601F00F0101EBC10100EB8101D7
:100D800001D53C3101E001F51F71006802F010BD92
:100D900070B5044601F00F006268904201D901204D
:100DA00070BD0B0601F00F0101EBC10104EB8101E5
:100DB0004FF001024FF0000502D53C314A7002E0CD
:100DC00001F51F714D708D70087094F8BC040128F6
:100DD00008D084F8BC24206802F096FB84F8BC5448
:100DE000002070BD022070BD2DE9F04104460F06C1
:100DF00001F00F0000EBC00104EB81014FF0010690
:100E00004FF0000502D53C314E7002E001F51F7134
:100E10004D700870CA600B714A7802B10881022BCC
:100E200000D14D7194F8BC04012809D084F8BC6449
:100E3000206802F025F9284684F8BC54BDE8F0810A
:100E40000220FBE770B50D4605F00F0404EBC4016A
:100E500000EB810101F51F710A618B6100230B62B8
:100E60004B700C700369012B00D14A612A0705D031
:100E7000027C006802F0A0FB002070BD027C0068CC
:100E800002F08CFAF8E770B504460D46616805F08B
:100E90000F00884201D9012070BD29064FF00006DD
:100EA0004FF0010206D500EBC00104EB81013C319B
:100EB0004A7006E005EBC50104EB810101F51F71E5
:100EC0004E708A70087094F8BC04012807D084F82A
:100ED000BC24206802F044FB280702D007E002206F
:100EE00070BD217C04F2C442206802F0E3FA84F869
:100EF000BC64002070BD70B50D4605F00F0404EB16
:100F0000C40100EB81013C310A618B6100230B625B
:100F100001234B700C700369012B00D14A612A0731
:100F200005D0027C006802F047FB002070BD027C07
:100F3000006802F033FAF8E72DE9F84F0446256817
:100F4000284602F0E3FC00287ED1206802F00AFD6A
:100F5000002879D0D5F80808C0F30D20C4F8FC04A7
:100F6000206802F0FFFC800704D52068416901F089
:100F700002014161206802F0F5FCC10604F2C440A0
:100F8000009035D52068816921F0100181612F6AB8
:100F900007F00F0000EBC00004EB800606F51F769B
:100FA000C7F34340022802D0062812D01BE047F6C0
:100FB000F070074217D0C7F30A1217462846316966
:100FC00002F0D4FC306938443061306A3844306211
:100FD00009E008222846009902F0C8FC306AC7F3ED
:100FE0000A11084430622068816941F01001816172
:100FF000206802F0B7FC00034FF0080B4FF0000927
:101000004FF001085ED50026206802F08AFC824677
:1010100055E05FEACA704FD0F1B2206802F09AFC46
:101020000746F80707D005EB4610C0F8088B314695
:10103000204600F0EFFD380709D505EB4610C0F853
:1010400008BB3146204600E0F9E100F0BFFDF8069C
:1010500004D505EB46111020C1F8080BB8071CD5C4
:101060006869000605D5D5F8040840F48061C5F824
:10107000041806EBC60004EB800000F51F70C17871
:10108000012905D180F80390F1B2204600F0DDF986
:1010900005EB46110220C1F8080BB80604D505EB94
:1010A00046102021C0F8081BB80405D505EB4610F2
:1010B0004FF40051C0F8081B761C4FEA5A0ABAF1E7
:1010C000000FA6D1206802F04DFC40036CD52068CB
:1010D00002F020FC8246002663E05FEACA705DD021
:1010E000F1B2206802F024FC0746F80723D006F08E
:1010F0000F0108FA01F0D5F834188143C5F8341807
:1011000005EB4610C0F80889206901280FD106EBCD
:10111000C60004EB8000D0E912211144C16436B945
:10112000606D20B920680121009A02F0C3F9F1B284
:101130002046FFF707FE380703D505EB4610C0F839
:1011400008B9F80604D505EB46111020C1F80809C6
:10115000780604D505EB46104021C0F80819B807F9
:1011600016D53146284602F09DFB06EBC60004EB7F
:1011700080003C30C178012905D180F80390F1B29C
:10118000204600F05EF905EB46110220C1F808097F
:10119000380603D53146204600F0AEFD761C4FEAF6
:1011A0005A0ABAF1000F98D1206802F0DBFB002840
:1011B00011DAD5F8040820F00101C5F8041894F8F4
:1011C000F404012829D0204600F00BFA2068416978
:1011D00001F000414161206802F0C4FB00050BD51D
:1011E000D5F80808C00702D0204600F063FA20684E
:1011F000416901F400614161206802F0B3FBC00461
:1012000061D5D5F8040820F00101C5F804181021B3
:10121000206802F047FB002120E084F8F4940021CC
:101220002046FFF765FDD1E705EB411000F51060A2
:101230004FF67F328260036823F400130360C0F826
:101240000822D0F8002222F40012C0F80022D0F8C0
:10125000002242F00062C0F80022491C6068884207
:10126000E2D8D5F81C0840F00111C5F81C18206B15
:1012700060B1D5F8840840F00B01C5F88418D5F8A2
:10128000440840F00B01C5F844180CE0D5F81408E8
:1012900042F22B010843C5F81408D5F8100840F0B5
:1012A0000B01C5F81018D5F8000820F4FE61C5F848
:1012B0000018217C2068009A02F0FCF8206841693F
:1012C00001F480514161206802F04CFB800415D587
:1012D000206801F017FF206802F008FBE06000F0D2
:1012E000A3FA0146227B206802F0A6FB204600F00C
:1012F00065F92068416901F400514161206802F0FC
:1013000031FB000707D5204600F06FF920684169DE
:1013100001F008014161206802F024FB000615D5A8
:10132000A86920F08001A96101260CE006EBC60047
:1013300004EB800090F87F02012803D1F1B220462F
:10134000FFF717FD761C6068B042EFD8206802F006
:1013500009FBC00220D5012616E005EB4610D0F8A7
:10136000001906EBC60004EB800090F84020012A2B
:1013700009D1002907DA80F83F80F0B240F08001FF
:101380002046FFF7F6FC761C6068B042E5D820687E
:10139000416901F480114161206802F0E3FA8002A2
:1013A00030D5012026E005EB4011D1F8001B00EB01
:1013B000C00204EB820292F88032012B19D100297D
:1013C00017DA94F8FC3401F4803103F001039942F8
:1013D0000FD182F87F82A96941F08002AA61696910
:1013E000090606D4D5F8040840F40070C5F80408CE
:1013F00003E0401C61688142D5D82068416901F44E
:1014000000114161206802F0ADFA400007D5204686
:10141000FFF794FC2068416901F080414161206838
:1014200002F0A0FA40070AD520684568680702D58F
:101430002046FFF79AFC2068416829434160BDE8D7
:10144000F88FD0F8080501F097BAD0F8080501F038
:10145000A8BA2DE9F0418AB00446002C05D02668D0
:1014600094F8BD04002520B108E001200AB0BDE8D1
:10147000F08184F8BC54204600F05EF8032084F824
:10148000BD04F06BC00500D42561206801F080FF29
:1014900004F11001282288466846FEF799FE94E878
:1014A0000F0001F03DFE022718B184F8BD74012041
:1014B000DCE70021206802F078FA002101260DE027
:1014C00001EBC10004EB80003C30467001700181EB
:1014D0000571C56005618561491CC9B260688842B3
:1014E000EED800210DE001EBC10004EB800000F517
:1014F0001F70457001700571C56005618561491CEB
:10150000C9B260688842EED8282241466846FEF794
:101510005FFE94E80F0001F083FE18B184F8BD74FB
:101520000120A3E784F8385084F8BD64206801F0F6
:1015300069FE00209AE7000010B586B00446142129
:1015400001A8FEF75EFE2068B0F1A04F2FD1002168
:101550001848026842F001020260006800F00100D1
:1015600000904FF4C050019002200290039103209C
:1015700004900A20059001A90F48FFF743FA0D488F
:10158000001D016841F0800101600A4814300168C3
:1015900041F480410160006800F480400090002226
:1015A00011464320FFF772FB4320FFF761FB06B0B3
:1015B00010BD0000303802400000024070B5044603
:1015C0000125E068022801D0FFF72AF82946D4F85F
:1015D000080501F057FAD4F80805BDE8704001F09D
:1015E0000ABAD0F8080501F036BAD0F8080501F0BB
:1015F0003CBA10B5044694F8BC0401280BD0012075
:1016000084F8BC0484F83810206802F0FEF9002049
:1016100084F8BC0410BD022010BDD0F8082500F2EB
:10162000C441104601F03ABA10B50446206894F857
:10163000BC14012906D0012184F8BC14A16A012937
:1016400002D008E0022010BDA169012903D0816BFE
:1016500041F480318163206802F0FCF8206801F0D9
:10166000C3FD002084F8BC0410BD70B50446256895
:1016700094F8BC04012810D0012084F8BC0428464A
:1016800001F086FE206801F0BDFD1021206802F007
:1016900009F9A06A012802D008E0022070BDA06903
:1016A000012803D0A86B20F48030A863002084F8C0
:1016B000BC0470BD10B50446D4F8080501F039FA31
:1016C0002068D0F8001E41F00101C0F8001E206A19
:1016D000002804D00248016841F00601016010BDF5
:1016E00010ED00E02DE9F041FFF760FA0546484CA7
:1016F000206840F00100206007E0FFF757FA401B28
:10170000022802D90320BDE8F08120688007F4D5C3
:10171000206840F080002060FFF748FA05463C4E04
:1017200000200836306041F2883706E0FFF73EFAC5
:10173000401BB84201D90320E5E7306810F00C0FD8
:10174000F4D1FFF733FA0546206820F450202060DA
:1017500006E0FFF72BFA401B642801D90320D2E7EB
:1017600020688003F5D4FFF721FA0546206820F0B1
:101770008070206006E0FFF719FA401B022801D9AB
:101780000320C0E720688001F5D4FFF70FFA054673
:10179000206820F08060206006E0FFF707FA401B19
:1017A000022801D90320AEE720680001F5D41849CA
:1017B0001848091D08601649174884310860144804
:1017C0000C30016821F4F8510160016821F40051E6
:1017D0000160016841F41F010160016841F40011DA
:1017E00001600B487430016821F00101016001685B
:1017F00041F0807101600A490848086009480068A2
:10180000FFF7FCF908B101207DE700207BE700002D
:101810000038024010300004003000200024F400A2
:1018200090000020880000200148006870470000F8
:101830009000002010B5401EB0F1807F01D3012040
:1018400010BD4FF0E02460610F21601702F083F9B2
:101850000020A06107202061002010BDFEE7F0B548
:1018600000230A2530263727002412E0B5EB107F2D
:1018700004D906EB107C01F813C003E007EB107CE1
:1018800001F813C0000101EB430C8CF801405B1C14
:10189000DBB29342EAD3F0BD08B504490A680243BB
:1018A0000A6009680140009108BD0000303802401C
:1018B0002DE9F0410A6892FAA2F2B2FA82F30F26F9
:1018C00003258AE001249C402240002A7DD04C68F8
:1018D000012C01D0022C1BD18C68876892FAA2FCE3
:1018E000BCFA8CFC4FEA4C0C05FA0CFC27EA0C07FE
:1018F00092FAA2FCBCFA8CFC4FEA4C0C04FA0CF4F1
:1019000027438760CC684768544397432743476021
:101910000C69C76892FAA2FCBCFA8CFC4FEA4C0C2A
:1019200005FA0CFC27EA0C0792FAA2FCBCFA8CFC24
:101930004FEA4C0C04FA0CF42743C7604C68022CA5
:1019400034D192FAA2F4B4FA84F4082C16D24C6979
:10195000076A92FAA2FCBCFA8CFC4FEA8C0C06FADD
:101960000CFC27EA0C0792FAA2FCBCFA8CFC4FEAAA
:101970008C0C04FA0CF42743076217E04F69D0F887
:1019800024C0140A94FAA4F8B8FA88F84FEA880830
:1019900006FA08F894FAA4F4B4FA84F4A4002CEA41
:1019A000080CA7404CEA070CC0F824C04C68076834
:1019B00092FAA2FCBCFA8CFC4FEA4C0805FA08FC2F
:1019C00027EA0C0792FAA2F200E005E0B2FA82F2EE
:1019D00052009440274307605B1C0A6832FA03F404
:1019E0007FF470AF0020BDE8F0810000014908607D
:1019F000704700009000002008B54FF0E0210A6910
:101A00000092421C05D0401C03E00A69D20300D5B5
:101A1000401E0028F9D108BD10B5FEF70BFF0020CD
:101A200010BD000070B5FEF74DFF144CF325256086
:101A300002210120FEF7F6FD4FF47A763046FFF7DB
:101A4000DBFF256002210846FEF7ECFD3046FFF77C
:101A5000D3FF256002210320FEF7E4FD3046FFF7A7
:101A6000CBFF256002210420FEF7DCFD3046FFF7A6
:101A7000C3FFFEF7DFFE002070BD00000C3C0240FB
:101A800000203223012904D053709070D0700020C0
:101A9000704753709070D070F9E7000010B5FEF7F2
:101AA00011FF0249F3200860002010BD0C3C0240E9
:101AB00010B50346002003E013F8014B0C54401C02
:101AC0009042F9D3084610BD2DE9F04105460E4677
:101AD00017460024FEF7F6FE10E02A5931190023BC
:101AE0000220FEF7B1FE10B10120BDE8F0812859B7
:101AF0003159884201D00220F7E7241DBC42ECD3C3
:101B0000FEF798FE0020F0E770B586B01821684611
:101B1000FEF777FB0420FFF7BFFE8020FFF7BCFE37
:101B20000120FFF7B9FE4FF400420D488261022107
:101B30000C4EB16100920124019400250295039599
:101B400004946946FFF7B4FE0220009001940295C8
:101B50000395049469463046FFF7AAFE06B070BDAF
:101B6000000802400000024010B500220F49104852
:101B700000F0C0FD08B1FEF753FD0E490C4801F01E
:101B800002F808B1FEF74CFD0B49094800F00EFBC6
:101B900008B1FEF745FD064801F0CAF8002803D059
:101BA000BDE81040FEF73CBD10BD0000180000204D
:101BB000FC0000209800002068000020FEE7FEE7FF
:101BC0000148FFF7B9B90000F809002070B50446D4
:101BD0002068056C00EB4110D0F8081B0C4EB54294
:101BE00005D9090403D54FF40041C0F8081B20466D
:101BF000FFF713FDB54208D92069012805D104F289
:101C0000C4420121206801F055FC002070BD000095
:101C10000A30544F2DE9F04105460C462E68306CD1
:101C200006EB4411D1F8083BD5F810804FF400477B
:101C30004FF0200C05F2C442B8F1010F08D0DFF8D4
:101C4000B080404545D118043AD5C1F8087B4CE036
:101C5000284E5FEA037806D5B04246D9180444D529
:101C6000C1F8087B41E05FEA836802D5C1F808CB80
:101C70003BE013F0280F38D1B04204D9180402D544
:101C8000C1F8087B31E004EBC40005EB800000F5EF
:101C90001F70D1F8101BC369C1F31201591A0162F8
:101CA00024B983693BB1026911440161E1B228465C
:101CB000FFF751F819E00121286801F0FBFBF5E777
:101CC000980601D5C1F808CBE1B22846FFF743F8E2
:101CD0000BE034B9D5F8940218B90021304601F070
:101CE000E9FBE1B22846FFF736F80020BDE8F081B5
:101CF0000A31544F0A30544F2DE9F84F80460E46B2
:101D0000D8F8007006EBC60008EB80043C34A169EB
:101D1000206A884202D90120BDE8F88F081AE168DC
:101D2000814200D20846C01C4FEA900A07EB4619D0
:101D300016E0151AE268AA4200D21546E81C4FEADE
:101D4000900A98F810000090ABB2F2B238462169C0
:101D500001F0ECFE206928442061206A28442062BA
:101D6000D9F8180980B2504505D3A269206A90427B
:101D700001D2002ADDD1216AA069884208D806F084
:101D80000F0101208840D7F834188143C7F8341870
:101D90000020C1E7704770470178407841EA002091
:101DA0007047FEF709BF000010B53148016821F007
:101DB000070141F002010160016801F007010229F9
:101DC000FAD12C48016821F4404141F400410160FE
:101DD0002948016841F4803101600168C1F3404144
:101DE0000029FAD02449254A091D0B68244C2340B8
:101DF0001A430A600A6822F440320A60214A0B68DA
:101E0000214C23401A430A60016841F0807101604F
:101E10000168C1F340610029FAD017480830016811
:101E200021F0F0010160016821F4E05141F480519A
:101E30000160016821F460410160016821F0030143
:101E400041F002010160016801F00C010829FAD19A
:101E50000E48FFF7CBFD0020FEF7D0FE08B1FEF7DD
:101E6000DFFB05488C30016821F08071016010BDF6
:101E7000003C02400070004000380240082440004E
:101E80000080BFFF082440030080BFF000A24A0486
:101E90000548016841F47001016003494FF000609A
:101EA000803908607047000088ED00E010B500241C
:101EB000D0F8B8225268904700B10324204610BDE4
:101EC00090F89C22012A05D0022A03D0032A01D0CF
:101ED00000F01DB84988012904D10021C0F8A412DE
:101EE00000F048B87047002070470020704710B5D8
:101EF00013460A46002100F075FD002010BD10B504
:101F000013460A46002100F01CFE002010BD10B54B
:101F100004468021204600F0F1FD2046BDE8104037
:101F2000002100F0EBBD10B50323C0F89432C0F8D7
:101F30005821C0F85C2113460A46002100F052FDEA
:101F4000002010BD10B50521C0F8941200231A46D8
:101F5000194600F047FD002010BD10B50223C0F85F
:101F600094328261C26113460A46002100F0E9FD05
:101F7000002010BD10B50421C0F8941200231A46A9
:101F8000194600F0DEFD002010BD70B50446D4F8FF
:101F9000D40204EB8000D0F8C002002822D000F563
:101FA0008060002505604560022101760574017599
:101FB000D4F8D40204EB8000D0F8C40280688047D3
:101FC000D4F8D40204EB8000D0F8C00201F052F83B
:101FD000D4F8D40204EB8000C0F8C052C4F8BC525C
:101FE000002070BD022070BD002070477CB5D0F885
:101FF000D41200EB8101D1F8C042D1F8C432002CD8
:1020000007D094F81814042905D0072957D00320C5
:102010007CBD03207CBDD4F80014002571B10129DA
:1020200042D9D4F80804891E00EB81211B69D4F839
:1020300004242046984728B303207CBDD4F8041418
:10204000012931D005290AD0C4F804548DF8005074
:102050000121ADF806106946FFF759FF24E020780A
:10206000212803D041280ED003207CBD6078A178C0
:1020700000EB0120E17800EB0140217900EB0160E9
:10208000C4F8080410E06078A17800EB0120E17842
:1020900000EB0140217900EB0160C4F80804D96825
:1020A000884708B103207CBD04F580646560256025
:1020B000032020766574A574E574207501E0FEF7B1
:1020C000F9F900207CBD00001B2101800048704709
:1020D000D40000200A21018000487047F000002051
:1020E00038B5044600256288217820468A420CD9FA
:1020F000009105E0694600F0A7FA4178212906D051
:102100006188BDF800209142F4D8284638BD0546C4
:10211000FBE7000010B5D0F8D43200EB8300D0F814
:10212000C402062905D80068034900F0B2FA024843
:1021300010BD002010BD0000240F002010B5044683
:1021400040F21C4000F098FF002110B3D4F8D422D4
:1021500004EB8202C2F8C002C4F8BC0200F5806041
:10216000C160114A826001604160417602220276BC
:10217000017441748174C17402754175D4F8D4023C
:1021800004EB8000D0F8C4024068804748B10320C7
:1021900010BDD4F8D40204EB8000C0F8C0120220B5
:1021A00010BD002010BD000000400008002907D02D
:1021B000D0F8D42200EB8200C0F8C412002070478F
:1021C0000320704700207047F8B504460D46D4F848
:1021D000D40204EB8000D0F8C0120026002000904A
:1021E00000290CD0287810F0600038D0202808D0C2
:1021F00029462046FFF78BFE03263046F8BD032014
:10220000F8BD6878072824D2DFE800F01E04090E24
:1022100012161A0029462046FEF792F8EDE72946E5
:102220002046FEF783F9E8E72046FEF7D2F8E4E718
:102230002046FEF726F8E0E72046FEF7BCF8DCE78C
:102240002046FDF7FCFFD8E729462046FEF73DF87B
:10225000D3E729462046FFF75AFE0326CDE76878E4
:1022600006281ED003DC60B1012804D1C5E70A2886
:1022700030D00B283FD029462046FFF748FE0326E2
:10228000BBE794F89C02032805D029462046FFF7B7
:102290003EFE0326B1E7022269462046FFF75DFEB7
:1022A000ABE768882121B1EB102FA6D1D4F8D0027A
:1022B000FFF716FF014639B1EA88092A00D9092239
:1022C0002046FFF74AFE98E729462046FFF71FFE03
:1022D000032692E794F89C02032805D0294620465D
:1022E000FFF715FE032688E7012201F20C41204684
:1022F000FFF733FE81E7688810F0FF0F05D029460D
:102300002046FFF704FE032677E794F89C22032A71
:1023100005D029462046FFF7FAFD03266DE7C0B237
:10232000C1F80C0469E7000010B5002806D00A4681
:10233000054906A000F0ADF9034810BD0A46024960
:1023400002A000F0A6F9F7E7D80300204446552084
:10235000436F6E666967000012200880004870476E
:102360003800002010B5002806D00A46054906A00E
:1023700000F08FF9034810BD0A46024902A000F0A0
:1023800088F9F7E7D803002044465520496E746564
:102390007266616365000000042008800048704791
:1023A0003400002010B50A46024903A000F071F97C
:1023B000004810BDD803002053544D6963726F6507
:1023C0006C656374726F6E696373000010B50028EA
:1023D00006D00A46054906A000F05BF9034810BD87
:1023E0000A46024902A000F054F9F7E7D80300209A
:1023F00053544D333220446F776E4C6F61642046E6
:1024000069726D7761726520557064617465000052
:1024100010B51A200880FEF7DFF9014810BD000052
:102420004C0000200A46D188012902D01146FFF74E
:102430006EBD90F89C12012906D0022904D0032910
:1024400009D01146FFF763BD00218160012200F130
:102450000801FFF782BD0122011DFFF77EBD2DE9B6
:10246000F843044688460020009000270025B8F86D
:102470000200010A082973D2DFE801F0BC040C1F36
:10248000BCBC9CABD4F8B412207C0A686946904767
:102490000746B4E0207C022638B1D4F8B802C16AFD
:1024A0006846884707467E70A9E0D4F8B802816A7A
:1024B0006846884707467E70A1E0C0B206285FD212
:1024C000DFE800F0031221303F4FD4F8B402426835
:1024D00022B1207C69469047074690E0414620465D
:1024E000FFF715FD01258AE0D4F8B402826822B115
:1024F000207C69469047074681E041462046FFF729
:1025000006FD01257BE0D4F8B402C26822B1207C2C
:1025100069469047074672E041462046FFF7F7FCC0
:1025200001256CE0D4F8B402026922B1207C69462E
:102530009047074663E041462046FFF7E8FC012547
:102540005DE0D4F8B402426922B1207C694690472C
:10255000074654E041462046FFF7D9FC01254EE0EE
:1025600048E0D4F8B402826922B1207C69469047E1
:10257000074644E041462046FFF7C9FC01253EE0FE
:10258000002612E004EB8600D0F8B812896B59B12E
:10259000C4F8D462D0F8B80298F802106A46836B87
:1025A00020469847074627BB761CD4F8D802B0428D
:1025B000E8D824E0207C28B141462046FFF7A7FC5C
:1025C00001251CE0D4F8B802416B684688470746ED
:1025D00015E0207C28B141462046FFF798FC0125F4
:1025E0000DE0D4F8B802016B68468847074607211A
:1025F000797004E041462046FFF789FC0125002D53
:102600000DD1B8F806208AB1BDF8000048B1824269
:1026100000D90246009239462046FFF79EFCBDE8ED
:10262000F88341462046FFF772FCF8E72046FFF7A3
:10263000A1FCF4E7002102E0491CC9B2401C027869
:10264000002AF9D1084670470A8803781A440A809C
:102650000178084470470A4690F89C12012906D078
:10266000022904D0032902D01146FFF750BCD188BB
:10267000022902D01146FFF74ABC0121C160D0F8FF
:10268000A41209B10321C160022200F10C01FFF77D
:1026900064BC70B50D461646002818D00446204686
:1026A000FFF7C8FF022101EB40003080307828702E
:1026B000032068700220002206E02954641C401C9C
:1026C000C0B22A54401CC0B221780029F5D170BD97
:1026D00001460020002906D0012905D0022905D095
:1026E000032905D00320704703207047012070475D
:1026F0000320704700280FD00023C0F8B832C0F87C
:10270000C432C0F8D03209B1C0F8B412012180F847
:102710009C12027000F0F0B80320704710B5D0F89A
:10272000C802FEF735FBBDE81040FFF7D1BF70B51A
:1027300004460B461646002B08D043F08001204685
:10274000FFF7D1FBFF285ED078B35CE004F1140002
:10275000D4F89412002502293CD1D0E902218A4202
:102760000CD9521A826031462046FFF7C8FB00237D
:102770001A461946204600F035F92BE0914215D152
:102780004068884212D3D4F8981288420ED20022B0
:1027900011462046FFF7B3FBC4F8985200231A46AF
:1027A0001946204600F01EF914E01CE094F89C0243
:1027B000032808D1D4F8B802C16821B1C4F8D452B2
:1027C000C168204688478021204600F097F92046BE
:1027D000FFF7B8FB94F8A002A8B1204600F0F0F98A
:1027E00084F8A0520FE094F89C1203290BD1D4F87E
:1027F000B8124A693AB1C4F8D4024A691946204667
:102800009047002800D1002070BD70B504460B46EB
:1028100015460022002B08D003F07F012046FFF769
:1028200062FBFF2854D078B352E004F5AA70D4F8C4
:10283000941203294CD1D0E902218A420AD9521AB2
:102840008260C068824200D3024629462046FFF7D4
:102850004EFB3DE094F8AA0210F01F0006D00128BC
:1028600006D002280AD0002078B11BE00020FBE748
:1028700094F8AE122046FFF738FBF5E794F8AE1255
:102880002046FFF730FBEFE710E094F89C12032995
:1028900008D1D4F8B8120A6922B1C4F8D40209697F
:1028A000204688472046FFF765FB11E094F89C120C
:1028B00003290AD1D4F8B8128D6935B1C4F8D4020D
:1028C0008A6919462046904702460AB1104670BDF3
:1028D000002070BD0020704710B50024012180F851
:1028E0009C12D0F8B822002A04D05268017990478F
:1028F00000B10324204610BD10B50178002927D16E
:102900001449C1F80805C0F8C8124FF0A04008608B
:10291000042048600222CA60002008618A61C86100
:1029200008624862C86208630846FEF792FD08B173
:10293000FDF776FE80210748FEF7DBF940220021F3
:102940000448FEF7DAF9802201210248FEF7D5F9A2
:10295000002010BDF80900200A0601F07F01D0F820
:10296000C80201EBC10100EB810002D590F83E00E6
:10297000704790F87E02704710B5D0F8D42200EB73
:102980008202D2F8B822002A04D090F89C32032B9D
:1029900002D004E0032010BD126A02B1904700206B
:1029A00010BD10B5D0F8D42200EB8202D2F8B822C4
:1029B000002A04D090F89C32032B02D004E00320BC
:1029C00010BD526A02B19047002010BD10B51446E8
:1029D0001A46D0F8C8022346FEF706FABDE81040B2
:1029E000FFF776BE10B5D0F8C802FEF72BFABDE8A7
:1029F0001040FFF76DBE2DE9F04104460025012689
:102A000084F89C620020C4F894026060C4F8A402B8
:102A100084F8A002D4F8B802002806D0426822B197
:102A200000212046904700B1032500224023114693
:102A30002046FFF7CBFFA4F864614027C4F860711B
:102A40004023002280212046FFF7C0FFA684276292
:102A50002846BDE8F08190F89C12042903D190F833
:102A60009D1280F89C120020704710B590F89C12BF
:102A7000032905D1D0F8B81211B1C96901B188474D
:102A8000002010BD01740020704710B5D0F8C802B6
:102A9000FEF7AFFDBDE81040FFF71ABE70B5044663
:102AA00004F2AA20054600F055F80120C4F894026B
:102AB000B4F8B002C4F8980294F8AA2212F01F00E9
:102AC0000AD001280ED0022812D02046BDE870405E
:102AD00002F0800100F012B829462046BDE870409F
:102AE00000F028B929462046BDE8704000F06DBAD4
:102AF00029462046BDE8704000F057B910B5D0F81F
:102B0000C802FEF7C0F9BDE81040FFF7E1BD10B5FF
:102B1000D0F8C802FEF788FDBDE81040FFF7D8BD29
:102B200010B5D0F8C802FEF7A0FDBDE81040FFF7D1
:102B3000CFBD00F52770017841700421017000209D
:102B4000704710B5D0F8C802FEF7D5F9BDE81040BF
:102B5000FFF7BEBD70B50446084601782170417884
:102B6000801C617005462846FFF716F960802846EC
:102B7000851C2846FFF710F9A0802846801CFFF727
:102B80000BF9E08070BD38B50446002000900029A4
:102B900014D0C4F8B812D4F8D40204EB8000D0F8F2
:102BA000B802C16A19B168468847C4F8D002D4F89F
:102BB000D802401CC4F8D802002038BD032038BD1C
:102BC0000020704770B504468888002821D1C88845
:102BD000F8B9488880281CD200F07F0594F89C0240
:102BE00003280DD084F89E5229462046FFF74DFF5A
:102BF0002046FFF7BFF945B1022084F89C0270BD62
:102C00002046BDE87040FFF782B9012084F89C029D
:102C100070BD2046BDE87040FFF779B9034600203B
:102C2000D3F8B822002A02D012681846104770471D
:102C30002DE9F04104460F460025334EB978317036
:102C4000012906D939462046FFF761F90320BDE87E
:102C5000F08194F89C024FF0020802280CD003285F
:102C600024D039462046FFF752F931782046FFF745
:102C70001DF903252846EAE7A1B161602046FFF768
:102C8000CDFF0546280006D039462046FFF73FF91C
:102C900084F89C82EEE72046FFF76CF9032084F865
:102CA0009C02E7E72046FFF765F9E3E7C9B16068F2
:102CB000884224D0C1B22046FFF7F8F8317861602D
:102CC0002046FFF7ABFF0546280014D039462046C2
:102CD000FFF71DF921792046FFF7E8F884F89C8278
:102CE000C8E784F89C8261602046FFF7DFF8204641
:102CF000FFF740F9BEE72046FFF73CF9BAE7204668
:102D0000FFF738F9B6E70000940000204A88012A4E
:102D100003D0022A06D0FFF7FAB80121C0F8A412A6
:102D2000FFF728B98988090A80F8A012FFF722B9AD
:102D3000FFF7EDBE10B500240A7812F0600211D042
:102D4000202A05D0402A03D0FFF7E1F8204610BD25
:102D5000D0F8D42200EB8202D2F8B82292689047D1
:102D60000446F3E74A780A2A1CD2DFE802F0121878
:102D70001B151B08051B0F0BFFF771FBE6E7FFF7A1
:102D800021FFE3E7FFF754FF0446DFE7FFF74AFBC5
:102D9000DCE7FFF760FCD9E7FFF7B8FFD6E7FFF7FE
:102DA0008FF8D3E7FFF7B3F8D0E72DE9F0410546F8
:102DB0000E4600273479307810F060001ED02028AD
:102DC00008D0402806D031462846FFF7A0F83846FC
:102DD000BDE8F08121462846FFF785F8FF28F6D0A8
:102DE0000028F4D1C5F8D402D5F8B8028268002AC8
:102DF000EDD03146284690470746E8E7707800282E
:102E000070D0012831D0032804D031462846FFF77E
:102E10007EF8DCE795F89C02022806D0032815D03E
:102E200031462846FFF773F8D1E754B1802C08D01B
:102E300021462846FFF762FE80212846FFF75EFE06
:102E4000C5E731462846FFF762F8C0E7708840B909
:102E50003CB1802C05D0F08818B921462846FFF7F0
:102E60004DFE2846FFF786F8B1E795F89C02022848
:102E700006D0032815D031462846FFF748F8A6E7C4
:102E800054B1802C08D021462846FFF737FE802118
:102E90002846FFF733FE9AE731462846FFF737F812
:102EA00095E77088002892D1600603D02146284615
:102EB000FFF734FC2846FFF75DF821462846FFF768
:102EC00012F8FF2883D0002881D1C5F8D402D5F8A4
:102ED000B8028268002A90D03146284690470746BB
:102EE00075E7FFE795F89C024FF00008022806D02E
:102EF000032825D031462846FFF709F867E734B1A3
:102F0000802C04D031462846FFF701F85FE7200601
:102F100007D504F07F0000EB800005EB8001143141
:102F200007E004F07F0000EB800005EB800101F575
:102F3000AA71C1F8008002222846FFF70EF846E782
:102F400020060CD504F00F0000EB800005EB80009C
:102F5000808C68B931462846FEF7D9FF37E704F080
:102F60000F0000EB800005EB8000B0F8640148B171
:102F700020060CD504F07F0000EB800005EB8006F6
:102F800014360CE031462846FEF7C1FF1FE704F077
:102F90007F0000EB800005EB800606F5AA764CB1B9
:102FA000802C07D021462846FFF7D6FC28B1012007
:102FB000306004E0C6F8008001E0C6F8008002221C
:102FC00031462846FEF7C9FF01E770B505460E46B3
:102FD0000024307810F0600009D0202807D0402865
:102FE00005D031462846FEF792FF204670BD95F881
:102FF0009C02012808D0022806D0032804D03146BC
:103000002846FEF784FFF0E7B088C1B201291ED838
:10301000C1B22846FEF769FFFF2800D048B103245B
:10302000F0880028E1D1002CDFD12846FEF7A2FF6E
:10303000DBE7D5F8B8128A683AB1C5F8D4028A68D5
:103040003146284690470446EAE70324E8E731463C
:103050002846FEF75CFFC8E710B504462046FFF798
:103060005FFDD4F8B8221AB1526821792046904702
:10307000002010BD7047000000487047D8050020B0
:1030800070B50A784E78012302F00F041C4DA3405E
:10309000012E19D0D0F81C4844EA0343C0F81C386C
:1030A00000EB4210D0F8002B12040BD4D0F8002B08
:1030B0008B890979C3F30A031A4345EA81410A431C
:1030C000C0F8002B002070BDD0F81C489BB21C43F8
:1030D000C0F81C4800EB4210D0F800391B04F1D4B2
:1030E000D0F800398C890979C4F30A048904234390
:1030F00041EA82510B432B43C0F80039E2E700005C
:1031000000800010D0F800196FF30A01C0F8001910
:10311000D0F8041841F48071C0F8041800207047FA
:103120000FB410B50446089801281AD0E06840F0A2
:103130004000E060204600F033F80C9941B3A16BE9
:1031400021F48031A1630699012907D1A16841F0DA
:103150000601A160A16841F02001A16010BC5DF8EA
:1031600014FBA06B20F48030A063E0680B4908409A
:10317000E060E06820F44010E0600F98012803D17F
:10318000E06840F48010E060204600F009F8DAE7DB
:10319000A16B41F48031A163D5E70000BFFFBDFF03
:1031A00008B5002300930F49009A521C0092009A20
:1031B0008A4201D9032008BD0269002AF4DA00938B
:1031C000026942F001020261009A521C0092009AC8
:1031D0008A4201D9032008BD0269D207F4D1002038
:1031E00008BD0000400D0300D0F8001E21F00301CF
:1031F000C0F8001ED0F8041821F00201C0F804182D
:1032000000207047D0F8001E21F00301C0F8001E16
:10321000D0F8041841F00201C0F8041800207047EB
:103220000FB4F0B5044600260020002504EB800111
:10323000C1F80451401C0F28F8D3109868B3A06B54
:1032400020F40011A163A06B40F40021A163C4F835
:10325000005ED4F80018C4F800180B9801282FD08D
:103260000321204600F0E0FB1021204600F01AFB6D
:1032700000B10126204600F0F3FA00B10126C4F89F
:103280001058C4F81458C4F81C5800204FF00062BD
:103290004FF090434FF67F3733E0D4F8040840F006
:1032A0000201C4F80418A06B40F40011A163A06BE4
:1032B00020F40021A163A06B20F48021A163C6E764
:1032C000089820B10121204600F0AEFBCCE7002198
:1032D000204600F0A9FBC7E704EB4011D1F800C974
:1032E000BCF1000F06DA10B1C1F8003904E0C4F8EF
:1032F000002901E0C1F80059C1F81059C1F8087956
:10330000401C06998142E7D8002014E004EB4011EC
:10331000D1F800CBBCF1000F06DA10B1C1F8003BC8
:1033200004E0C4F8002B01E0C1F8005BC1F8105BB9
:10333000C1F8087B401C06998142E7D8D4F81008F0
:1033400020F48071C4F81018A5616FF080406061AE
:10335000099818B9A06940F01000A061A0690A4955
:103360000843A0610C9818B1A06940F00800A06162
:103370001098012803D1A06904490843A061304690
:10338000F0BC5DF814FB000000383C8004000040F5
:10339000816821F0010181600020704770B50C78D0
:1033A0004E780B78424D00EB4313012E21D0D3F819
:1033B000100B6FF31200C3F8100BD3F8100B28405A
:1033C000C3F8100B886908B1C8688861C868C8610B
:1033D000D3F8100B40F40020C3F8100BD3F8100BF7
:1033E000CC69C4F312042043C3F8100B012A53D054
:1033F00056E08E6996B3D3F810696FF31206C3F8DE
:103400001069D3F810692E40C3F810698E69CD6831
:10341000AE4200D98D6103F511631D6845F40025A6
:103420001D601D688E69C6F3120635431D60012AB2
:1034300023D000EB4412D2F8003943F00443C2F821
:1034400000398A693AB3D0F83428097801F00F03BB
:10345000012199400A43C0F8342827E0FFE703F52B
:1034600011631E682E401E601D6845F400251D6016
:103470001D686FF312051D60D9E7496919B100EBAA
:103480004412C2F8141900EB4410D0F8001941F0AE
:103490000441C0F8001909E0086908B1C3F8140B29
:1034A000D3F8000B40F00440C3F8000B002070BDBF
:1034B000FFFF07E010B5036C124CA34205D9D0F80A
:1034C000003B002B01DA002010BD00F53160002325
:1034D0000360036843F400230360036843F01803A8
:1034E0000360036843F0C0430360A0F53160012925
:1034F00006D100F530604261016841F08021016031
:10350000002010BD0A30544F4A780B78012A00EB96
:1035100043100BD0D0F8002B22F40012C0F8002B7F
:103520000979032914D0022912D017E0D0F8002914
:1035300022F40012C0F800290979032901D00229D8
:103540000CD1D0F8001941F08051C0F8001905E005
:10355000D0F8001B41F08051C0F8001B00207047DC
:103560000A784B780978012B00EB411012D0D0F883
:10357000001B002906DB2AB1D0F8001B21F0804196
:10358000C0F8001BD0F8001B41F40011C0F8001B6C
:1035900000207047D0F80019002906DB2AB1D0F8C6
:1035A000001921F08041C0F80019D0F8001941F449
:1035B0000011C0F80019EBE7F8B50C784F780B78DC
:1035C0007A4D6FF0604600EB4313012F27D0D3F8FC
:1035D000104B6FF31204C3F8104BD3F8104B2C4070
:1035E000C3F8104B8D69002D7DD0CC6825446D1E2D
:1035F000B5FBF4F5ADB26C43CC61D3F8104B06EAE1
:10360000C5452C43C3F8104BD3F8104BCD69C5F317
:1036100012052C43C3F8104B012A65D0A9E08F692D
:10362000FFB103F511631F686FF312071F601F6876
:103630002F401F608F69CD682F447F1EB7FBF5F5C3
:1036400006EAC5451E6835431D601D688E69C6F3D0
:10365000120635431D60A3F511630D79012D0ED0BF
:1036600017E003F511631E682E401E601D6845F4C7
:1036700000251D601D686FF312051D6009E003F54C
:1036800011631D6825F0C0451D601D6845F000559B
:103690001D60012A17D000EB4413D3F8004944F011
:1036A0000444C3F800490C79012C36D08A699AB3D6
:1036B000D0F83428097801F00F03012199400A431A
:1036C000C0F834286FE04A691AB100EB4413C3F81C
:1036D00014290979012917D1D0F80818C9050BD484
:1036E00000EB441101E031E03FE0D1F8002942F065
:1036F0000052C1F8002907E000EB4411D1F800297D
:1037000042F08052C1F8002900EB4410D0F80019B3
:1037100041F00441C0F8001945E0D0F80848E4053C
:1037200006D4D3F8004944F00054C3F8004905E03A
:10373000D3F8004944F08054C3F8004900920A8B42
:1037400093B20A78096900F0F1F92CE0D3F8104B34
:10375000CD68C5F312052C43C3F8104BD3F8104BBA
:1037600044F40024C3F8104B56E70A690AB1C3F8C1
:10377000142B0979012910D1D0F80808C00506D406
:10378000D3F8000B40F00050C3F8000B05E0D3F86D
:10379000000B40F08050C3F8000BD3F8000B40F052
:1037A0000440C3F8000B0020F8BD0000FFFF07E055
:1037B00038B5002200920B784D7800EB431442F2AA
:1037C0001073012D1AD0D4F8005B002D40DAD4F824
:1037D000005B45F00065C4F8005B0C7800EB441416
:1037E000D4F8005B45F08045C4F8005B009C641C85
:1037F0000094009C9C4224D9012229E0D4F800596D
:10380000002D25DAD4F8005945F00065C4F80059B8
:103810000C7800EB4414D4F8005945F08045C4F806
:103820000059009C641C0094009C9C4201D9012218
:103830000EE00C7800EB4414D4F80049002CF0DBC7
:1038400006E00C7800EB4414D4F8004B002CCDDBE0
:10385000104638BD816841F0010181600020704749
:1038600008B5002300930E49009A521C0092009A5A
:103870008A4201D9032008BD0269002AF4DA0093C4
:1038800010220261009A521C0092009A8A4201D9C9
:10389000032008BD0269D206F4D4002008BD000050
:1038A000400D030018B5002400940F4A009B5B1CD8
:1038B0000093009B934201D9032018BD0369002B9C
:1038C000F4DA0094202343EA811101610099491C34
:1038D00000910099914201D9032018BD0169890620
:1038E000F4D4002018BD0000400D0300D0F80808F3
:1038F00000F00600002805D0022805D0062803D0D5
:103900000F2070470020704702207047406900F088
:1039100001007047D0F81818D0F81C08084080B291
:103920007047D0F81818D0F81C080840000C7047F1
:1039300010B5D0F81038D0F8342801F00F04E24068
:1039400002F0010243EAC21200EB4110D0F808096C
:10395000104010BD00EB4111D1F8081BD0F814083D
:1039600008407047416980690840704730B5034698
:103970000846940802F00301002203F5805303E097
:103980001D6840F8045B521CA242F9D300290BD0F9
:1039900000221C68D50024FA05F300F8013B521CF4
:1039A000491E89B20029F5D130BD70B50546002405
:1039B000E86820F0C040E860012902D089B1012008
:1039C00070BDE86840F00050E8600120FCF720FF7F
:1039D000641C2846FFF79AFF012810D0322CF4D33C
:1039E0000DE0E86840F08040E8600120FCF710FF3F
:1039F000641C2846FFF78AFF08B1322CF5D3322C1D
:103A000001D0002070BD012070BD00F5006002688B
:103A100022F4FE62026002684FF4FE6303EA0111C1
:103A20000A43026000207047D0F800280A43C0F81B
:103A30000028002070470000022A0ED082B309211E
:103A4000C26822F47052C260C2684FF4705303EA35
:103A500081210A43C26000207047224A224B0A4457
:103A60009A4201D20F21EBE7204A214B0A449A42A5
:103A700001D20E21E4E71F4A1F4B0A449A4201D2A9
:103A80000D21DDE71D4A1E4B0A449A4201D20C214A
:103A9000D6E71C4A1C4B0A449A4202D20B21CFE7BC
:103AA0001DE01A4A1A4B0A449A4201D20A21C7E77A
:103AB000184A194B0A449A4201D20921C0E7174A11
:103AC000174B0A449A4201D20821B9E7154A11441A
:103AD000154A914201D20721B2E70621B0E7092138
:103AE000AEE70000405327FF00350C00401E1BFFCF
:103AF00040420F0000DC0BFF804F1200808CF9FE6B
:103B000020D6130060B6E5FE60E3160000D3CEFEBB
:103B100040771B00C05BB3FEC091210000CA91FE3C
:103B200020753800E05459FEE09C410010B5029C1D
:103B3000002C0DD1DB1C9C08002300EB023000F5AB
:103B4000805003E051F8042B02605B1CA342F9D3C0
:103B5000002010BDFEE70907090E002804DB00F174
:103B6000E02080F80014704700F00F0000F1E02022
:103B700080F8141D704702E008C8121F08C1002A0F
:103B8000FAD170477047002001E001C1121F002ADE
:103B9000FBD170470024FDF717F8FEF705F95A49E5
:103BA0004868037801F108021370437853708378F2
:103BB0009370C378D3700379137143795371837908
:103BC0009371C079D0710868017802F10803197007
:103BD0004178597081789970C178D97001791971DB
:103BE0004179597181799971C079D8711078474DAF
:103BF000474F4FF40046A52814D15078A52811D17D
:103C000010795A280ED150795A280BD11878FF28EC
:103C100008D15878FF2805D11879FF2802D15879A2
:103C2000FF2803D01878A52840D054E0DFF8E480BE
:103C3000D8F8000038490840B0F1005F4BD10221AC
:103C40002846FCF755FE31463846FCF751FE012068
:103C500080F310884FF0E0210020086148618861FE
:103C6000FDF740FD4FF0FF30A20002F1E022C2F864
:103C70008001C2F88002641C082CF5D32748016833
:103C800021F001010160016821F004010160016877
:103C900021F080010160002080F31088D8F8040032
:103CA000D8F8001081F30888804714E05878A528D8
:103CB00011D11879A5280ED15879A5280BD1FCF778
:103CC00001FE02210520FCF7ADFC4FF47A70FDF7F0
:103CD00093FEFCF7AFFDFDF717FFFDF745FF786991
:103CE00026EA000100F4004041EA0040B8610221E8
:103CF0006869814300F0020041EA0040A861FA20AF
:103D0000FDF77AFEEBE70000000000200000024013
:103D100000080240004000080000FE2F303802403A
:103D200040496E7465726E616C20466C61736820E8
:103D300020202F307830383030303030302F303352
:103D40002A3031364B612C30312A3031364B672CDA
:103D500030312A3036344B672C30312A3132384BEF
:103D600067000000843D000800000020FC00000007
:103D7000763B0008803E0008FC0000202C15000067
:103D8000863B0008000002080080000800000000D8
:103D9000000000000000000000000000592300089F
:103DA00099230008A5230008CD230008112400084A
:103DB00029230008652300080403090412010002F6
:103DC00000000040830411DF000201020301000033
:103DD0001A030000000000000000000000000000C6
:103DE000000000000000000000000000203D00086E
:103DF0009D1A0008191A0008251A0008C91A000897
:103E0000B11A0008811A000801000000100000002B
:103E1000000000000024F400000000003D21000824
:103E20008B1F0008C9210008ED1F0008E91F0008CA
:103E30000000000000000000C52100080000000094
:103E400000000000C9200008C9200008C92000089F
:103E5000D52000081521000809021B00010102C03D
:103E6000320904000000FE01020609210BFF0000D8
:103E7000041A01000A0600020000004001000000D0
:040000050800019559
:00000001FF
