:020000040800F2
:10400000A8ED0020AD41000809880008D17800081B
:10401000FD7F0008F14A0008D5CA00080000000032
:10402000000000000000000000000000D141000876
:10403000714D000800000000694200087942000844
:10404000C7410008C7410008C7410008C741000830
:10405000C7410008C7410008C7410008C741000820
:10406000C7410008C7410008C7410008C741000810
:10407000C7410008C7410008C7410008C741000800
:10408000C7410008C7410008C74100080000000000
:10409000000000000000000000000000C741000810
:1040A000C7410008C7410008C7410008C7410008D0
:1040B000C7410008C7410008C7410008C7410008C0
:1040C000C7410008C7410008C7410008C7410008B0
:1040D000C7410008D5980008C7410008000000004B
:1040E000C7410008C7410008C741000800000000A0
:1040F000000000000000000000000000C7410008B0
:1041000000000000C7410008C7410008C74100087F
:10411000000000000000000000000000000000009F
:10412000C7410008C7410008C7410008C74100084F
:10413000C74100080000000000000000000000006F
:10414000000000000000000000000000018A0008DC
:10415000C7410008C7410008C7410008C74100081F
:10416000C7410008C741000800000000000000002F
:10417000000000000000000000000000000000003F
:1041800000000000C741000800000000000000001F
:10419000C7410008C7410008DFF80CD000F05CFC04
:1041A0000048004715EA0008A8ED002006488047AF
:1041B00006480047FEE7FEE7FEE7FEE7FEE7FEE70C
:1041C000FEE7FEE7FEE7FEE73997000899410008A1
:1041D0001EF0040F0CBFEFF30880EFF30980816934
:1041E00011F8021C91BB01B590E80F10E047BDE843
:1041F00000508CE80300244B93E80600914208BF6E
:10420000704741B91EF0100F10D12049086820F006
:10421000010008600AE02CE9F00F1EF0100F08BF43
:104220002CED108AC1F838C081F822E01A6092F8AB
:104230002210906B61F0FF0E1EF0100F08BFB0EC63
:10424000108AB0E8F00F80F309887047104A1368AD
:104250009942FAD801B552F821C00FC8E047BDE82D
:104260000050CCF80000704701B50BF063FABDE8D0
:104270000140EFF3098CBEE701B50BF0ADFFBDE8DF
:104280000140EFF3098CB6E7B403002034EF00E0FF
:10429000E44401082DE9F05F0546002092469B4664
:1042A00088460646814640241BE02846414647464C
:1042B000224600F097FA53465A46C01A914110D34D
:1042C00011461846224600F07EFA2D1A67EB0108C7
:1042D0004F4622460120002100F075FA17EB000935
:1042E0004E41201EA4F10104DFDC484631462A4637
:1042F0004346BDE8F09F40EA01039B0703D009E075
:1043000008C9121F08C0042AFAD203E011F8013BC1
:1043100000F8013B521EF9D27047D2B201E000F81A
:10432000012B491EFBD270470022F6E710B5134659
:104330000A4604461946FFF7F0FF204610BD421E0C
:1043400012F8013F002BFBD111F8013B02F8013BB1
:10435000002BF9D1704730B505462A460B4612F8B6
:10436000010B13F8014B08B1A042F8D01CB1002892
:1043700002D06D1CF1E7284630BD421C10F8011B2D
:104380000029FBD1801A7047034611F8012B00F871
:10439000012B002AF9D1184670472DE9F0479146C4
:1043A0000F4680460446002614F8015B2DB100F04C
:1043B0003BFA0068405DC007F6D12B2D02D02D2DB1
:1043C00018D0641E4A463946204600F031FA27B11B
:1043D0003968A14201D1C7F8008071054FF002048D
:1043E0000BD54042002803DD0AF006FE0460A0075A
:1043F000BDE8F08746F48066E4E70028F8DA0AF0C2
:10440000FBFD04606FF00040F2E72DE9FE4F8046AF
:1044100081EA0300C00F0C46009021F0004123F018
:104420000045B8EB0200A94105D24046214690461E
:104430001C460B46024623F00040104347D0270D90
:10444000C7F30A00C3F30A510290401A01904028B2
:104450006BDAC3F3130040F4801B0098924620B13E
:104460000023D2EB030A63EB0B0B01985946C0F112
:104470004002504600F0A7F906460D465046594600
:10448000019A00F0BFF910EB08006141002487EAAF
:10449000115284EAE7731A4340D0009A62B3019A3A
:1044A000012A4FEA075215DC001B61EB02014FF0B5
:1044B000004202EA0752CDE90042001C41F580119A
:1044C00032462B4600F049FA03B0BDE8F08F404673
:1044D0002146F9E7001B61EB0201001C41F5801346
:1044E00000185B412018A2F5001747EB030140EAD2
:1044F000D570B6196D4111E06D084FEA360645EAF0
:10450000C0754FEA0752001B61EB0201001C41F528
:10451000801149084FEA30000019514132462B46BC
:1045200003B0BDE8F04F00F009BA00980122400046
:104530000023D0EB020263EBE073009821464FEAC0
:10454000E074B8EB000061EB0401E9E783F000439D
:104550005BE781F0004158E72DE9FE4F81EA030453
:1045600004F0004421F0004100944FF0000B23F0D0
:10457000004350EA01045ED052EA03045BD0C3F367
:104580000A54C1F30A552C44A4F2F3340194A0FB5D
:104590000254C1F3130141F48011C3F3130343F434
:1045A000801301FB024400FB034E840A970A44EA8D
:1045B000815447EA8357A4FB076802958D0A05FBDF
:1045C00007854FEA932C04FB0C542705029D4FEA04
:1045D000065847EA1637B5EB08056EEB070C870E51
:1045E000920E47EA811742EA8312A7FB0201B6EB5B
:1045F0000B0164EB00042B0D43EA0C335E1844EB13
:104600001C50DA465146E7FB0201C5F313044FEA9A
:104610000B3343EA14534FEA0432019C43EA060386
:10462000A4F10C040294009CCDE900B400F095F9CB
:1046300003B0BDE8F08F00200146F9E72DE9F04D09
:1046400081EA030404F0004B21F0004514464FF0CA
:10465000000A23F0004150EA050220D054EA01028A
:104660001DD0C5F30A570246C5F31303C1F3130067
:10467000C1F30A5640F4801543F48013A7EB0608F3
:10468000101BD64608F2FD3873EB050002D308F183
:10469000010801E092185B41B8F1000F03DA002035
:1046A0000146BDE8F08D00204FF480110646844697
:1046B0000EE0171B73EB050705D3121B63EB050315
:1046C00006434CEA010C49084FEA300092185B415E
:1046D00050EA0107EDD152EA030012D082EA040049
:1046E00083EA0501084305D0101BAB4106D2012225
:1046F000002306E000224FF0004302E06FF00102C9
:1047000053101AEB06004CEB085110EB0A0041EB7A
:104710000B01BDE8F04D00F011B90EB5C10F80EAF4
:10472000E0700844CA07002140F233438DE80E00D0
:104730000A460B4600F011F903B000BD00F000423C
:1047400030F000400AD0C10D01F56071C0F31600D1
:1047500042EA0151C2084007114370470020014658
:10476000704701F0004330B421F0004150EA0102EB
:1047700006D00A0DA2F56072C1F31301002A02DC13
:1047800030BC00207047440F44EAC104C100E01867
:1047900030BC00EBC25000F09AB830B50B46014671
:1047A00000202022012409E021FA02F59D4205D3D0
:1047B00003FA02F5491B04FA02F52844151EA2F17A
:1047C0000102F1DC30BD202A04DB203A00FA02F1BC
:1047D000002070479140C2F1200320FA03F31943EF
:1047E00090407047202A04DB203A21FA02F0002191
:1047F000704721FA02F3D040C2F1200291400843F1
:1048000019467047202A06DBCB17203A41FA02F0FE
:1048100043EAE07306E041FA02F3D040C2F120021D
:10482000914008431946704700487047E843010823
:104830002DE9F05F82460078002715468B460AF185
:104840000104B946302801D09DB113E014F8010BE2
:104850000127782803D0582801D045B10AE00DB1CE
:10486000102D07D10027102514F8010B02E00825B0
:1048700000E00A250026B0460EE005FB080005FB17
:1048800006F1012701EB10461FFA80F8B6F5803FCC
:1048900000D3B94614F8010B294600F0EFF80028C0
:1048A000EBDABBF1000F05D00FB1641E00E05446F7
:1048B000CBF80040B9F1000F06D00AF09DFB0221B1
:1048C0000160C81EBDE8F09F48EA0640FAE70029EB
:1048D000A8BF7047401C490008BF20F00100704786
:1048E00010B4B0FA80FC00FA0CF050EA010404BFE6
:1048F00010BC704749B1CCF1200421FA04F411FA3C
:104900000CF118BF012121430843A3EB0C01CB1D7F
:104910004FEA00614FEA102042BF002010BC7047F0
:1049200000EBC35010440029A4BF10BC7047401CCA
:10493000490008BF20F0010010BC704710B5141EDC
:1049400073F1000408DA401C41F1000192185B4148
:104950001A4301D120F0010010BD2DE9F04D92461F
:104960009B4611B1B1FA81F202E0B0FA80F2203236
:104970009046FFF728FF04460F4640EA0A0041EA46
:104980000B0153465A46084313D0114653EA01001F
:1049900019D0C8F140025046FFF724FF05460E46E5
:1049A000504659464246FFF70EFF084305D0012006
:1049B00004E020463946BDE8F08D0020054346EA74
:1049C000E0762C4337430A986305E40AA0EB08001D
:1049D0000022FD0A44EA47540A3002D5002001466D
:1049E000E9E7010510196941DDE908450019694148
:1049F000BDE8F04DA2E7C1F30A52C1F3130140F242
:104A0000FF3341F480119A4202DA002001467047D8
:104A100040F233439A42A2F2334202DC5242FFF7A1
:104A2000E1BEFFF7D0BE000030B5041E71F10004F6
:104A300004DB4FF00044404264EB0101141E73F1AB
:104A4000000405DB1C464FF00043524263EB0403B5
:104A5000994208BF904230BD064C074D06E0E06821
:104A600040F0010394E8070098471034AC42F6D3B5
:104A7000FFF796FBF0480108104901083A2800D2D8
:104A8000303820F02002412A01D3A2F137008842B9
:104A900001D34FF0FF30704770B58C1810F8015BF0
:104AA00015F0070301D110F8013B2A1106D110F8C7
:104AB000012B03E010F8016B01F8016B5B1EF9D1CB
:104AC0002B0705D40023521E0DD401F8013BFAE751
:104AD00010F8013BCB1A921C03E013F8015B01F8BC
:104AE000015B521EF9D5A142D8D3002070BD000051
:104AF000FFE7FEE784B0134684468DF80F0002916D
:104B0000ADF806209DF80F000146232800911DD81E
:104B10000099DFE801F012131415161B1B1B1B1B59
:104B20001B1B1B1B1B1B1B1B1B1B1B1B1B1B1B1BD5
:104B30001B1B1B1B1B1B1718191A08E007E006E0BC
:104B400005E004E003E002E001E000E0FFE7002010
:104B500004B070470020704780B584B044F6907070
:104B6000C2F2000040F6AC61C2F2000100220390E4
:104B7000029205F0DBF840F2AC61C2F20001039A48
:104B80000190104605F0C4F802990090084604B060
:104B900080BD000080B5C6B04590449102A8FF21B9
:104BA0000190FFF7C1FB4599449802680198FFF70F
:104BB000A2FB449909688DF807119DF80711012996
:104BC00060DBFFE74EF29C10C2F2000000680BF0C1
:104BD00081FC9DF8071102AA114411F8011C0A2951
:104BE00031D1FFE79DF8080008282CD0FFE79DF899
:104BF000070102A9084410F8020C0D2812D1FFE7A2
:104C00009DF8070102A90844002200F8022C9DF833
:104C10000701084400F8012C9DF8070102388DF8BF
:104C200007010CE09DF8070102A90844002100F8E3
:104C3000011C9DF8070101388DF80701FFE70120ED
:104C40008DF8080111E09DF8080008280CD1FFE755
:104C50009DF80A009DF807110330814204D1FFE757
:104C600002208DF80801FFE7FFE745F27860C2F205
:104C70000000006802A900220092009B0AF080F860
:104C80004390FFE746B080BD80B586B005900491A3
:104C9000059944F69070C2F20000039005F038F8D0
:104CA00003990290084604F0E9FF0599049A0190DF
:104CB00008461146FFF76EFF002006B080BD0000D9
:104CC00083B01346029001918DF8032000208DF8E7
:104CD00002009DF9020003B07047000080B586B065
:104CE0000A460490ADF80E1000208DF80D0044F631
:104CF0009070C2F20000D0F8BC0202900298D0F886
:104D00001402002804D0FFE701208DF8170015E0F9
:104D10000499BDF80E2044F69070C2F20000019094
:104D200005F004F801990090084605F0CFF88DF8D9
:104D30000D009DF80D008DF81700FFE79DF8170096
:104D400006B080BD80B582B003F074FF002803D1A7
:104D5000FFE70020019008E0CC2004F0F1F84420A7
:104D600004F0EEF801200190FFE7019802B080BD49
:104D70007047000081B0EFF3108072B60090FFE73B
:104D8000FEE7000082B0019045F60030C2F200005C
:104D90000078002803D1FFE7002000900FE0019881
:104DA000C0F3C62145F68022C2F20002515CC0F376
:104DB000022021FA00F000F001000090FFE70098C7
:104DC00002B0704780B584B0FFE745F60030C2F20C
:104DD00000008069019000F06DFA0390039807F0DD
:104DE0006BFE0290FFE7029801998842EDD1FFE740
:104DF00003980299884203D2FFE702F06BFDFFE7B8
:104E0000039804B080BD000080B588B0059004917F
:104E100003920598FFF7B6FF002803D1FFE70120B2
:104E200006901CE0FFF7CEFF0290BDF8140005903D
:104E3000EFF3058007900798059941F400220028B8
:104E400018BF11460591059840F040700299049AE8
:104E5000039B00F057F8019001980690FFE7069831
:104E600008B080BD80B58AB0DDF830C007900691EB
:104E7000059204930798CDF800C0FFF783FF002840
:104E800003D1FFE70120089038E0FFF79BFF039074
:104E9000BDF81C000790EFF3058009900998079969
:104EA00041F40022002818BF1146079101F062F872
:104EB0004FF4E02101EA004002900798029940EA8D
:104EC000010040F080700399069A059B00F01AF8E3
:104ED00001900198002803D1FFE7002008900DE021
:104EE00002980121C0F2002108430399049A0C9B07
:104EF00000F008F8019001980890FFE708980AB0C0
:104F000080BD000080B58CB00A900991089207938B
:104F100007200590FFE7059800286BD0FFE701F018
:104F200033F80490049800F03F0045F28061C2F22B
:104F3000000101EB0010069004984FF4700101EAA3
:104F4000803001900A980199084309994FF08052E6
:104F500002EAD101084308994FF0005202EA910198
:104F6000084307994FF0804202EA5101084340F09C
:104F70004060039006980C30039903F099F9039070
:104F80009DF80F00400700282FD5FFE7039880F019
:104F900080600390039880F000400390039800F035
:104FA00000400290099820F00040029908430699B9
:104FB0000860089820F0004002990843069948606C
:104FC000079820F0004002990843069988600698E7
:104FD0000C30039907F056FD002805D0FFE702F0DA
:104FE0008DFC01200B900AE004E0FFE705980138F2
:104FF000059090E702F078FC00200B90FFE70B98FB
:105000000CB080BD87B00590049103920498FE28EF
:1050100004D8FFE70398FF2803D3FFE7002006909A
:1050200037E0002002900190FFE7019803282DD877
:10503000FFE705980199C840C00700281ED0FFE788
:1050400004980090FFE700980399884215D8FFE77D
:10505000009800F00701012202FA01F1029A02EB26
:10506000D00045F68022C2F20002135C19431154AD
:10507000FFE7009801300090E5E7FFE70298203055
:105080000290FFE7019801300190CEE701200690E1
:10509000FFE7069807B0704780B58EB00D900C9171
:1050A00045F60030C2F200000021017045F6802173
:1050B000C2F200018022059008461146FFF734F93C
:1050C00044F2A440C0F60100182108F093FDADF8A9
:1050D0002A000598016A42F26B72CEF2A512914243
:1050E0000FD0FFE745F60030C2F2000042F26B71CC
:1050F000CEF2A5110162BDF82A1041800121C161E3
:105100001CE045F60030C2F200004088BDF82A10CD
:1051100088420AD0FFE7BDF82A0045F60031C2F206
:10512000000148800120C86107E045F60030C2F266
:105130000000C1690131C161FFE7FFE745F60030BA
:10514000C2F20000C069012812D1FFE745F6003025
:10515000C2F200000021417041608160C16045F2EF
:105160008060C2F200004FF48061FFF7DDF820E0BC
:1051700000200690FFE706983F2819D8FFE7069819
:1051800045F28061C2F2000101EB00100B900B9818
:10519000C07B4007002806D5FFE70B98C16821F0C7
:1051A0004061C160FFE7FFE7069801300690E2E743
:1051B000FFE745F60030C2F20000C069012818D1AF
:1051C000FFE700F083F808900898002804D0FFE774
:1051D00000F076F8099002E000200990FFE70998B6
:1051E00045F60031C2F20001486100208861086183
:1051F00003E000F06BF80890FFE7089800282ED035
:10520000FFE70D980021FE2204910392FFF7FAFEBA
:105210000F21EF22029008461146FFF7F3FE04210A
:10522000019008460399039AFFF7ECFE0090FFF700
:10523000C9FD0790079945F60030C2F20000C26927
:105240004FF60070C0F20030049BFFF75BFE0C9934
:10525000002903D0FFE700F005F8FFE7FFE7089813
:105260000EB080BD80B584B045F60030C2F20000BB
:105270000078002803D0FFE70120039016E045F6F0
:105280000030C2F20000012101700191FFF79AFD88
:10529000029002994FF60170C0F200300022009295
:1052A000009BFFF72FFE01990391FFE7039804B0DD
:1052B00080BD000041F20400CEF20000006870479B
:1052C00040F23400C2F20000006870474EF6FC5015
:1052D000CEF20000016841F08071016041F20000EF
:1052E000CEF20000016841F0010101600120704729
:1052F00080B582B0019001994FF20130C0F20100F7
:105300000022FFF781FD02B080BD000080B582B0B1
:10531000019001994FF20530C0F202000022FFF720
:1053200073FD02B080BD000080B582B0019001998C
:105330004FF473400022FFF767FD02B080BD00000C
:1053400080B582B0019001994FF20330C0F20200A3
:105350000022FFF759FD02B080BD000080B582B089
:10536000019001994FF20230C0F201000022FFF7D4
:105370004BFD02B080BD000080B582B00190019964
:105380004FF20430C0F202000022FFF73DFD02B0F0
:1053900080BD000080B582B0019001994FF20D50A0
:1053A000C0F202000022FFF72FFD02B080BD000016
:1053B00080B582B0019001994FF471400022FFF74F
:1053C00023FD02B080BD000080B582B0019001993C
:1053D0004FF21510C0F201000022FFF715FD02B0D8
:1053E00080BD000080B582B0019001994FF213108A
:1053F000C0F201000022FFF707FD02B080BD0000EF
:1054000080B582B04FF20110C0F20100002101917D
:10541000019AFFF7F9FC02B080BD000080B582B0B0
:105420004FF20210C0F2020000210191019AFFF731
:10543000EBFC02B080BD000080B582B04FF20710D7
:10544000C0F2010000210191019AFFF7DDFC02B0DA
:1054500080BD000080B582B04FF20810C0F202009B
:1054600000210191019AFFF7CFFC02B080BD00003E
:1054700080B586B005900491039202930599049A31
:10548000039B0298EC46CCF800004FF20100C0F2FA
:105490000200FFF7E7FC06B080BD000080B582B0D7
:1054A000019000910199009A4FF20400C0F20200AD
:1054B000FFF7AAFC02B080BD80B584B003900291D2
:1054C00001920399029A019B68464FF0000CC0F8C4
:1054D00000C04FF20500C0F20200FFF7C3FC04B0A9
:1054E00080BD000080B586B00590049103920293C0
:1054F0000599049A039B0298EC46CCF800004FF201
:105500000300C0F20200FFF7ADFC06B080BD000052
:1055100080B584B00390029101920399029A019B95
:1055200068464FF0000CC0F800C04FF20200C0F215
:105530000200FFF797FC04B080BD000080B584B086
:105540000390029101920399029A019B68464FF0E1
:10555000000CC0F800C04FF43C30FFF783FC04B0EF
:1055600080BD000080B582B0019001994FF608100F
:10557000C0F202000022FFF747FC02B080BD00002D
:1055800080B582B0019000910199009A4FF60320F6
:10559000C0F20200FFF738FC02B080BD80B582B0D7
:1055A000019000910199009A4FF47A40FFF72CFC8A
:1055B00002B080BD80B586B005900491039202933D
:1055C0000599049A039B0298EC46CCF800004FF62C
:1055D0000C20C0F20100FFF745FC06B080BD0000C2
:1055E00080B584B00390029101920399029A019BC5
:1055F00068464FF0000CC0F800C04FF60D20C0F216
:105600000200FFF72FFC04B080BD000080B582B01F
:10561000019001994FF60E20C0F202000022FFF720
:10562000F3FB02B080BD000080B582B00190009114
:105630000199009A4FF60920C0F20200FFF7E4FB3F
:1056400002B080BD80B582B0019000910199009AAE
:105650004FF60A20C0F20200FFF7D6FB02B080BD71
:1056600080B584B00390029101920399029A019B44
:1056700068464FF0000CC0F800C04FF60120C0F2A1
:105680000100FFF7EFFB04B080BD000080B582B0E1
:10569000019000910199009A4FF60B20C0F2020090
:1056A000FFF7B2FB02B080BD80B582B001900091DF
:1056B0000199009A4FF61020C0F20200FFF7A4FBF8
:1056C00002B080BD80B586B09446059004918DF8F7
:1056D0000F2002930599049A9DF80F300298EE4628
:1056E000CEF800004FF60620C0F20100CDF804C04D
:1056F000FFF7B8FB06B080BD80B584B0039002917F
:1057000001920399029A019B68464FF0000CC0F881
:1057100000C04FF60720C0F20200FFF7A3FB04B061
:1057200080BD000080B582B0019001994FF608203D
:10573000C0F202000022FFF767FB02B080BD00004C
:1057400080B582B0019000910199009A4FF60F2028
:10575000C0F20200FFF758FB02B080BD80B582B0F6
:10576000019000910199009A4FF20670C0F2010079
:10577000FFF74AFB02B080BD80B582B00190009176
:105780000199009A4FF20770C0F20200FFF73CFB4C
:1057900002B080BD80B582B0019001994FF20870CF
:1057A000C0F202000022FFF72FFB02B080BD000014
:1057B00080B582B0019000910199009A4FF2097072
:1057C000C0F20200FFF720FB02B080BD80B582B0BE
:1057D000019000910199009A4FF20370C0F202000B
:1057E000FFF712FB02B080BD80B582B0019000913E
:1057F0000199009A4FF47740FFF706FB02B080BD95
:1058000080B582B0019001994FF20170C0F20100A1
:105810000022FFF7F9FA02B080BD000080B582B027
:10582000019001994FF20A70C0F202000022FFF7C6
:10583000EBFA02B080BD000080B582B00190019902
:105840004FF20B70C0F201000022FFF7DDFA02B048
:1058500080BD000080B582B0019000910199009A4E
:105860004FF20C70C0F20200FFF7CEFA02B080BD1A
:1058700080B582B0019000910199009A4FF6060020
:10588000C0F20100FFF7C0FA02B080BD80B582B05F
:10589000019000910199009A4FF60700C0F20200B2
:1058A000FFF7B2FA02B080BD80B582B001900199D5
:1058B0004FF60800C0F202000022FFF7A5FA02B07E
:1058C00080BD000080B582B0019000910199009ADE
:1058D0004FF60900C0F20200FFF796FA02B080BD51
:1058E00080B582B0019000910199009A4FF60300B3
:1058F000C0F20200FFF788FA02B080BD80B582B026
:10590000019000910199009A4FF47840FFF77CFADA
:1059100002B080BD80B584B00390029101920399DA
:10592000029A019B68464FF0000CC0F800C04FF689
:105930000100C0F20100FFF795FA04B080BD00003D
:1059400080B582B0019001994FF60A00C0F20200C2
:105950000022FFF759FA02B080BD000080B582B086
:10596000019001994FF60B00C0F201000022FFF7F1
:105970004BFA02B080BD000080B582B0019000916A
:105980000199009A4FF60C00C0F20200FFF73CFAB2
:1059900002B080BD80B582B0019000910199009A5B
:1059A0004FF21620C0F20300FFF72EFA02B080BDBE
:1059B00080B584B00390029101920198002809D02B
:1059C000FFE70399019A4FF22C20C0F20200FFF783
:1059D0001BFA08E00399029A4FF20320C0F202007A
:1059E000FFF712FAFFE704B080BD000080B582B077
:1059F000019001994FF21C20C0F202000022FFF733
:105A000003FA02B080BD000080B582B00190009121
:105A10000199009A4FF47240FFF7F6F902B080BD89
:105A200080B582B04FF21A20C0F20100002101912E
:105A3000019AFFF7E9F902B080BD000080B586B099
:105A400005900491039202930599049A039B02988E
:105A5000EC46CCF800004FF20940C0F20200FFF71C
:105A600001FA06B080BD000080B582B001900199B6
:105A70004FF20840C0F202000022FFF7C5F902B061
:105A800080BD000080B582B0019001994FF21520D1
:105A9000C0F202000022FFF7B7F902B080BD00009B
:105AA00080B584B00390029101920399029A019B00
:105AB00068464FF0000CC0F800C04FF20120C0F261
:105AC0000100FFF7CFF904B080BD000080B582B0BF
:105AD000019001994FF21820C0F203000022FFF755
:105AE00093F902B080BD000080B582B001900199A9
:105AF0004FF21920C0F202000022FFF785F902B030
:105B000080BD000080B582B0019000910199009A9B
:105B10004FF21720C0F20300FFF776F902B080BD04
:105B200080B582B0019000910199009A4FF2016016
:105B3000C0F20200FFF768F902B080BD83B00A46E8
:105B400002908DF80710002000909DF807000028B3
:105B500003D1FFE70020009017E09DF8070001281F
:105B600004D1FFE74FF4807000900DE09DF807002E
:105B7000022804D1FFE74FF40070009003E04FF4D7
:105B800040700090FFE7FFE7FFE743F61040C4F2E4
:105B90000200016821F4407101600099026811431C
:105BA0000160016821F0F80101600299026842EA8F
:105BB000C10141F002010160016841F480310160DE
:105BC00003B0704743F60040C4F20200006880054D
:105BD00000281FD5FFE743F60040C4F20200016829
:105BE00021F400710160FFE743F60040C4F20200B7
:105BF000016841F400610160016821F40061016005
:105C0000FFE743F60040C4F20200016841F400716E
:105C10000160FFE743F60040C4F20200006840055F
:105C200000281FD5FFE743F60040C4F202000168D8
:105C300021F480610160FFE743F60040C4F20200F6
:105C4000016841F480510160016821F480510160D4
:105C5000FFE743F60040C4F20200016841F48061AE
:105C60000160FFE77047000082B002468DF8070030
:105C7000009143F61040C4F20200016821F4407123
:105C80000160016841F0040101609DF8071003689C
:105C900043EA012141F48031016002B07047000005
:105CA00082B00A4601908DF8031043F61040C4F20A
:105CB0000200016821F4407101600168016001681F
:105CC00041F0010101609DF803000199087002B0E4
:105CD0007047000084B019469446039001930092E7
:105CE00043F61040C4F20200026822F440720260DF
:105CF000026842F440720260026842F001020260EF
:105D00000098039A1060BFF36F8F0198039A506058
:105D100004B0704782B00A460190ADF8021043F615
:105D20001040C4F20200016821F440710160016872
:105D300041F480710160016841F001010160BDF82A
:105D400002000199088002B07047000082B0019003
:105D5000009143F61040C4F20200016821F4407142
:105D60000160016841F400710160016841F00101C6
:105D7000016000980199086002B0704743F60C403A
:105D8000C4F202000068C00600280FD5FFE74EF2FB
:105D90007800C2F20000C16941F01001C16143F610
:105DA0000C40C4F2020010210160FFE743F60C40F2
:105DB000C4F202000068800600280FD5FFE74EF20B
:105DC0007800C2F20000C16941F00801C16143F6E8
:105DD0000C40C4F2020020210160FFE743F60C40B2
:105DE000C4F202000068400600280FD5FFE74EF21B
:105DF0007800C2F20000C16941F00401C16143F6BC
:105E00000C40C4F2020040210160FFE743F60C4061
:105E1000C4F202000068000600280FD5FFE74EF22A
:105E20007800C2F20000C16941F00201C16143F68D
:105E30000C40C4F2020080210160FFE743F60C40F1
:105E4000C4F202000068C005002810D5FFE74EF23A
:105E50007800C2F20000C16941F00101C16143F65E
:105E60000C40C4F202004FF480710160FFE743F67A
:105E70000C40C4F202000068800700280FD5FFE73D
:105E80004EF27800C2F20000C16941F02001C16108
:105E900043F60C40C4F2020002210160FFE77047A4
:105EA00080B584B00290002001904EF27801C2F2D9
:105EB0000001C86100F07AFB0190FFE743F60C4057
:105EC000C4F202000068C003002816D5FFE702985C
:105ED0000130002810D0FFE70298002808D0FFE723
:105EE00000F064FB0199401A0299884203D9FFE748
:105EF0000320039022E0FFE7E0E743F60C40C4F202
:105F000002000068C007002807D0FFE743F60C40F6
:105F1000C4F2020001210160FFE743F60C40C4F225
:105F20000200006810F4F97F05D0FFE7FFF726FFB5
:105F30000120039002E000200390FFE7039804B0E3
:105F400080BD000081B001468DF803009DF803007C
:105F5000012807D1FFE71820C4F202004FF4802186
:105F6000016005E01820C4F2020004210160FFE78F
:105F700001B0704780B545F60030C2F20000013034
:105F800007F072F980BD000080B545F60030C2F21E
:105F90000000043007F058F980BD000080B584B0DF
:105FA00047F61020C1F6FF700068039047F61420F2
:105FB000C1F6FF700068029047F61820C1F6FF7026
:105FC0000068019001980399084403900398002801
:105FD00013D0FFE7039840F27411C2F200018A1C4B
:105FE0000823009111461A4601F092FC029800998C
:105FF0001231042201F08CFCFFE704B080BD0000E8
:1060000080B586B004900391012002900020019099
:10601000FFE74EF27800C2F200008069012803D148
:10602000FFE70220059069E04EF27800C2F200001E
:1060300001218161FFE7FFE74CF25030FFF730FFAD
:106040000290029800284ED1FFE703984FF0FF31ED
:10605000016004980068012816D1FFE70498017CCC
:106060004068009008460099FFF7FEFD4CF2503062
:10607000FFF716FF029043F61040C4F202000168D9
:1060800021F0040101602BE0049880680190FFE793
:10609000019804998A68C968114488421FD2FFE7B1
:1060A00001980499097CFFF749FD4CF25030FFF745
:1060B000F7FE029043F61040C4F20200016821F09E
:1060C000FA0101600298002804D0FFE701980399C3
:1060D000086004E0FFE7019801300190D8E7FFE78E
:1060E000FFF770FDFFE7FFE74EF27800C2F2000015
:1060F00000218161FFE702980590FFE7059806B04F
:1061000080BD000043F61040C4F20200016841F077
:10611000004101600020704780B588B09C469646DB
:10612000069005910393029201200190FFE74EF241
:106130007800C2F200008069012803D1FFE7022045
:1061400007904EE04EF27800C2F20000012181611A
:10615000FFE7FFE74CF25030FFF7A2FE01900198F5
:10616000002833D1FFE70698002806D1FFE70598FD
:106170009DF80810FFF794FD1AE00698012806D153
:10618000FFE70598BDF80810FFF7C4FD0FE006987B
:10619000022805D1FFE705980299FFF7D7FD05E032
:1061A0000598029A039BFFF795FDFFE7FFE7FFE7DE
:1061B0004CF25030FFF774FE019043F61040C4F2E9
:1061C0000200016821F001010160FFE7FFE74EF2E4
:1061D0007800C2F2000000218161FFE7019807907A
:1061E000FFE7079808B080BD81B00020009043F61B
:1061F0001040C4F202000068C00F00281BD0FFE767
:1062000043F60440C4F2020040F22311C4F2675185
:10621000016048F6AB11CCF6EF51016043F6104037
:10622000C4F202000068C00F002803D0FFE701207D
:106230000090FFE7FFE7009801B070478BB00A902D
:10624000099100200790069005900890FFE70898B4
:106250000F2800F2A981FFE70898012101FA00F058
:1062600007900998006807990840069006980799D2
:10627000884240F09481FFE70998406801280FD0D8
:10628000FFE70998406802280AD0FFE709984068AC
:10629000112805D0FFE70998406812282FD1FFE7A1
:1062A0000A988068059008984000032101FA00F0E0
:1062B000059921EA000005900998C06808994900ED
:1062C000884005990843059005980A9988600A98BE
:1062D000406805900898012101FA00F0059921EA2B
:1062E0000000059009984068C0F3001008998840A4
:1062F00005990843059005980A994860FFE70A98B0
:10630000C068059008984000032101FA00F0059943
:1063100021EA0000059009988068089949008840A2
:1063200005990843059005980A99C860099840683E
:10633000022805D0FFE709984068122826D1FFE718
:106340000A9808996FF0030202EA51010844006AB2
:106350000590089800F0070080000F2101FA00F076
:10636000059921EA0000059009980069089901F053
:1063700007018900884005990843059005980A9906
:10638000089B02EA530211440862FFE70A9800687A
:10639000059008984000032101FA00F0059921EAD0
:1063A000000005900998406800F003000899490032
:1063B000884005990843059005980A99086009984E
:1063C000C079C006002840F1E980FFE7FFE7002020
:1063D000049043F64400C4F20200016841F4804195
:1063E0000160006800F4804004900498FFE708987A
:1063F00020F0030043F60801C4F201014058059063
:10640000089800F0030080000F2101FA00F00599C0
:1064100021EA000005900A980021C4F20201884296
:1064200003D1FFE70020039034E00A9840F20041D6
:10643000C4F20201884203D1FFE70120029026E066
:106440000A9840F60001C4F20201884203D1FFE736
:106450000220019018E00A9840F60041C4F20201BF
:10646000884203D1FFE7032000900AE00A9841F236
:106470000001C4F202010722884208BF04220092F0
:10648000FFE700980190FFE701980290FFE702986C
:106490000390FFE70398C0B2089901F00301890057
:1064A00088400599084305900598089921F0030153
:1064B00043F60802C4F20102885043F60040C4F2D9
:1064C0000100006805900698059921EA00000590F2
:1064D00009988079C007002805D0FFE7069805993C
:1064E00008430590FFE7059843F60041C4F2010117
:1064F000086043F60440C4F2010000680590069865
:10650000059921EA00000590099880798007002804
:1065100005D5FFE70698059908430590FFE705981C
:1065200043F60441C4F20101086043F60840C4F296
:106530000100006805900698059921EA0000059081
:1065400009988079C006002805D5FFE706980599C7
:1065500008430590FFE7059843F60841C4F201019E
:10656000086043F60C40C4F20100006805900698EC
:10657000059921EA00000590099880798006002895
:1065800005D5FFE70698059908430590FFE70598AC
:1065900043F60C41C4F201010860FFE7FFE7FFE7A3
:1065A00008980130089052E60BB070474EF2A030C8
:1065B000C2F200000068704780B582B043F6004028
:1065C000C4F20200016841F400710160016841F405
:1065D00080610160016841F480710160032000F076
:1065E0008BF80020019000F007F8009000F03AF8D6
:1065F000019802B080BD000080B582B0009040F2EA
:106600003400C2F20000006840F24441C2F20001CE
:1066100009684FF47A72B2FBF1F1B0FBF1F001F0CE
:106620004FF9002803D0FFE70120019016E0009801
:106630000F280DD8FFE700994FF0FF30002200F03F
:106640003FF8009840F24841C2F20001086002E0C1
:106650000120019002E000200190FFE7019802B0C4
:1066600080BD000082B0FFE70020019043F64400A7
:10667000C4F20200016841F480410160006800F446
:10668000804001900198FFE7FFE70020009043F66B
:106690004000C4F20200016841F0805101600068CE
:1066A00000F0805000900098FFE702B070470000B3
:1066B00080B582B00190019806F00CFB02B080BD5D
:1066C00080B586B00590049103920020029006F0F8
:1066D0001FFB029005980299049A039B01900846BB
:1066E00011461A4602F0CAF801990090084600992E
:1066F00006F03CFB06B080BD80B582B001900198E9
:1067000006F052FB02B080BD82B00190009102B051
:106710007047000082B00A460190ADF80210BDF843
:106720000200019909684862002002B07047000029
:1067300084B013468C4603908DF80B10ADF80820FA
:1067400003980068406A00909DF80B00002809D16A
:10675000FFE7BDF80800009941EA00400399096885
:10676000886233E003980068806A009901EB10406A
:10677000009000208DF80700FFE79DF807009DF8C6
:106780000B100139884213D2FFE7039800689DF887
:10679000071000EB8100D0F80401009901EB1040D4
:1067A0000090FFE79DF8070001308DF80700E4E74F
:1067B000BDF80800009941EA0040039909689DF876
:1067C0000B2001EB8201C1F80001FFE7002004B0BB
:1067D0007047000080B582B001900198D0F808049D
:1067E00004F054F902B080BD80B584B00A4603902D
:1067F0008DF80B100398D0F808149DF80B30C3EBFC
:10680000C30C00EB8C00806C019008461946019B7C
:1068100000921A4604F00AF804B080BD80B584B036
:106820000A4603908DF80B100398D0F808149DF8D1
:106830000B30C3EBC30C00EB8C00D0F808020190C6
:1068400008461946019B00921A4604F09FF804B0CE
:1068500080BD000080B582B001900198D0F8080496
:1068600004F01AF902B080BD80B584B00A460290E7
:106870008DF807109DF80700000600280FD5FFE7E8
:1068800002989DF8071001F00F01C1EBC10100EB68
:1068900081003C3000900098012141700FE0029887
:1068A0009DF8071001F00F01C1EBC10100EB810061
:1068B00000F5FE700090009800214170FFE79DF800
:1068C000070000F00F0000990870FFE70298D0F869
:1068D000BC03012803D1FFE70220039013E00298D4
:1068E0000121C0F8BC13FFE7FFE702980068009998
:1068F00005F03EF8FFE702980021C0F8BC13FFE75F
:1069000000200390FFE7039804B080BD80B584B0F9
:106910000A4602908DF807109DF8070000F00F005E
:1069200002994968884203D9FFE7012003904BE0B0
:106930009DF80700000600280FD5FFE702989DF894
:10694000071001F00F01C1EBC10100EB81003C30E9
:1069500000900098012141700FE002989DF8071007
:1069600001F00F01C1EBC10100EB810000F5FE70E9
:106970000090009800214170FFE70098002181708D
:106980009DF8070000F00F0000990870FFE70298DB
:10699000D0F8BC03012803D1FFE70220039013E0E5
:1069A00002980121C0F8BC13FFE7FFE702980068D6
:1069B000009905F073FBFFE702980021C0F8BC13B3
:1069C000FFE700200390FFE7039804B080BD0000BC
:1069D00082B00A4601908DF8031001989DF80310CB
:1069E00001F00F01C1EBC10100EB8100D0F81402EE
:1069F00002B0704710B586B09C4696460C4604908F
:106A00008DF80F10ADF80C208DF80B3000200190A0
:106A10009DF80F00000600280FD5FFE704989DF8A9
:106A20000F1001F00F01C1EBC10100EB81003C3000
:106A300000900098012141700FE004989DF80F101C
:106A400001F00F01C1EBC10100EB810000F5FE7008
:106A50000090009800214170FFE79DF80F0000F0C2
:106A60000F0000990870BDF80C00009988609DF82F
:106A70000B000099C87000984078002804D0FFE708
:106A800000980178C180FFE79DF80B00022804D12F
:106A9000FFE7009800210171FFE7FFE70498D0F8B5
:106AA000BC03012803D1FFE70220059013E00498FE
:106AB0000121C0F8BC13FFE7FFE7049800680099C4
:106AC00004F010FEFFE704980021C0F8BC13FFE7B4
:106AD00001980590FFE7059806B010BD80B588B015
:106AE0008C4607908DF81B100592049307989DF82B
:106AF0001B1001F00F01C1EBC10100EB810000F59B
:106B0000FE70039005980399C86004980399486142
:106B1000039800218161039841709DF81B0000F0EB
:106B20000F000399087007980069012804D1FFE756
:106B3000059803990861FFE79DF81B0000070028EE
:106B40000BD1FFE707980168039A007C0290084682
:106B50001146029A05F056F90AE007980168039A6F
:106B6000007C019008461146019A05F03FFBFFE7C3
:106B7000002008B080BD000080B586B00A460490B1
:106B80008DF80F109DF80F0000F00F000499496870
:106B9000884203D9FFE7012005905BE09DF80F00D4
:106BA000000600280FD5FFE704989DF80F1001F0AC
:106BB0000F01C1EBC10100EB81003C300290029853
:106BC000012141700DE004989DF80F10C1EBC10147
:106BD00000EB810000F5FE700290029800214170E8
:106BE000FFE70298012181709DF80F0000F00F006F
:106BF00002990870FFE70498D0F8BC03012803D17C
:106C0000FFE70220059025E004980121C0F8BC139D
:106C1000FFE7FFE704980068029905F08FFA9DF8F6
:106C20000F10090700290CD1FFE704980168027CC6
:106C300000F57270019008461146019A05F0E0F9DE
:106C4000FFE7FFE704980021C0F8BC13FFE700202E
:106C50000590FFE7059806B080BD000080B588B0BC
:106C60008C4607908DF81B100592049307989DF8A9
:106C70001B1001F00F01C1EBC10100EB81003C30A2
:106C8000039005980399C860049803994861039894
:106C9000002181610398012141709DF81B0000F0E3
:106CA0000F000399087007980069012804D1FFE7D5
:106CB000059803990861FFE79DF81B00000700286D
:106CC0000BD1FFE707980168039A007C0290084601
:106CD0001146029A05F096F80AE007980168039AAF
:106CE000007C019008461146019A05F07FFAFFE703
:106CF000002008B080BD000080B590B00F900F98C4
:106D000000680E900E980D900F98006805F0A6FC94
:106D1000002840F02D83FFE70F98006805F00AFD7A
:106D2000002801D1FFE723E30F98006805F002FD7A
:106D30008007002807D5FFE70F980068416901F038
:106D400002014161FFE70F98006805F0F3FCC006FF
:106D5000002860D5FFE70F980068816921F01001D5
:106D600081610E98006A07900F98079901F00F0152
:106D7000C1EBC10100EB810000F5FE7006900798A1
:106D800000F4F0100221B1EB504F22D1FFE7BDF823
:106D90001C0047F6F07108421AD0FFE70E980699DA
:106DA000C968079AC2F30A1205F0D2FC079947F6A0
:106DB000F0721140069BD3F80CC00CEB1111D96096
:106DC00007991140069A936903EB11119161FFE74E
:106DD0001AE0079800F4F0100621B1EB504F11D1E2
:106DE000FFE70E980F9901F57271082205F0B0FCCB
:106DF000079947F6F0721140069A936903EB111157
:106E0000916100E0FFE7FFE70F980068816941F0BA
:106E100010018161FFE70F98006805F08BFC00030B
:106E2000002871D5FFE7002009900F98006805F051
:106E30002FFC0B90FFE70B98002864D0FFE79DF82C
:106E40002C00C007002857D0FFE70F9800689DF876
:106E5000241005F057FC0A909DF82800C007002870
:106E60000CD0FFE70D98099900EB41100121C0F803
:106E7000081B0F98099902F0C9F8FFE79DF8280050
:106E8000000700280CD5FFE70D98099900EB411089
:106E90000821C0F8081B0F98099902F06FF8FFE766
:106EA0009DF82800C006002808D5FFE70D9809992D
:106EB00000EB41101021C0F8081BFFE79DF82800E7
:106EC0008006002808D5FFE70D98099900EB4110CE
:106ED0002021C0F8081BFFE79DF829008006002844
:106EE00009D5FFE70D98099900EB41104FF40051C7
:106EF000C0F8081BFFE7FFE70998013009900B98DD
:106F000040080B9097E7FFE70F98006805F012FC28
:106F10004003002840F1B280FFE70F98006805F0B9
:106F2000A5FB0B9000200990FFE70B98002800F0CC
:106F3000A480FFE79DF82C00C007002800F0968091
:106F4000FFE70F9800689DF8241005F0B3FB0A9046
:106F50009DF82800C007002844D0FFE7099800F0FA
:106F60000F00012101FA00F0089008980D9AD2F85C
:106F7000343823EA0000C2F834080D98099A00EB6F
:106F80004210C0F808190F980069012824D1FFE7C2
:106F90000F980999C1EBC10100EB8100416C826C33
:106FA000114481640998002815D1FFE70F980999C9
:106FB000C1EBC10100EB8100006D00280BD1FFE7A0
:106FC0000F98016800F57272012005900846059936
:106FD00005F016F8FFE7FFE70F989DF82410FFF77C
:106FE00003FCFFE79DF828000007002808D5FFE70D
:106FF0000D98099900EB41100821C0F80819FFE726
:107000009DF82800C006002808D5FFE70D980999CB
:1070100000EB41101021C0F80819FFE79DF8280087
:107020004006002808D5FFE70D98099900EB4110AC
:107030004021C0F80819FFE79DF8280080070028C4
:1070400008D5FFE70D98099900EB41100221C0F81F
:107050000819FFE79DF828000006002805D5FFE77E
:107060000F98099902F0CEF8FFE7FFE70998013081
:1070700009900B9840080B9057E7FFE70F980068BE
:1070800005F058FBC00F002820D0FFE70D98D0F87E
:10709000041821F00101C0F804180F98D0F8F80383
:1070A000012808D1FFE70F980021C0F8F8130F98C6
:1070B000FFF72AFB03E00F9800F044FBFFE70F986F
:1070C0000068416901F000414161FFE70F980068E5
:1070D00005F030FB0005002812D5FFE70D98D0F829
:1070E0000808C007002804D0FFE70F9800F0B8FB9D
:1070F000FFE70F980068416901F400614161FFE713
:107100000F98006805F016FBC004002840F1958038
:10711000FFE70D98D0F8041821F00101C0F8041819
:107120000F980068102105F04BFA00210C91FFE741
:107130000C980F99496888423BD2FFE70D980C994B
:1071400000EB41104FF67F31C0F808190D980C9AEA
:1071500000EB4210D0F8002922F40012C0F80029F8
:107160000D980C9A00EB4210D0F8002942F0006212
:10717000C0F800290D980C9A00EB4210C0F8081BCB
:107180000D980C9900EB4110D0F8001B21F4001170
:10719000C0F8001B0D980C9900EB4110D0F8001BB3
:1071A00041F00061C0F8001BFFE70C9801300C9023
:1071B000BEE70D98D0F81C1841F00111C0F81C185A
:1071C0000F98006B00280FD0FFE70D98D0F88418B7
:1071D00041F00B01C0F884180D98D0F8441841F024
:1071E0000B01C0F844180FE00D98D0F8141842F2C3
:1071F0002B021143C0F814180D98D0F8101841F064
:107200000B01C0F81018FFE70D98D0F8001821F412
:10721000FE61C0F800180F980168027C00F57270DA
:10722000049008461146049A04F0EAFE0F99096892
:107230004A6902F480524A61FFE70F98006805F03E
:1072400079FA8004002825D5FFE70F98006804F03C
:10725000B9FA0F9909680390084605F0D7F90F9914
:10726000C8600F980068029000F01AFB0F990A7B23
:10727000029901900846019905F0EAFA0F990090E9
:10728000084600F043FA0F980068416901F4005184
:107290004161FFE70F98006805F04CFA00070028ED
:1072A0000AD5FFE70F9800F057FA0F980068416978
:1072B00001F008014161FFE70F98006805F03AFA14
:1072C000C00200280ED5FFE7002009900F989DF816
:1072D000241000F04FF80F980068416901F4801104
:1072E0004161FFE70F98006805F024FA800200284A
:1072F0000ED5FFE7002009900F989DF8241000F0AC
:1073000049F80F980068416901F400114161FFE7F5
:107310000F98006805F00EFA400000280AD5FFE734
:107320000F98FFF757FA0F980068416901F0804104
:107330004161FFE70F98006805F0FCF9400700285D
:1073400015D5FFE70F980068406807909DF81C006E
:107350004007002804D5FFE70F98FFF77BFAFFE707
:1073600007980F9909684A6810434860FFE7FFE7EC
:1073700010B080BD80B584B00A4603908DF80B1024
:107380000398D0F808049DF80B10019203F024FC38
:1073900004B080BD80B584B00A4603908DF80B1010
:1073A0000398D0F808049DF80B10019203F01CFC20
:1073B00004B080BD2DE9F04F95B0139013980028CC
:1073C00003D1FFE70120149042E113980068129066
:1073D0001398D0F8C003002808D1FFE713980021C4
:1073E000C0F8BC13139800F037F9FFE71398032196
:1073F000C0F8C0131298C06BC005002804D4FFE782
:10740000139800210161FFE71398006804F0F0FC75
:1074100013990A684B68D1F808C0D1F80CE00C69E0
:107420004D698E69CF69D1F82080D1F82490D1F8C8
:1074300028A0D1F82CB01090086B496B0F906846CB
:1074400041620F990162C0F81CB0C0F818A0C0F8E2
:107450001490C0F81080C7608660456004601046D4
:1074600019466246734604F0C3F9002807D0FFE7C7
:1074700013980221C0F8C01301201490E8E013987B
:10748000006800210E9105F08BF90E998DF84710D8
:10749000FFE79DF8470013994968884245D2FFE706
:1074A00013989DF84710C1EBC10100EB8100012149
:1074B00080F83D109DF847001399C0EBC00201EB26
:1074C000820181F83C009DF847001399C0EBC0028F
:1074D00001EB8201A1F8420013989DF84710C1EB1F
:1074E000C10100EB8100002180F83F1013989DF846
:1074F0004720C2EBC20200EB8200416413989DF862
:107500004720C2EBC20200EB8200816413989DF811
:107510004720C2EBC20200EB82000165FFE79DF845
:10752000470001308DF84700B3E700208DF8470091
:10753000FFE79DF847001399496888423ED2FFE76C
:1075400013989DF84710C1EBC10100EB81000021A9
:1075500080F8FD119DF84700139AC0EBC00302EBC1
:10756000830282F8FC0113989DF84720C2EBC20207
:1075700000EB820080F8FF1113989DF84720C2EBC2
:10758000C20200EB8200C0F8041213989DF8472055
:10759000C2EBC20200EB8200C0F8081213989DF8FB
:1075A0004720C2EBC20200EB8200C0F81012FFE7D6
:1075B0009DF8470001308DF84700BAE7139801683D
:1075C00042688368D0F80CC0D0F810E0446985693F
:1075D000C669076AD0F82480D0F82890D0F82CA08B
:1075E000D0F830B0406B0D9068460C900D980B9120
:1075F0000C994862C1F820B0C1F81CA0C1F81890DD
:10760000C1F814800F61CE608D604C60C1F800E05D
:107610000B9811461A46634604F07CFA002807D0FE
:10762000FFE713980221C0F8C013012014900FE067
:107630001398002180F8381013980122C0F8C02355
:10764000139800680A9104F04FFA0A991491FFE721
:10765000149815B0BDE8F08F80B58AB0099000206D
:107660000890079006900590049009980068B0F182
:10767000A04F48D1FFE7FFE70020039043F630001A
:10768000C4F20200016841F001010160006800F0ED
:10769000010003900398FFE74FF4C05004900220CC
:1076A000059000200690032007900A2008900020F3
:1076B000C4F2020004A9FEF7C1FDFFE743F634005F
:1076C000C4F20200016841F080010160FFE7002080
:1076D000029043F64400C4F20200016841F4804184
:1076E0000160006800F4804002900298FFE7FFE725
:1076F0004320002101900091009AFEF7E1FF0198DC
:10770000FEF7D6FFFFE70AB080BD000080B584B069
:107710000390012002900398C068022803D0FFE77D
:10772000FDF728FBFFE70398D0F80804029903F05F
:107730001FFB0399D1F808140190084603F0A2FA40
:1077400004B080BD80B582B001900198D0F80804E3
:1077500003F0E2FA02B080BD80B582B001900198DA
:10776000D0F8080403F0EAFA02B080BD80B584B016
:107770000A4602908DF80710FFE70298D0F8BC0384
:10778000012803D1FFE70220039019E002980121AC
:10779000C0F8BC13FFE7FFE79DF80700029981F8E6
:1077A0003800029800689DF8071005F023F8FFE7FD
:1077B00002980021C0F8BC13FFE700200390FFE708
:1077C000039804B080BD000080B582B0019001989C
:1077D000D0F8081400F5727000900846009903F084
:1077E000EBFA02B080BD000080B584B00290029830
:1077F00000680190FFE70298D0F8BC03012803D18C
:10780000FFE70220039028E002980121C0F8BC1392
:10781000FFE7FFE70298806A01280BD1FFE7029893
:107820008069012806D0FFE70198816B41F480311F
:107830008163FFE70298006804F094FE02990968EA
:107840000090084604F03AF9FFE702980021C0F8DA
:10785000BC13FFE700200390FFE7039804B080BD4E
:1078600080B582B001900198D0F8080403F018FBAD
:1078700001990968D1F8002E42F00102C1F8002EEA
:107880000199096A002909D0FFE74EF61050CEF29F
:107890000000016841F006010160FFE702B080BD11
:1078A00040F23400C2F20000006870474EF210004F
:1078B000CEF20000016841F0020101607047000053
:1078C00080B582B00190019801F0B0FE02B080BD99
:1078D000FFE7FEE780B545F60030C2F20000103049
:1078E00005F0B2FC80BD000080B545F60030C2F264
:1078F00000000C3005F0A8FC80BD000080B545F606
:107900000030C2F20000083005F09EFC80BD00008F
:1079100083B01346029001918DF8032000208DF86A
:107920000200FFE79DF802009DF80310884229DA63
:10793000FFE70298000F092809D8FFE70298000F17
:10794000303001999DF8022001F8120009E00298F8
:10795000372101EB107001999DF8022001F8120007
:10796000FFE702980001029001989DF8021000EBD9
:10797000410000214170FFE79DF8020001308DF8C1
:107980000200CFE703B0704783B0EFF3108001909F
:10799000019801210028009109D1FFE7EFF3118040
:1079A00002900298002818BF01200090FFE700987D
:1079B00000F0010003B0704783B0EFF31080019036
:1079C000019801210028009109D1FFE7EFF3118010
:1079D00002900298002818BF01200090FFE700984D
:1079E00000F0010003B0704783B0EFF31080019006
:1079F000019801210028009109D1FFE7EFF31180E0
:107A000002900298002818BF01200090FFE700981C
:107A100000F0010003B0704783B0EFF310800190D5
:107A2000019801210028009109D1FFE7EFF31180AF
:107A300002900298002818BF01200090FFE70098EC
:107A400000F0010003B0704783B0EFF310800190A5
:107A5000019801210028009109D1FFE7EFF311807F
:107A600002900298002818BF01200090FFE70098BC
:107A700000F0010003B0704783B0EFF31080019075
:107A8000019801210028009109D1FFE7EFF311804F
:107A900002900298002818BF01200090FFE700988C
:107AA00000F0010003B0704781B0EFF30580009053
:107AB0000098002818BF012001B0704781B0EFF393
:107AC000058000900098002818BF012001B0704781
:107AD00081B0EFF3058000900098002818BF0120C6
:107AE00001B0704781B0EFF3058000900098002846
:107AF00018BF012001B0704781B0EFF305800090FE
:107B00000098002818BF012001B0704781B0EFF342
:107B1000058000900098002818BF012001B0704730
:107B200081B0EFF3148000909DF80000012121EA5C
:107B3000000001B07047000082B00190019843F648
:107B40003001C4F202010A68104308600868019914
:107B500008400090009802B07047000082B0019089
:107B6000019843F63001C4F202010A68104308602C
:107B70000868019908400090009802B07047000022
:107B800082B00190019843F63001C4F202010A6804
:107B9000104308600868019908400090009802B0FE
:107BA0007047000082B00190019843F64401C4F28E
:107BB00002010A68104308600868019908400090B3
:107BC000009802B07047000043F60040C4F2020083
:107BD000006800F00F00704781B0009043F600404D
:107BE000C4F20200016821F00F01009A1143016004
:107BF00001B0704780B584B00390029100200190DD
:107C000000900298006890FAA0F0B0FA80F001901D
:107C1000FFE7029800680199C840002850D0FFE7AC
:107C2000029800680199012202FA01F108400090CF
:107C30000098002840D0FFE702984068012805D04E
:107C4000FFE70298406802280DD1FFE703980099EA
:107C5000029A926800F0DAF803980099029AD268C2
:107C600000F0ACF8FFE703980099029A126900F05F
:107C7000B5F802984068022817D1FFE7009890FAFB
:107C8000A0F0B0FA80F0072807D8FFE70398009922
:107C9000029A526900F03AF806E003980099029AB5
:107CA000526900F04BF8FFE7FFE703980099029A4A
:107CB000526800F06BF8FFE7019801300190A8E7E7
:107CC000002004B080BD000082B0019000910198B6
:107CD000006900990840401AB0FA80F0400902B0EB
:107CE0007047000082B00190009100980004019953
:107CF000886102B07047000082B001900091009846
:107D000000040199886102B07047000083B00290BE
:107D1000019100920298006A019991FAA1F1B1FAD9
:107D200081F189000F228A409043009A02FA01F102
:107D300008430299086203B07047000083B00290C4
:107D4000019100920298406A0199090A91FAA1F101
:107D5000B1FA81F189000F228A409043009A02FA19
:107D600001F108430299486203B0704782B0019064
:107D7000009100980199886102B0704782B001902B
:107D8000009100980199886102B0704783B0029019
:107D90000191009202980068019991FAA1F1B1FA5B
:107DA00081F1490003228A409043009A02FA01F1CE
:107DB00008430299086003B07047000083B0029046
:107DC000019100920298406801998843009A5143BA
:107DD00008430299486003B07047000083B00290E6
:107DE000019100920298C068019991FAA1F1B1FA4B
:107DF00081F1490003228A409043009A02FA01F17E
:107E000008430299C86003B07047000083B0029035
:107E10000191009202988068019991FAA1F1B1FA5A
:107E200081F1490003228A409043009A02FA01F14D
:107E300008430299886003B07047000081B0009049
:107E400047F20000C4F20000016821F44041009AAA
:107E50001143016001B0704743F60800C4F202000C
:107E6000006800F0F000704743F60800C4F202001A
:107E7000006800F4E050704743F60800C4F20200C6
:107E8000006800F46040704743F60800C4F2020046
:107E9000006800F00C00704743F60800C4F20200CE
:107EA000006800F00C00704780B582B0019001F0CE
:107EB0007BFA019908600198006801F03DFA019988
:107EC00048600198406801F04BFA01998860019878
:107ED000406801F057FA0199C86002B080BD000007
:107EE00043F60000C4F20200016841F480310160F1
:107EF0007047000043F60000C4F202000068C0F3BF
:107F00004040704784B0039002910192009343F681
:107F10000400C4F20200016848F20002CFF2BF027E
:107F20001140039A029B1A43019B42EA8312009B71
:107F30001A431143016004B07047000084B00390FD
:107F400002910192009343F60400C4F2020001681A
:107F500048F20002CFF6BF721140039A029B1A4307
:107F6000019B42EA831211430160016821F4403110
:107F7000009A1143016004B07047000043F600000E
:107F8000C4F20200016841F0807101607047000096
:107F900043F60400C4F20200006800F03F0070479E
:107FA00043F60400C4F20200006800F48000704749
:107FB00043F60400C4F202000068C0F38810704762
:107FC00043F60400C4F20200006800F44030704739
:107FD00043F60000C4F202000068C0F3406070473E
:107FE00081B0009043F60800C4F20200016821F05D
:107FF000F001009A1143016001B07047FFE7FEE70E
:10800000A5A5A5A55A5A5A5A000000000000000074
:10801000A5A5A5A500000000000000005A5A5A5A64
:1080200081B0009043F60800C4F20200016821F418
:10803000E051009A1143016001B0704781B0009097
:1080400043F60800C4F20200016821F46041009A7E
:108050001143016001B0704781B0009043F6080001
:10806000C4F20200016821F00301009A114301608B
:1080700001B0704781B0009043F68C00C4F202005A
:10808000016821F08071009A1143016001B07047CE
:1080900081B00090009840F23401C2F20001086003
:1080A00001B0704781B000900098016921F49041BF
:1080B00001610098416921F02A01416101B07047D6
:1080C00081B000900098C16841F40051C16001B0D6
:1080D0007047000080B588B0079006910120059098
:1080E00000200490079800F05DF8002857D1FFE7C2
:1080F0000798C06849F20C61884306994A68CB68C2
:10810000D1F810C089691A4342EA0C0211430843AE
:108110000799C86007980699896800F0BBF8079826
:108120000699496900F0A8F86846FFF7BDFE079870
:1081300041F20001C4F20101884203D1FFE7039834
:10814000049018E0079844F20041C4F2000188420C
:1081500003D1FFE7029804900CE0079841F2004138
:10816000C4F20101884203D1FFE70398049000E0C4
:10817000FFE7FFE7FFE7049800280FD0FFE7069826
:10818000006800280AD0FFE70020059007980499AE
:10819000069A1368926900F00DF8FFE7FFE705986B
:1081A00008B080BD81B000900098C068C0F3403036
:1081B00001B0704780B586B0059004910392029398
:1081C0000398B0F5004F2AD1FFE704981921A0FBCE
:1081D0000101029A5300D20F01921A46019BFCF74B
:1081E00059F848F21F51C5F2EB11A0FB01235B09BE
:1081F0004FEA031C4FF0640E03FB1E00322303EB17
:10820000C000A0FB0101F82303EA51130CEB430368
:10821000C1F34211194489B2059B996029E0049881
:108220001921A0FB0101029A9300920F00921A46B5
:10823000009BFCF72FF848F21F51C5F2EB11A0FB91
:1082400001235B094FF0640C03FB1C004FF0320C60
:108250000CEB0010A0FB01014FF0F00C0CEA511CDC
:108260000CEB0313C1F34311194489B2059B9960C8
:10827000FFE706B080BD000082B001900091019838
:10828000406920F44070009908430199486102B0A8
:108290007047000082B0019000910198006920F4BD
:1082A0004050009908430199086102B070470000EE
:1082B00010B585B0049003910498039950E8002FFD
:1082C000940103D3BFF32F8F002206E002F0004297
:1082D0000A4340E8002303B1F0E7029201930094BF
:1082E000029805B010BD000080B584B00146ADF81D
:1082F0000E00BDF90E000191FCF70FFA41EC100BD6
:108300009FED091B53EC112B51EC100BFCF724F9DA
:1083100041EC100B51EC100BFCF723FA02909DED91
:10832000020A04B080BD00BF000000000000B03FA2
:1083300080B586B00A4604908DF80F10019200F0C7
:1083400079FC002803D1FFE7002005903BE0552091
:1083500000F0F6FD00208DF80B00FFE79DF80B0004
:10836000072814DCFFE79DF80F0040F28041C2F2BD
:10837000000101EBC0009DF80B10405C00F0E0FD37
:10838000FFE79DF80B0001308DF80B00E6E7BE20FB
:1083900000F0D6FD0020ADF80C00FFE7BDF90C00A1
:1083A00008280DD8FFE700F01BFC04994A1C049232
:1083B0000870FFE7BDF80C000130ADF80C00EDE7E8
:1083C00001200590FFE7059806B080BD80B590B00C
:1083D00000200F900E900D900C900B900A900421AD
:1083E00009900846FFF7A8FB8020FFF7A5FB0120B6
:1083F0000890FFF7A1FB02200790FFF79DFB40F6D6
:108400000000C4F202004FF4C0410690FFF7AEFC3A
:108410000020C4F2020048F2FC110590FFF7A6FC10
:1084200040F20040C4F2020042F2FF310490039196
:10843000FFF79CFC4FF400410698FFF753FC0598AA
:108440000799FFF74FFC4FF460400A9008980B9093
:1084500009990C910D910E900AAA06981146029264
:10846000FFF7C8FB48F2FE110A9108990B91079A91
:108470000C92099B0D930E91DDF814C0019060469B
:108480000299FFF7B7FB03990A91089A0B92079B91
:108490000C93DDF824C0CDF834C00E92DDF810E066
:1084A000009070460299FFF7A5FB10B080BD000058
:1084B00080B594B0002013901290119010900F90FE
:1084C0000E900D900C900B900A90099008900790D8
:1084D000102106900846FFF765FB0120FFF72CFBF3
:1084E0004FF4C0600790022008900320099006987E
:1084F0000A900B9007210C910020C4F2020007A9FA
:10850000FFF778FB059004F0FBFB0699069A00F054
:108510007DF9252104900846049A0391114604F040
:1085200007FC039804F0C0FB4FF4E1300D9006986F
:108530000E900F9010900C2111911290139041F217
:108540000001C4F201010DAA084602911146FFF78D
:10855000C1FD029901900846FFF7A4FD0298FFF7BC
:10856000AFFD14B080BD000080B544F69070C2F23B
:10857000000040F21801C2F20001002202F0E2F80D
:10858000002803D0FFE7FCF7F5FBFFE744F6907007
:10859000C2F2000040F23801C2F2000102F0DEFC3B
:1085A000002803D0FFE7FCF7E5FBFFE744F69070F7
:1085B000C2F2000040F25C11C2F2000101F090FB37
:1085C000002803D0FFE7FCF7D5FBFFE744F69070E7
:1085D000C2F2000002F02CFE002803D0FFE7FCF7F7
:1085E000C9FBFFE780BD000082B00A4601908DF80C
:1085F000031000208DF80200FFE79DF80300411EE4
:108600008DF8031000283DD0FFE70198411C01912F
:1086100000788DF8010000208DF80000FFE79DF83C
:10862000000007282DDCFFE79DF802009DF80110EF
:108630004840C007002812D0FFE79DF8020080F0F4
:1086400018008DF802009DF8020040088DF8020025
:108650009DF8020040F080008DF8020005E09DF8D2
:10866000020040088DF80200FFE79DF80100400875
:108670008DF80100FFE79DF8000001308DF8000043
:10868000CDE7BAE79DF8020002B0704784B00390CE
:108690000291039802990844019001980090009873
:1086A00004B0704781B00090009801B0704700009E
:1086B00080B584B003900398283004F039FD019010
:1086C000019800281AD0FFE70398C06A0290FFE7DC
:1086D0000298002811D0FFE702980230012104F02F
:1086E00001FE8DF803009DF80300002801D1FFE78B
:1086F00003E0029880680290EAE702E0002002901E
:10870000FFE7029804B080BD80B586B00590049163
:108710000598006B002840D0FFE70598006B039098
:1087200000200290FFE703980021002801910AD061
:10873000FFE70398C0780499C97800228842B8BF3F
:1087400001220192FFE70198C007002806D0FFE749
:1087500003980290039840680390E4E70398049913
:1087600048600298049988600398002804D0FFE7C5
:1087700004980399886003E004980599C862FFE7AC
:108780000298002804D0FFE704980299486003E0AB
:10879000049805990863FFE70BE004980021416005
:1087A0000498816004980599C86204980599086343
:1087B000FFE70598283004F037FD06B080BD0000C3
:1087C00082B00190009100984068002805D0FFE732
:1087D000009841688068886004E00098806801998A
:1087E000C862FFE700988068002805D0FFE700987E
:1087F00041688068416004E000984068019908631E
:10880000FFE702B070470000FFE7FEE788B007907F
:1088100006910592079800F0070004900498C0F1B3
:108820000700052803D3FFE70420019004E0049823
:10883000C0F107000190FFE701980390049804300D
:10884000062803D8FFE70020009003E004980338CF
:108850000090FFE70098029006980399012202FA1F
:1088600001F10139084002998840059B02FA01F1A3
:1088700001391940084308B07047000088B00790DC
:1088800006910592079800F0070004900498C0F143
:108890000700052803D3FFE70420019004E00498B3
:1088A000C0F107000190FFE701980390049804309D
:1088B000062803D8FFE70020009003E0049803385F
:1088C0000090FFE70098029006980399012202FAAF
:1088D00001F10139084002998840059B02FA01F133
:1088E00001391940084308B0704700004EF21000EB
:1088F000CEF200000068704740F2A840C2F20000CB
:10890000007800280ED0FFE740F2A840C2F2000035
:10891000002101704EF60450CEF200004FF080614D
:108920000160FFE74EF21000CEF20000016841F056
:10893000010101607047000081B04EF21400CEF2D8
:1089400000000068009000984EF21801CEF200017D
:108950000968401A01B070474FF0FF3070470000BF
:108960004EF21400CEF200000068013070470000A3
:108970004EF21000CEF200000068C0F300407047D5
:1089800084B0029001910298002804D1FFE74FF0D3
:10899000FF30039031E040F23400C2F20000006882
:1089A0000299B0FBF1F0013800900098B0F1807F9F
:1089B00004D3FFE74FF0FF3003901EE04EF6235044
:1089C000CEF20000FF2101704EF21000CEF2000046
:1089D0000621016000984EF21401CEF200010860F9
:1089E0004EF21800CEF200000021016040F2A840D3
:1089F000C2F2000001700391FFE7039804B07047D2
:108A000080B545F26020C2F20000FEF775F980BD26
:108A100080B588B003468DF81B00059104920020B4
:108A20008DF80F000193FCF78DF9012853D1FFE772
:108A3000962006F01DF80021ADF80C109DF80F10DF
:108A400003AA0090104600F023FD01282DD1FFE776
:108A50009DF80F0040F28041C2F2000101EBC0001E
:108A60008079002813D0FFE79DF80F0040F2804185
:108A7000C2F2000101EBC000C079002807D0FFE777
:108A8000BDF90C00FFF730FC8DED020A06E0BDF9E0
:108A90000C0004F021F88DED020AFFE7029845F280
:108AA0006C61C2F2000108600CE045F26C60C2F239
:108AB000000090ED000A9FED101A20EE010A8DEDE6
:108AC000070A15E09DED020A9FED0B1A20EE010A40
:108AD0008DED070A0CE045F26C60C2F2000090EDEB
:108AE000000A9FED051A20EE010A8DED070AFFE747
:108AF0009DED070A08B080BD00007A4480B58CB0B7
:108B000000200690059004900390029001900220AE
:108B1000FFF724F820200190012102910322039203
:108B20000491059140F20041C4F2020101AA0090B3
:108B300008461146FFF75EF840F21841C4F2020100
:108B4000009A0A600CB080BD80B582B000208DF81C
:108B500005008DF80700FFE79DF80700012815DCE8
:108B6000FFE700F017F88DF806009DF805009DF866
:108B700006109DF80720914008438DF80500FFE797
:108B80009DF8070001308DF80700E5E79DF8050026
:108B900002B080BD80B582B040F21840C4F202003D
:108BA0004FF40011016002210090084607F0C2FF57
:108BB0002020009908600A2007F0BCFF40F2104016
:108BC000C4F20200006800F0200001903A2007F093
:108BD000B1FF0198002818BF012002B080BD00003D
:108BE00080B582B000208DF806008DF80700FFE701
:108BF0009DF80700072818DCFFE79DF806004008ED
:108C00008DF80600FFF7C6FF002807D0FFE79DF8A4
:108C1000060040F080008DF80600FFE7FFE79DF8B2
:108C2000070001308DF80700E2E79DF8060002B06A
:108C300080BD000080B582B040F21840C4F202004E
:108C40004FF4001101604FF4F0710090084607F0F6
:108C500071FF202000990860462007F06BFF40F26A
:108C60001040C4F20200006800F020008DF80700F8
:108C70004FF4CD7007F05EFF9DF80700B0FA80F06A
:108C8000400902B080BD000080B59CB00A461A9031
:108C90008DF8671000208DF865008DF86000179042
:108CA0008DF81B008DF81A00FFE7FFF7C3FF0028BF
:108CB00004D1FFE700208DF86F000AE1F02000F0FA
:108CC0003FF900208DF86300FFE79DF86300072857
:108CD00000F3DD80FFE700208DF86200FFE79DF8DC
:108CE0006200072800F3BF80FFE7FFF72DFF8DF834
:108CF00066009DF8660000F003008DF866009DF8A0
:108D00001B0040088DF81B009DF8660002280ED15C
:108D1000FFE70020059000F0E1F89DF863009DF862
:108D2000621001EBC00007A9059A0A5494E09DF86F
:108D30006600012814D1FFE79DF81B0040F0800079
:108D40008DF81B000120049000F0C8F89DF8630026
:108D50009DF8621001EBC00007A9049A0A547AE05A
:108D60009DF86600002870D1FFE79DF863009DF82C
:108D7000621001EBC00001308DF864009DF86400C2
:108D80009DF8651017AA515C884218DDFFE70020A6
:108D9000039000F0A3F89DF863009DF8621001EBCA
:108DA000C00007A9039A0A549DF864009DF8651055
:108DB00001318DF86510C9B217AB585444E09DF8E5
:108DC00064009DF8651017AA515C884218DAFFE725
:108DD0009DF81B009DF863109DF8622002EBC10115
:108DE00007AA515C40EAC1108DF81B009DF8630092
:108DF0009DF8621001EBC000105C00F06FF822E0FB
:108E00009DF864009DF8651017AA515C884219D13D
:108E1000FFE79DF81B0040F080008DF81B0001204B
:108E2000029000F05BF89DF863009DF8621001EB82
:108E3000C00007A9029A0A549DF8650001388DF810
:108E40006500FFE7FFE7FFE704E09DF81A008DF8F3
:108E50006F003EE0FFE7FFE7FFE79DF862000130AB
:108E60008DF862003BE79DF81B001A999DF81A20C7
:108E700001EBC2019DF86320885400208DF81B008F
:108E8000FFE79DF8630001308DF863001DE79DF852
:108E90001A0001308DF81A00FFE79DF8650017A948
:108EA000085C00210028019108D0FFE79DF81A0016
:108EB00000210528B8BF01210191FFE70198C007F3
:108EC00000287FF4F2AEFFE79DF81A008DF86F00DE
:108ED000FFE79DF86F001CB080BD000080B584B036
:108EE00001468DF80F009DF80F00002813D0FFE712
:108EF00040F21840C4F202004FF400110160022158
:108F00000290084607F016FE2020029908604420CF
:108F100007F010FE12E040F21840C4F202004FF4D5
:108F2000001101603C210190084607F003FE20205B
:108F3000019908600A2007F0FDFDFFE704B080BD3D
:108F400080B582B001468DF8070000200090FFE751
:108F50000098072810DCFFE79DF8070000F00100EB
:108F6000FFF7BCFF9DF8070040088DF80700FFE7FA
:108F7000009801300090EBE702B080BD80B588B06A
:108F80000790069107980068059005980490059849
:108F9000006C03900498069900EB4110D0F8080B80
:108FA0000290039843F20B01C4F6547188420FD328
:108FB000FFE79DF809000006002809D5FFE704989F
:108FC000069900EB41104FF40041C0F8081BFFE781
:108FD0000798FEF7F9FB039843F20B01C4F65471AE
:108FE000884210D3FFE70798006901280BD1FFE7FB
:108FF0000798016800F572720120019008460199F6
:1090000002F0FEFFFFE7002008B080BD80B588B009
:1090100007900691079800680590059804900598B8
:10902000006C03900498069900EB4110D0F8080BEF
:10903000029007980069012840F09480FFE79DF8AE
:1090400008000007002818D5FFE7039843F20B013A
:10905000C4F6547188420FD3FFE79DF8090000065B
:10906000002809D5FFE70498069900EB41104FF45A
:109070000041C0F8081BFFE773E09DF80800800678
:10908000002808D5FFE70498069900EB411020213D
:10909000C0F8081B64E09DF8080010F0280F5DD1AF
:1090A000FFE7039843F20B01C4F6547188420FD3D3
:1090B000FFE79DF809000006002809D5FFE704989E
:1090C000069900EB41104FF40041C0F8081B44E042
:1090D00007980699C1EBC10200EB8200D0F80402A8
:1090E000049A02EB4111D1F8101B6FF3DF41401AD3
:1090F0000799069AC2EBC20201EB8201C1F8140281
:1091000007980699C1EBC10100EB8100D0F8041269
:10911000D0F808221144C0F808120698002816D189
:10912000FFE707980699C1EBC10100EB8100D0F879
:10913000100200280BD1FFE70798016800F5727252
:10914000012001900846019902F05AFFFFE70798B5
:109150009DF81810FDF762FBFFE700E0FFE7FFE76F
:10916000FFE74CE0039843F20A11C4F654718842B9
:1091700024D1FFE79DF809000006002809D5FFE784
:109180000498069900EB41104FF40041C0F8081B09
:1091900013E09DF808008006002808D5FFE7049832
:1091A000069900EB41102021C0F8081BFFE7079843
:1091B0009DF81810FDF732FBFFE71FE00698002826
:1091C00016D1FFE707980699C1EBC10100EB8100BA
:1091D000D0F8100200280BD1FFE70798016800F5CE
:1091E0007272002000900846009902F009FFFFE724
:1091F00007989DF81810FDF711FBFFE7FFE7002027
:1092000008B080BD80B58CB00A9009910A980068BA
:109210000890089807900A980999C1EBC10100EBE2
:1092200081003C300690069841698069884203D9E4
:10923000FFE701200B907BE0069841698069081ADE
:109240000590059806998968884204D9FFE7069831
:1092500080680590FFE70598033080080490FFE7D9
:109260000798099900EB4110D0F8180980B20499C9
:109270000022884202920FD3FFE706984169806975
:1092800000228842029207D2FFE706984069002830
:1092900018BF01200290FFE70298C00700282ED0D7
:1092A000FFE7069841698069081A059005980699B4
:1092B0008968884204D9FFE7069880680590FFE72F
:1092C000059803308008049008980699C9689DF8AD
:1092D0002420BDF81430DDF828C09CF810C0EE46FC
:1092E000CEF800C003F094FB0599069AD3681944A0
:1092F000D1600599069A936919449161B0E706987F
:1093000041698069814210D8FFE7099800F00F0099
:10931000012101FA00F0039003980799D1F834284D
:1093200022EA0000C1F83408FFE700200B90FFE7B5
:109330000B980CB080BD000080B582B00190019800
:109340000090FEF789FDC0B2000944F28C41C0F6DE
:109350000101085C009921FA00F002B080BD000014
:1093600080B582B0019001980090FEF77DFD800AE3
:1093700044F29C41C0F60101085C009921FA00F01A
:1093800002B080BD80B582B0019001980090FEF7D8
:1093900073FD400B44F29C41C0F60101085C00994A
:1093A00021FA00F002B080BD80B582B000200190AB
:1093B000FEF772FD01460028009108D0FFE70098F3
:1093C00004280AD0FFE7009808280CD010E042F2E9
:1093D0000040C0F2F400019010E041F20020C0F221
:1093E0007A0001900AE0082000F00CF8019005E0F6
:1093F00042F20040C0F2F4000190FFE7019802B091
:1094000080BD000080B588B00790002006900590D0
:109410000490FEF7C5FD059005980028039005D03F
:10942000FFE70398B0F5800F06D00BE042F2004052
:10943000C0F2F40006900BE041F20020C0F27A0086
:10944000069005E042F20040C0F2F4000690FFE70B
:109450000798082818D1FFE706980290FEF798FDB4
:109460000299B1FBF0F00190FEF7A2FD019948438B
:109470000090FEF7A5FD000C022101EB40000099D1
:10948000B1FBF0F00490FFE7049808B080BD000045
:1094900080B588B00A4606908DF817100DF10E00C1
:1094A00002909DF817100192FEF742FF002803D1A9
:1094B000FFE7002007901AE09DF816000DF10E015D
:1094C0000822009008461146FFF78EF80099814265
:1094D00003D0FFE70020079009E002980178407868
:1094E00041EA00200699088001200790FFE70798CD
:1094F00008B080BD80B582B04EF62250CEF200009A
:10950000FF210170007880F0FF00B0FA80F0C0F118
:109510002000009003F004FC01900198009988421B
:1095200004D3FFE7019801300090FFE70098FE2187
:1095300001FA00F04EF61F51CEF20001087002B0A1
:1095400080BD000084B003900398009000980078DC
:10955000ADF8080000980130009000980078ADF850
:109560000600BDF80600BDF8081041EA0020ADF87D
:109570000A00BDF80A0004B07047000080B582B050
:1095800040F2A940C2F20000017840F28042C2F2EB
:10959000000201901046FFF777FB0199087002B0B6
:1095A00080BD000080B582B0019001980C3003F0BE
:1095B00083FD002803D0FFE70120009002E0002097
:1095C0000090FFE7009802B080BD000080B584B035
:1095D0000390039800F10C01C0890190084601999D
:1095E00003F0D6FD0399C989884203DAFFE7012019
:1095F000029002E000200290FFE7029804B080BDD4
:109600004EF60450CEF200004FF0805101607047DA
:1096100081B001468DF803009DF80300C0062022AA
:10962000002858BF6022104601B0704780B582B054
:10963000009000980138B0F1807F03D3FFE701204C
:10964000019019E0009801384EF21401CEF20001A9
:1096500008604FF0FF300F2103F088FB4EF2180036
:10966000CEF20000002101604EF21000CEF20000A8
:10967000072202600191FFE7019802B080BD00005F
:1096800080B584B00220FEF7A7FAFFE7FEF79CFA48
:10969000022801D0FFE7F9E74FF44040FEF7CEFB88
:1096A000FEF71EFCFFE7FEF725FC012801D0FFE7CF
:1096B000F9E74FF4800008219022002303900291E3
:1096C0000192FEF73BFC4FF0407303980299019A18
:1096D000FEF718FCFEF752FCFFE7FEF779FC0128C5
:1096E00001D0FFE7F9E700200090FEF779FC4FF486
:1096F0008050FEF795FC0098FEF7A0FC0220FEF7D4
:10970000ABFCFFE7FEF7C0FB082801D0FFE7F9E755
:109710004AF20020C0F24A40FEF7BAFC0020FCF7F3
:109720006BFF002803D0FFE7FBF724FBFFE70020D7
:10973000FEF7A0FC04B080BD4EF68850CEF20000CB
:10974000016841F4700101604EF60850CEF200004D
:1097500044F20001C0F600010160704780B584B09A
:109760000390029101929DF804008007002815D40F
:10977000FFE79DF80400C007002807D0FFE7039823
:109780002830029903F062FC009006E0039828302C
:10979000029903F077FC0090FFE71DE00398806AD0
:1097A00000909DF80400C007002806D0FFE700984D
:1097B0000299084088420BD1FFE79DF80400C007DA
:1097C000002808D1FFE700980299084203D1FFE77B
:1097D00000200090FFE7FFE7009804B080BD000084
:1097E00085B0049003910020029040F2A030C2F2B4
:1097F0000000406C0190FFE70198002100280091D3
:1098000009D0FFE70198006903990022884298BFB8
:1098100001220092FFE70098C00700280BD0FFE765
:10982000019800690399081A039001980290019821
:10983000C0680190E0E703980499086102980499D0
:10984000886001980499C860019800280AD0FFE751
:109850000498006901990A69101A0861049801992D
:109860008860FFE70298002804D0FFE70498029977
:10987000C86006E0049840F2A031C2F200014864DA
:10988000FFE705B07047000081B000900098C06805
:10989000002805D0FFE700988168C0688160FFE775
:1098A0000098C06840F2A031C2F20001486401B0E3
:1098B0007047000080B582B001900091FFE70198E9
:1098C000BDF80010FBF70AFA002801D0FFE7F6E721
:1098D00002B080BD7047000080B588B00A4606908F
:1098E0008DF817100698D0F8C40203900698D0F8A7
:1098F000BC02002804D1FFE703208DF81F004FE0D1
:109900000698D0F8BC02049006989DF8171001EB59
:10991000810100EB81008069002828D0FFE70698CC
:109920009DF8171001EB810200EB82008069039A19
:10993000C1EBC10102EB8101496CB0FBF1F202FB0A
:109940001100002813D1FFE706989DF8171001EBCE
:10995000810100EB81000021816106989DF81720AC
:1099600002911146029A029B01F0A8FA14E00498B1
:109970000021C0F814120698D0F8C00200690499BA
:10998000D1F8082201F504719DF8173001901046B6
:109990001A46019B9847FFE700208DF81F00FFE75C
:1099A0009DF81F0008B080BD80B586B00A460490BF
:1099B0008DF80F100498D0F8BC0202900498D0F8EB
:1099C000BC02002804D1FFE703208DF8170018E03F
:1099D00004989DF80F1001F079F80299C1F80C0273
:1099E0000498D0F8C002C0680299D1F8042201F5A9
:1099F000037101901046019A904700218DF81710CD
:109A0000FFE79DF8170006B080BD000080B588B064
:109A10000A4607908DF81B1000208DF81A00079950
:109A20008123059008461946049200F0E5FE079947
:109A3000059A0A870799012303900846194600F002
:109A4000DBFE0799059AA1F87821079982230290F5
:109A50000846194600F0D0FE0799059AA1F84C2057
:109A60000799A1F84E200799D1F8BC12002911D00E
:109A7000FFE70798D0F8C002406880470799D1F8FF
:109A8000BC12019008460AF00FFC07980021C0F8AC
:109A9000BC12FFE79DF81A0008B080BD80B584B005
:109AA00003900398D0F8BC0202900398D0F8C0024B
:109AB000002819D0FFE7029890F80002FF2813D081
:109AC000FFE70398D0F8C0028068029991F800225D
:109AD00091F80132019010461A46019B984702996D
